{
  "_format": "hh-sol-artifact-1",
  "contractName": "CirqlProtocol",
  "sourceName": "contracts/CirqlProtocol.sol",
  "abi": [
    {
      "inputs": [
        {
          "internalType": "contract ERC20",
          "name": "_asset",
          "type": "address"
        },
        {
          "internalType": "string",
          "name": "_name",
          "type": "string"
        },
        {
          "internalType": "string",
          "name": "_symbol",
          "type": "string"
        },
        {
          "internalType": "address",
          "name": "_pool",
          "type": "address"
        },
        {
          "internalType": "address",
          "name": "_ghoDebtToken",
          "type": "address"
        }
      ],
      "stateMutability": "nonpayable",
      "type": "constructor"
    },
    {
      "anonymous": false,
      "inputs": [
        {
          "indexed": true,
          "internalType": "address",
          "name": "owner",
          "type": "address"
        },
        {
          "indexed": true,
          "internalType": "address",
          "name": "spender",
          "type": "address"
        },
        {
          "indexed": false,
          "internalType": "uint256",
          "name": "value",
          "type": "uint256"
        }
      ],
      "name": "Approval",
      "type": "event"
    },
    {
      "anonymous": false,
      "inputs": [
        {
          "indexed": true,
          "internalType": "address",
          "name": "sender",
          "type": "address"
        },
        {
          "indexed": true,
          "internalType": "address",
          "name": "owner",
          "type": "address"
        },
        {
          "indexed": false,
          "internalType": "uint256",
          "name": "assets",
          "type": "uint256"
        },
        {
          "indexed": false,
          "internalType": "uint256",
          "name": "shares",
          "type": "uint256"
        }
      ],
      "name": "Deposit",
      "type": "event"
    },
    {
      "anonymous": false,
      "inputs": [
        {
          "indexed": true,
          "internalType": "address",
          "name": "previousOwner",
          "type": "address"
        },
        {
          "indexed": true,
          "internalType": "address",
          "name": "newOwner",
          "type": "address"
        }
      ],
      "name": "OwnershipTransferred",
      "type": "event"
    },
    {
      "anonymous": false,
      "inputs": [
        {
          "indexed": true,
          "internalType": "address",
          "name": "from",
          "type": "address"
        },
        {
          "indexed": true,
          "internalType": "address",
          "name": "to",
          "type": "address"
        },
        {
          "indexed": false,
          "internalType": "uint256",
          "name": "value",
          "type": "uint256"
        }
      ],
      "name": "Transfer",
      "type": "event"
    },
    {
      "anonymous": false,
      "inputs": [
        {
          "indexed": true,
          "internalType": "address",
          "name": "sender",
          "type": "address"
        },
        {
          "indexed": true,
          "internalType": "address",
          "name": "receiver",
          "type": "address"
        },
        {
          "indexed": true,
          "internalType": "address",
          "name": "owner",
          "type": "address"
        },
        {
          "indexed": false,
          "internalType": "uint256",
          "name": "assets",
          "type": "uint256"
        },
        {
          "indexed": false,
          "internalType": "uint256",
          "name": "shares",
          "type": "uint256"
        }
      ],
      "name": "Withdraw",
      "type": "event"
    },
    {
      "inputs": [
        {
          "internalType": "uint256",
          "name": "_assets",
          "type": "uint256"
        }
      ],
      "name": "_deposit",
      "outputs": [],
      "stateMutability": "nonpayable",
      "type": "function"
    },
    {
      "inputs": [
        {
          "internalType": "uint256",
          "name": "_shares",
          "type": "uint256"
        },
        {
          "internalType": "address",
          "name": "_receiver",
          "type": "address"
        }
      ],
      "name": "_withdraw",
      "outputs": [],
      "stateMutability": "nonpayable",
      "type": "function"
    },
    {
      "inputs": [
        {
          "internalType": "address",
          "name": "owner",
          "type": "address"
        },
        {
          "internalType": "address",
          "name": "spender",
          "type": "address"
        }
      ],
      "name": "allowance",
      "outputs": [
        {
          "internalType": "uint256",
          "name": "",
          "type": "uint256"
        }
      ],
      "stateMutability": "view",
      "type": "function"
    },
    {
      "inputs": [
        {
          "internalType": "address",
          "name": "spender",
          "type": "address"
        },
        {
          "internalType": "uint256",
          "name": "amount",
          "type": "uint256"
        }
      ],
      "name": "approve",
      "outputs": [
        {
          "internalType": "bool",
          "name": "",
          "type": "bool"
        }
      ],
      "stateMutability": "nonpayable",
      "type": "function"
    },
    {
      "inputs": [],
      "name": "asset",
      "outputs": [
        {
          "internalType": "address",
          "name": "",
          "type": "address"
        }
      ],
      "stateMutability": "view",
      "type": "function"
    },
    {
      "inputs": [
        {
          "internalType": "address",
          "name": "account",
          "type": "address"
        }
      ],
      "name": "balanceOf",
      "outputs": [
        {
          "internalType": "uint256",
          "name": "",
          "type": "uint256"
        }
      ],
      "stateMutability": "view",
      "type": "function"
    },
    {
      "inputs": [
        {
          "internalType": "uint256",
          "name": "shares",
          "type": "uint256"
        }
      ],
      "name": "convertToAssets",
      "outputs": [
        {
          "internalType": "uint256",
          "name": "assets",
          "type": "uint256"
        }
      ],
      "stateMutability": "view",
      "type": "function"
    },
    {
      "inputs": [
        {
          "internalType": "uint256",
          "name": "assets",
          "type": "uint256"
        }
      ],
      "name": "convertToShares",
      "outputs": [
        {
          "internalType": "uint256",
          "name": "shares",
          "type": "uint256"
        }
      ],
      "stateMutability": "view",
      "type": "function"
    },
    {
      "inputs": [],
      "name": "decimals",
      "outputs": [
        {
          "internalType": "uint8",
          "name": "",
          "type": "uint8"
        }
      ],
      "stateMutability": "view",
      "type": "function"
    },
    {
      "inputs": [
        {
          "internalType": "address",
          "name": "spender",
          "type": "address"
        },
        {
          "internalType": "uint256",
          "name": "subtractedValue",
          "type": "uint256"
        }
      ],
      "name": "decreaseAllowance",
      "outputs": [
        {
          "internalType": "bool",
          "name": "",
          "type": "bool"
        }
      ],
      "stateMutability": "nonpayable",
      "type": "function"
    },
    {
      "inputs": [
        {
          "internalType": "uint256",
          "name": "assets",
          "type": "uint256"
        },
        {
          "internalType": "address",
          "name": "receiver",
          "type": "address"
        }
      ],
      "name": "deposit",
      "outputs": [
        {
          "internalType": "uint256",
          "name": "",
          "type": "uint256"
        }
      ],
      "stateMutability": "nonpayable",
      "type": "function"
    },
    {
      "inputs": [],
      "name": "ghoDebtToken",
      "outputs": [
        {
          "internalType": "contract ICreditDelegationToken",
          "name": "",
          "type": "address"
        }
      ],
      "stateMutability": "view",
      "type": "function"
    },
    {
      "inputs": [
        {
          "internalType": "address",
          "name": "spender",
          "type": "address"
        },
        {
          "internalType": "uint256",
          "name": "addedValue",
          "type": "uint256"
        }
      ],
      "name": "increaseAllowance",
      "outputs": [
        {
          "internalType": "bool",
          "name": "",
          "type": "bool"
        }
      ],
      "stateMutability": "nonpayable",
      "type": "function"
    },
    {
      "inputs": [
        {
          "internalType": "address",
          "name": "_borrower",
          "type": "address"
        },
        {
          "internalType": "uint256",
          "name": "amountInGho",
          "type": "uint256"
        }
      ],
      "name": "lend",
      "outputs": [],
      "stateMutability": "nonpayable",
      "type": "function"
    },
    {
      "inputs": [
        {
          "internalType": "address",
          "name": "",
          "type": "address"
        }
      ],
      "name": "maxDeposit",
      "outputs": [
        {
          "internalType": "uint256",
          "name": "",
          "type": "uint256"
        }
      ],
      "stateMutability": "view",
      "type": "function"
    },
    {
      "inputs": [
        {
          "internalType": "address",
          "name": "",
          "type": "address"
        }
      ],
      "name": "maxMint",
      "outputs": [
        {
          "internalType": "uint256",
          "name": "",
          "type": "uint256"
        }
      ],
      "stateMutability": "view",
      "type": "function"
    },
    {
      "inputs": [
        {
          "internalType": "address",
          "name": "owner",
          "type": "address"
        }
      ],
      "name": "maxRedeem",
      "outputs": [
        {
          "internalType": "uint256",
          "name": "",
          "type": "uint256"
        }
      ],
      "stateMutability": "view",
      "type": "function"
    },
    {
      "inputs": [
        {
          "internalType": "address",
          "name": "owner",
          "type": "address"
        }
      ],
      "name": "maxWithdraw",
      "outputs": [
        {
          "internalType": "uint256",
          "name": "",
          "type": "uint256"
        }
      ],
      "stateMutability": "view",
      "type": "function"
    },
    {
      "inputs": [
        {
          "internalType": "uint256",
          "name": "shares",
          "type": "uint256"
        },
        {
          "internalType": "address",
          "name": "receiver",
          "type": "address"
        }
      ],
      "name": "mint",
      "outputs": [
        {
          "internalType": "uint256",
          "name": "",
          "type": "uint256"
        }
      ],
      "stateMutability": "nonpayable",
      "type": "function"
    },
    {
      "inputs": [],
      "name": "name",
      "outputs": [
        {
          "internalType": "string",
          "name": "",
          "type": "string"
        }
      ],
      "stateMutability": "view",
      "type": "function"
    },
    {
      "inputs": [],
      "name": "owner",
      "outputs": [
        {
          "internalType": "address",
          "name": "",
          "type": "address"
        }
      ],
      "stateMutability": "view",
      "type": "function"
    },
    {
      "inputs": [],
      "name": "pool",
      "outputs": [
        {
          "internalType": "contract IPool",
          "name": "",
          "type": "address"
        }
      ],
      "stateMutability": "view",
      "type": "function"
    },
    {
      "inputs": [
        {
          "internalType": "uint256",
          "name": "assets",
          "type": "uint256"
        }
      ],
      "name": "previewDeposit",
      "outputs": [
        {
          "internalType": "uint256",
          "name": "",
          "type": "uint256"
        }
      ],
      "stateMutability": "view",
      "type": "function"
    },
    {
      "inputs": [
        {
          "internalType": "uint256",
          "name": "shares",
          "type": "uint256"
        }
      ],
      "name": "previewMint",
      "outputs": [
        {
          "internalType": "uint256",
          "name": "",
          "type": "uint256"
        }
      ],
      "stateMutability": "view",
      "type": "function"
    },
    {
      "inputs": [
        {
          "internalType": "uint256",
          "name": "shares",
          "type": "uint256"
        }
      ],
      "name": "previewRedeem",
      "outputs": [
        {
          "internalType": "uint256",
          "name": "",
          "type": "uint256"
        }
      ],
      "stateMutability": "view",
      "type": "function"
    },
    {
      "inputs": [
        {
          "internalType": "uint256",
          "name": "assets",
          "type": "uint256"
        }
      ],
      "name": "previewWithdraw",
      "outputs": [
        {
          "internalType": "uint256",
          "name": "",
          "type": "uint256"
        }
      ],
      "stateMutability": "view",
      "type": "function"
    },
    {
      "inputs": [
        {
          "internalType": "uint256",
          "name": "shares",
          "type": "uint256"
        },
        {
          "internalType": "address",
          "name": "receiver",
          "type": "address"
        },
        {
          "internalType": "address",
          "name": "owner",
          "type": "address"
        }
      ],
      "name": "redeem",
      "outputs": [
        {
          "internalType": "uint256",
          "name": "",
          "type": "uint256"
        }
      ],
      "stateMutability": "nonpayable",
      "type": "function"
    },
    {
      "inputs": [],
      "name": "renounceOwnership",
      "outputs": [],
      "stateMutability": "nonpayable",
      "type": "function"
    },
    {
      "inputs": [
        {
          "internalType": "address",
          "name": "",
          "type": "address"
        }
      ],
      "name": "shareHolders",
      "outputs": [
        {
          "internalType": "uint256",
          "name": "",
          "type": "uint256"
        }
      ],
      "stateMutability": "view",
      "type": "function"
    },
    {
      "inputs": [],
      "name": "symbol",
      "outputs": [
        {
          "internalType": "string",
          "name": "",
          "type": "string"
        }
      ],
      "stateMutability": "view",
      "type": "function"
    },
    {
      "inputs": [],
      "name": "totalAssets",
      "outputs": [
        {
          "internalType": "uint256",
          "name": "",
          "type": "uint256"
        }
      ],
      "stateMutability": "view",
      "type": "function"
    },
    {
      "inputs": [
        {
          "internalType": "address",
          "name": "_user",
          "type": "address"
        }
      ],
      "name": "totalAssetsOfUser",
      "outputs": [
        {
          "internalType": "uint256",
          "name": "",
          "type": "uint256"
        }
      ],
      "stateMutability": "view",
      "type": "function"
    },
    {
      "inputs": [],
      "name": "totalSupply",
      "outputs": [
        {
          "internalType": "uint256",
          "name": "",
          "type": "uint256"
        }
      ],
      "stateMutability": "view",
      "type": "function"
    },
    {
      "inputs": [
        {
          "internalType": "address",
          "name": "to",
          "type": "address"
        },
        {
          "internalType": "uint256",
          "name": "amount",
          "type": "uint256"
        }
      ],
      "name": "transfer",
      "outputs": [
        {
          "internalType": "bool",
          "name": "",
          "type": "bool"
        }
      ],
      "stateMutability": "nonpayable",
      "type": "function"
    },
    {
      "inputs": [
        {
          "internalType": "address",
          "name": "from",
          "type": "address"
        },
        {
          "internalType": "address",
          "name": "to",
          "type": "address"
        },
        {
          "internalType": "uint256",
          "name": "amount",
          "type": "uint256"
        }
      ],
      "name": "transferFrom",
      "outputs": [
        {
          "internalType": "bool",
          "name": "",
          "type": "bool"
        }
      ],
      "stateMutability": "nonpayable",
      "type": "function"
    },
    {
      "inputs": [
        {
          "internalType": "address",
          "name": "newOwner",
          "type": "address"
        }
      ],
      "name": "transferOwnership",
      "outputs": [],
      "stateMutability": "nonpayable",
      "type": "function"
    },
    {
      "inputs": [
        {
          "internalType": "uint256",
          "name": "assets",
          "type": "uint256"
        },
        {
          "internalType": "address",
          "name": "receiver",
          "type": "address"
        },
        {
          "internalType": "address",
          "name": "owner",
          "type": "address"
        }
      ],
      "name": "withdraw",
      "outputs": [
        {
          "internalType": "uint256",
          "name": "",
          "type": "uint256"
        }
      ],
      "stateMutability": "nonpayable",
      "type": "function"
    }
  ],
  "bytecode": "0x61010080604052346200042157620022da803803809162000021828562000426565b8339810160a082820312620004215781516001600160a01b0391908281169081900362000421576020848101516001600160401b0393908481116200042157816200006e91880162000466565b9060408701519085821162000421576200008a91880162000466565b93620000a760806200009f60608a01620004d1565b9801620004d1565b94825182811162000321576003918254916001958684811c9416801562000416575b8885101462000400578190601f94858111620003aa575b508890858311600114620003435760009262000337575b505060001982861b1c191690861b1783555b8051938411620003215760049586548681811c9116801562000316575b828210146200030157838111620002b6575b50809285116001146200024857509383949184926000956200023c575b50501b92600019911b1c19161790555b6200017081620004e6565b901562000233575b60a05260805260058054336001600160a01b031982168117909255604051948492909183167f8be0079c531659141344cd1fd0a4f28419497f9722a3daafe3b4186f6b6457e0600080a31660e0521660c052611d2b9081620005af823960805181818161085201528181610b9201528181610c7b015281816111f8015281816117510152611974015260a05181610bdb015260c0518181816106100152610e5b015260e05181818161087601528181610cbd0152610e9f0152f35b50601262000178565b01519350388062000155565b92919084601f1981168860005285600020956000905b898383106200029b575050501062000280575b50505050811b01905562000165565b01519060f884600019921b161c191690553880808062000271565b8587015189559097019694850194889350908101906200025e565b87600052816000208480880160051c820192848910620002f7575b0160051c019087905b828110620002ea57505062000138565b60008155018790620002da565b92508192620002d1565b602288634e487b7160e01b6000525260246000fd5b90607f169062000126565b634e487b7160e01b600052604160045260246000fd5b015190503880620000f7565b90889350601f19831691876000528a6000209260005b8c8282106200039357505084116200037a575b505050811b01835562000109565b015160001983881b60f8161c191690553880806200036c565b8385015186558c9790950194938401930162000359565b90915085600052886000208580850160051c8201928b8610620003f6575b918a91869594930160051c01915b828110620003e6575050620000e0565b600081558594508a9101620003d6565b92508192620003c8565b634e487b7160e01b600052602260045260246000fd5b93607f1693620000c9565b600080fd5b601f909101601f19168101906001600160401b038211908210176200032157604052565b6001600160401b0381116200032157601f01601f191660200190565b9080601f83011215620004215781519062000481826200044a565b9262000491604051948562000426565b82845260209160208483010111620004215760005b838110620004bd5750505060206000918301015290565b8181018301518582018401528201620004a6565b51906001600160a01b03821682036200042157565b6040805163313ce56760e01b60208201908152600482529293929181016001600160401b03811182821017620003215760405251600093849283929183906001600160a01b03165af13d15620005a5573d9062000543826200044a565b9162000553604051938462000426565b82523d84602084013e5b8062000598575b6200056f575b508190565b60208180518101031262000594576020015160ff81116200056a576001925060ff1690565b8280fd5b5060208151101562000564565b6060906200055d56fe6040608081526004908136101561001557600080fd5b600091823560e01c806301e1d1141461103d57806306fdde0314610f4757806307a2d13a14610b01578063095ea7b314610f1d5780630a28a47714610ece57806316f0115b14610e8a578063174ed54214610e4657806318160ddd14610e2757806323b872dd14610dea578063293311ab14610bff578063313ce56714610bc157806338d52e0f14610b7d5780633950935114610b2d578063402d267d14610b0657806345be27b6146105155780634cdad50614610b015780636e553f6514610ad957806370a08231146102e0578063715018a614610a7c5780638da5cb5b14610a535780639213b1241461080057806394bf804d146107af57806395d89b41146106a957838163a2fb342d146105f357508063a457c2d71461054d578063a8cc0aa414610515578063a9059cbb146104e4578063b3d7f6b9146104a9578063b460af94146103bf578063ba087652146103a3578063c63d75b61461037c578063c6e6f59214610289578063ce96cb7714610323578063d905777e146102e0578063dd62ed3e1461028e578063ef8b30f7146102895763f2fde38b146101ba57600080fd5b34610285576020366003190112610285576101d36110e5565b906101dc611840565b6001600160a01b03918216928315610233575050600554826bffffffffffffffffffffffff60a01b821617600555167f8be0079c531659141344cd1fd0a4f28419497f9722a3daafe3b4186f6b6457e0600080a380f35b906020608492519162461bcd60e51b8352820152602660248201527f4f776e61626c653a206e6577206f776e657220697320746865207a65726f206160448201526564647265737360d01b6064820152fd5b8280fd5b611146565b5050346102dc57806003193601126102dc576020916102ab6110e5565b826102b46110fb565b6001600160a01b03928316845260018652922091166000908152908352819020549051908152f35b5080fd5b5050346102dc5760203660031901126102dc5760209061031c6103016110e5565b6001600160a01b031660009081526020819052604090205490565b9051908152f35b5050346102dc5760203660031901126102dc576020916001600160a01b036103496110e5565b16815280835281902054600254806103645750905b51908152f35b610376916103706111dd565b90611bdc565b9061035e565b5050346102dc5760203660031901126102dc5760209061039a6110e5565b50516000198152f35b5050346102dc5760209061031c6103b936611111565b91611356565b5082346104a6576103cf36611111565b9390926103ef8560018060a01b0316600052600060205260406000205490565b600254928315929184841561049557505b85116104525750918391602097959361035e951591821561044a575b50501561042f5750809485925b33611898565b6104429061043b6111dd565b9083611a54565b948592610429565b91508961041c565b606490602089519162461bcd60e51b8352820152601f60248201527f455243343632363a207769746864726177206d6f7265207468616e206d6178006044820152fd5b6104a1916103706111dd565b610400565b80fd5b50346102855760203660031901126102855760025460209350903590806104d257509051908152f35b610376916104de6111dd565b90611a54565b5050346102dc57806003193601126102dc5760209061050e6105046110e5565b6024359033611589565b5160018152f35b5050346102dc5760203660031901126102dc5760209181906001600160a01b0361053d6110e5565b1681526006845220549051908152f35b5082346104a657826003193601126104a6576105676110e5565b91836024359233815260016020522060018060a01b0384166000526020528360002054908282106105a25760208561050e85850387336113ef565b608490602086519162461bcd60e51b8352820152602560248201527f45524332303a2064656372656173656420616c6c6f77616e63652062656c6f77604482015264207a65726f60d81b6064820152fd5b929050346106a557806003193601126106a55761060e6110e5565b7f00000000000000000000000000000000000000000000000000000000000000006001600160a01b031692833b156106a1578251630c04a8a160e41b81526001600160a01b0390921690820190815260243560208201529092849184919082908490829060400103925af190811561069857506106885750f35b61069190611191565b6104a65780f35b513d84823e3d90fd5b8480fd5b5050fd5b509190346102dc57816003193601126102dc5780519180938054916001908360011c92600185169485156107a5575b60209586861081146107925785895290811561076e5750600114610716575b6107128787610708828c03836111bb565b519182918261105a565b0390f35b81529295507f8a35acfbc15ff81a39ae7d344fd709f28e8600b4aa8c65c6b64bfe7fe36bd19b5b82841061075b575050508261071294610708928201019438806106f7565b805486850188015292860192810161073d565b60ff19168887015250505050151560051b83010192506107088261071238806106f7565b634e487b7160e01b845260228352602484fd5b93607f16936106d8565b509190346102dc57806003193601126102dc5761035e602093356107d16110fb565b600254909450806107e757508080945b336116f7565b6107f9906107f36111dd565b83611a54565b80946107e1565b509034610285576020806003193601126109415782359283159081610a17573386526006835261083d8487205461083733886112bd565b9061126f565b33875260068452848720556001600160a01b037f00000000000000000000000000000000000000000000000000000000000000008116937f0000000000000000000000000000000000000000000000000000000000000000909116928790156109a6575b1561094557845163095ea7b360e01b918101919091526001600160a01b03831660248201526044810186905286939291906108f3906108ed81606481015b03601f1981018352826111bb565b84611a94565b813b1561094157836084928651978895869463617ba03760e01b865285015260248401523060448401528160648401525af19081156106985750610935575080f35b61093e90611191565b80f35b8380fd5b845162461bcd60e51b815291820152603660248201527f5361666545524332303a20617070726f76652066726f6d206e6f6e2d7a65726f60448201527520746f206e6f6e2d7a65726f20616c6c6f77616e636560501b606482015260849150fd5b508451636eb1769f60e11b81523083820152602481018490528181604481885afa908115610a0d5788916109dc575b50156108a1565b90508181813d8311610a06575b6109f381836111bb565b81010312610a025751386109d5565b8780fd5b503d6109e9565b86513d8a823e3d90fd5b835162461bcd60e51b815290810183905260166024820152754465706f736974206c657373207468616e205a65726f60501b6044820152606490fd5b5050346102dc57816003193601126102dc5760055490516001600160a01b039091168152602090f35b83346104a657806003193601126104a657610a95611840565b600580546001600160a01b0319811690915581906001600160a01b03167f8be0079c531659141344cd1fd0a4f28419497f9722a3daafe3b4186f6b6457e08280a380f35b5091346104a657816003193601126104a6575061031c602092610afa6110fb565b90356112bd565b6110a3565b5050346102dc5760203660031901126102dc57602090610b246110e5565b5061031c611292565b5050346102dc57806003193601126102dc5761050e602092610b76610b506110e5565b338352600186528483206001600160a01b0382168452865291849020546024359061126f565b90336113ef565b5050346102dc57816003193601126102dc57517f00000000000000000000000000000000000000000000000000000000000000006001600160a01b03168152602090f35b5050346102dc57816003193601126102dc576020905160ff7f0000000000000000000000000000000000000000000000000000000000000000168152f35b509190346102dc57806003193601126102dc57823590610c1d6110fb565b918015610d9c576001600160a01b039083821615610d6a5733855260209360068552818487205410610d3357610c5590339083611356565b50338552600684528285208054918203918211610d2057558151631a4ca37b60e21b81527f00000000000000000000000000000000000000000000000000000000000000008216818701526000196024820152306044820152919083908390606490829088907f0000000000000000000000000000000000000000000000000000000000000000165af1908115610d175750610cef578280f35b813d8311610d10575b610d0281836111bb565b810103126104a65781808280f35b503d610cf8565b513d85823e3d90fd5b634e487b7160e01b865260118752602486fd5b835162461bcd60e51b815280880186905260116024820152704e6f7420656e6f7567682073686172657360781b6044820152606490fd5b825162461bcd60e51b8152602081880152600c60248201526b5a65726f204164647265737360a01b6044820152606490fd5b815162461bcd60e51b8152602081870152602260248201527f7769746864726177206d7573742062652067726561746572207468616e205a65604482015261726f60f01b6064820152608490fd5b5050346102dc5760603660031901126102dc5760209061050e610e0b6110e5565b610e136110fb565b60443591610e228333836114f1565b611589565b5050346102dc57816003193601126102dc576020906002549051908152f35b5050346102dc57816003193601126102dc57517f00000000000000000000000000000000000000000000000000000000000000006001600160a01b03168152602090f35b5050346102dc57816003193601126102dc57517f00000000000000000000000000000000000000000000000000000000000000006001600160a01b03168152602090f35b5034610285576020366003190112610285576002546020939135918215908115610f14575b5015610f0157509051908152f35b9061037691610f0e6111dd565b91611a54565b82159150610ef3565b5050346102dc57806003193601126102dc5760209061050e610f3d6110e5565b60243590336113ef565b50903461028557826003193601126102855780519183600354906001908260011c92600181168015611033575b60209586861082146110205750848852908115610ffe5750600114610fa5575b6107128686610708828b03836111bb565b929550600383527fc2575a0e9e593c00f959f8c92f12db2869c3395a3b0502d05e2516446f71f85b5b828410610feb575050508261071294610708928201019438610f94565b8054868501880152928601928101610fce565b60ff191687860152505050151560051b83010192506107088261071238610f94565b634e487b7160e01b845260229052602483fd5b93607f1693610f74565b5050346102dc57816003193601126102dc5760209061031c6111dd565b6020808252825181830181905290939260005b82811061108f57505060409293506000838284010152601f8019910116010190565b81810186015184820160400152850161106d565b346110e05760203660031901126110e057602060043560025480156000146110cf57505b604051908152f35b6110db916103706111dd565b6110c7565b600080fd5b600435906001600160a01b03821682036110e057565b602435906001600160a01b03821682036110e057565b60609060031901126110e057600435906001600160a01b039060243582811681036110e0579160443590811681036110e05790565b346110e05760203660031901126110e057602060043560025481158015611189575b156111765750604051908152f35b906110db916111836111dd565b91611bdc565b508015611168565b67ffffffffffffffff81116111a557604052565b634e487b7160e01b600052604160045260246000fd5b90601f8019910116810190811067ffffffffffffffff8211176111a557604052565b6040516370a0823160e01b81523060048201526020816024817f00000000000000000000000000000000000000000000000000000000000000006001600160a01b03165afa90811561126357600091611234575090565b90506020813d60201161125b575b8161124f602093836111bb565b810103126110e0575190565b3d9150611242565b6040513d6000823e3d90fd5b9190820180921161127c57565b634e487b7160e01b600052601160045260246000fd5b61129a6111dd565b158015906112b3575b156112ae5760001990565b600090565b50600254156112a3565b906112c6611292565b8211611311576112eb9060025483158015611309575b156112ee5750828391336116f7565b90565b611301906112fa6111dd565b9085611bdc565b9283916107e1565b5080156112dc565b60405162461bcd60e51b815260206004820152601e60248201527f455243343632363a206465706f736974206d6f7265207468616e206d617800006044820152606490fd5b6001600160a01b03831660009081526020819052604090205481116113aa576112eb91600254801560001461139057508193849133611898565b6113a29061139c6111dd565b84611bdc565b938491610429565b60405162461bcd60e51b815260206004820152601d60248201527f455243343632363a2072656465656d206d6f7265207468616e206d61780000006044820152606490fd5b6001600160a01b039081169182156114a057169182156114505760207f8c5be1e5ebec7d5bd14f71427d1e84f3dd0314c0f7b2291e5b200ac8c7c3b925918360005260018252604060002085600052825280604060002055604051908152a3565b60405162461bcd60e51b815260206004820152602260248201527f45524332303a20617070726f766520746f20746865207a65726f206164647265604482015261737360f01b6064820152608490fd5b60405162461bcd60e51b8152602060048201526024808201527f45524332303a20617070726f76652066726f6d20746865207a65726f206164646044820152637265737360e01b6064820152608490fd5b9060018060a01b0380831660005260016020526040600020908216600052602052604060002054926000198403611529575b50505050565b8084106115445761153b9303916113ef565b38808080611523565b60405162461bcd60e51b815260206004820152601d60248201527f45524332303a20696e73756666696369656e7420616c6c6f77616e63650000006044820152606490fd5b6001600160a01b039081169182156116a45716918215611653576000828152806020526040812054918083106115ff57604082827fddf252ad1be2c89b69c2b068fc378daa952ba7f163c4a11628f55a4df523b3ef958760209652828652038282205586815220818154019055604051908152a3565b60405162461bcd60e51b815260206004820152602660248201527f45524332303a207472616e7366657220616d6f756e7420657863656564732062604482015265616c616e636560d01b6064820152608490fd5b60405162461bcd60e51b815260206004820152602360248201527f45524332303a207472616e7366657220746f20746865207a65726f206164647260448201526265737360e81b6064820152608490fd5b60405162461bcd60e51b815260206004820152602560248201527f45524332303a207472616e736665722066726f6d20746865207a65726f206164604482015264647265737360d81b6064820152608490fd5b604080516323b872dd60e01b60208201526001600160a01b0392831660248201819052306044830152606480830187905282529491939192919060a081019067ffffffffffffffff8211818310176111a5576117759186527f0000000000000000000000000000000000000000000000000000000000000000611a94565b169384156117fc5790816117ad7fdcbc1c05240f31ff3ad067ef1ee35ce4997762752e3a095284754544f4c709d7949360025461126f565b600255856000526000602052826000208181540190558560007fddf252ad1be2c89b69c2b068fc378daa952ba7f163c4a11628f55a4df523b3ef60208651858152a382519182526020820152a3565b825162461bcd60e51b815260206004820152601f60248201527f45524332303a206d696e7420746f20746865207a65726f2061646472657373006044820152606490fd5b6005546001600160a01b0316330361185457565b606460405162461bcd60e51b815260206004820152602060248201527f4f776e61626c653a2063616c6c6572206973206e6f7420746865206f776e65726044820152fd5b9094936001600160a01b038084169493818416938390878603611a43575b50505084156119f457600096858852602092888452604093848a205499828b106119a55782899a9b7ffbde797d201c681b91056529119e0b02407c7bb96a4a2c75c01fc9667232c8db98999a835282845203868220558260025403600255897fddf252ad1be2c89b69c2b068fc378daa952ba7f163c4a11628f55a4df523b3ef838851868152a3845163a9059cbb60e01b828201526001600160a01b0384166024820152604481018990526119989061197281606481016108df565b7f0000000000000000000000000000000000000000000000000000000000000000611a94565b84519788528701521693a4565b855162461bcd60e51b815260048101839052602260248201527f45524332303a206275726e20616d6f756e7420657863656564732062616c616e604482015261636560f01b6064820152608490fd5b60405162461bcd60e51b815260206004820152602160248201527f45524332303a206275726e2066726f6d20746865207a65726f206164647265736044820152607360f81b6064820152608490fd5b611a4c926114f1565b3882816118b6565b9190611a61828285611bdc565b928215611a7e5709611a705790565b6001810180911161127c5790565b634e487b7160e01b600052601260045260246000fd5b60018060a01b0316906040516040810167ffffffffffffffff90828110828211176111a5576040526020938483527f5361666545524332303a206c6f772d6c6576656c2063616c6c206661696c6564858401526000808587829751910182855af1903d15611bcd573d928311611bb95790611b2f93929160405192611b2288601f19601f84011601856111bb565b83523d868885013e611c60565b805180611b3c5750505050565b818491810103126102dc57820151908115918215036104a65750611b6257808080611523565b6084906040519062461bcd60e51b82526004820152602a60248201527f5361666545524332303a204552433230206f7065726174696f6e20646964206e6044820152691bdd081cdd58d8d9595960b21b6064820152fd5b634e487b7160e01b85526041600452602485fd5b90611b2f939250606091611c60565b916000198284099282810292838086109503948086039514611c5257848311156110e0578291096001821901821680920460028082600302188083028203028083028203028083028203028083028203028083028203028092029003029360018380600003040190848311900302920304170290565b505080925015611a7e570490565b91929015611cc25750815115611c74575090565b3b15611c7d5790565b60405162461bcd60e51b815260206004820152601d60248201527f416464726573733a2063616c6c20746f206e6f6e2d636f6e74726163740000006044820152606490fd5b825190915015611cd55750805190602001fd5b60405162461bcd60e51b8152908190611cf1906004830161105a565b0390fdfea264697066735822122036fc09129e6eefe14382f2d289d2ab8d8a1904d1f384fc25ad50d380bc2dc44164736f6c63430008170033",
  "linkReferences": {},
  "deployedLinkReferences": {}
}