{
  "address": "0x321D1F5Ffd61A3AD2CEd1bCd746908f96D6FbBEd",
  "abi": [
    {
      "inputs": [
        {
          "internalType": "address",
          "name": "_asset",
          "type": "address"
        },
        {
          "internalType": "address",
          "name": "_pool",
          "type": "address"
        },
        {
          "internalType": "address",
          "name": "_ghoToken",
          "type": "address"
        }
      ],
      "stateMutability": "nonpayable",
      "type": "constructor"
    },
    {
      "inputs": [],
      "name": "asset",
      "outputs": [
        {
          "internalType": "contract IERC20",
          "name": "",
          "type": "address"
        }
      ],
      "stateMutability": "view",
      "type": "function"
    },
    {
      "inputs": [
        {
          "internalType": "address",
          "name": "",
          "type": "address"
        }
      ],
      "name": "balanceOf",
      "outputs": [
        {
          "internalType": "uint256",
          "name": "",
          "type": "uint256"
        }
      ],
      "stateMutability": "view",
      "type": "function"
    },
    {
      "inputs": [
        {
          "internalType": "uint256",
          "name": "_amount",
          "type": "uint256"
        }
      ],
      "name": "deposit",
      "outputs": [],
      "stateMutability": "nonpayable",
      "type": "function"
    },
    {
      "inputs": [],
      "name": "ghoToken",
      "outputs": [
        {
          "internalType": "contract IERC20",
          "name": "",
          "type": "address"
        }
      ],
      "stateMutability": "view",
      "type": "function"
    },
    {
      "inputs": [],
      "name": "pool",
      "outputs": [
        {
          "internalType": "contract IPool",
          "name": "",
          "type": "address"
        }
      ],
      "stateMutability": "view",
      "type": "function"
    },
    {
      "inputs": [],
      "name": "totalSupply",
      "outputs": [
        {
          "internalType": "uint256",
          "name": "",
          "type": "uint256"
        }
      ],
      "stateMutability": "view",
      "type": "function"
    },
    {
      "inputs": [
        {
          "internalType": "uint256",
          "name": "_shares",
          "type": "uint256"
        }
      ],
      "name": "withdraw",
      "outputs": [],
      "stateMutability": "nonpayable",
      "type": "function"
    }
  ],
  "transactionHash": "0xc140be3c1c2101af981811f548cc5e063e1d94922a12e7d7d7b0380ab6f08c6f",
  "args": [
    "0xFF34B3d4Aee8ddCd6F9AFFFB6Fe49bD371b8a357",
    "0x6Ae43d3271ff6888e7Fc43Fd7321a503ff738951",
    "0xc4bF5CbDaBE595361438F8c6a187bDc330539c60"
  ],
  "numDeployments": 1,
  "solcInputHash": "13c995af3660edf36b1c7a218d85e02b",
  "bytecode": "0x60e0346100b557601f61061238819003918201601f19168301916001600160401b038311848410176100ba578084926060946040528339810103126100b557610047816100d0565b61005f6040610058602085016100d0565b93016100d0565b6001600160a01b0391821660805291811660c0521660a05260405161052d90816100e5823960805181818160db0152818161016d0152818161029501526102eb015260a0518161024d015260c051816104100152f35b600080fd5b634e487b7160e01b600052604160045260246000fd5b51906001600160a01b03821682036100b55756fe6080604081815260048036101561001557600080fd5b600092833560e01c90816316f0115b146103fc5750806318160ddd146103df5780632e1a7d4d146102c457806338d52e0f146102805780635996db911461023857806370a08231146101ff5763b6b55f251461007057600080fd5b346101fb57602091826003193601126101f75781358454801560001461014b5761009b8280926104ea565b8655338652600185526100b28387209182546104ea565b905581516323b872dd60e01b8152339381019390935230602484015260448301528282606481877f00000000000000000000000000000000000000000000000000000000000000006001600160a01b03165af19081156101425750610115578280f35b8161013492903d1061013b575b61012c818361043f565b8101906104c0565b5038808280f35b503d610122565b513d85823e3d90fd5b6101558183610477565b83516370a0823160e01b8152308682015286816024817f00000000000000000000000000000000000000000000000000000000000000006001600160a01b03165afa9081156101ed5788916101ba575b506101b39061009b926104a0565b80926104ea565b90508681813d83116101e6575b6101d1818361043f565b810103126101e2575161009b6101a5565b8780fd5b503d6101c7565b85513d8a823e3d90fd5b8380fd5b8280fd5b50346101fb5760203660031901126101fb57356001600160a01b038116908190036101fb57828291602094526001845220549051908152f35b50503461027c578160031936011261027c57517f00000000000000000000000000000000000000000000000000000000000000006001600160a01b03168152602090f35b5080fd5b50503461027c578160031936011261027c57517f00000000000000000000000000000000000000000000000000000000000000006001600160a01b03168152602090f35b50346101fb57602091826003193601126101f75780516370a0823160e01b815230818401527f00000000000000000000000000000000000000000000000000000000000000006001600160a01b0316928035918581602481885afa9081156103d5579086939291889161039e575b509061034060449284610477565b92610357816103518b5480976104a0565b956104dd565b89553389526001855261036e868a209182546104dd565b9055878551968794859363a9059cbb60e01b8552339085015260248401525af19081156101425750610115578280f35b8481939592503d83116103ce575b6103b6818361043f565b810103126103ca5751859290610340610332565b8680fd5b503d6103ac565b84513d89823e3d90fd5b50503461027c578160031936011261027c57602091549051908152f35b84903461027c578160031936011261027c577f00000000000000000000000000000000000000000000000000000000000000006001600160a01b03168152602090f35b90601f8019910116810190811067ffffffffffffffff82111761046157604052565b634e487b7160e01b600052604160045260246000fd5b8181029291811591840414171561048a57565b634e487b7160e01b600052601160045260246000fd5b81156104aa570490565b634e487b7160e01b600052601260045260246000fd5b908160209103126104d8575180151581036104d85790565b600080fd5b9190820391821161048a57565b9190820180921161048a5756fea2646970667358221220352ed6c870da48155ab6e8f4c153ab3e305145950825a726c63ba67dc818a69164736f6c63430008170033",
  "devdoc": {
    "kind": "dev",
    "methods": {},
    "version": 1
  },
  "userdoc": {
    "kind": "user",
    "methods": {},
    "version": 1
  },
  "storageLayout": {
    "storage": [
      {
        "astId": 1293,
        "contract": "contracts/CirqlProtocol.sol:CirqlProtocol",
        "label": "totalSupply",
        "offset": 0,
        "slot": "0",
        "type": "t_uint256"
      },
      {
        "astId": 1297,
        "contract": "contracts/CirqlProtocol.sol:CirqlProtocol",
        "label": "balanceOf",
        "offset": 0,
        "slot": "1",
        "type": "t_mapping(t_address,t_uint256)"
      }
    ],
    "types": {
      "t_address": {
        "encoding": "inplace",
        "label": "address",
        "numberOfBytes": "20"
      },
      "t_mapping(t_address,t_uint256)": {
        "encoding": "mapping",
        "key": "t_address",
        "label": "mapping(address => uint256)",
        "numberOfBytes": "32",
        "value": "t_uint256"
      },
      "t_uint256": {
        "encoding": "inplace",
        "label": "uint256",
        "numberOfBytes": "32"
      }
    }
  }
}