{
  "contracts/CirqlProtocol.sol": {
    "CirqlProtocol": {
      "abi": [
        {
          "inputs": [
            {
              "internalType": "contract ERC20",
              "name": "_asset",
              "type": "address"
            },
            {
              "internalType": "string",
              "name": "_name",
              "type": "string"
            },
            {
              "internalType": "string",
              "name": "_symbol",
              "type": "string"
            },
            {
              "internalType": "address",
              "name": "_pool",
              "type": "address"
            },
            {
              "internalType": "address",
              "name": "_ghoDebtToken",
              "type": "address"
            }
          ],
          "stateMutability": "nonpayable",
          "type": "constructor"
        },
        {
          "anonymous": false,
          "inputs": [
            {
              "indexed": true,
              "internalType": "address",
              "name": "owner",
              "type": "address"
            },
            {
              "indexed": true,
              "internalType": "address",
              "name": "spender",
              "type": "address"
            },
            {
              "indexed": false,
              "internalType": "uint256",
              "name": "value",
              "type": "uint256"
            }
          ],
          "name": "Approval",
          "type": "event"
        },
        {
          "anonymous": false,
          "inputs": [
            {
              "indexed": true,
              "internalType": "address",
              "name": "sender",
              "type": "address"
            },
            {
              "indexed": true,
              "internalType": "address",
              "name": "owner",
              "type": "address"
            },
            {
              "indexed": false,
              "internalType": "uint256",
              "name": "assets",
              "type": "uint256"
            },
            {
              "indexed": false,
              "internalType": "uint256",
              "name": "shares",
              "type": "uint256"
            }
          ],
          "name": "Deposit",
          "type": "event"
        },
        {
          "anonymous": false,
          "inputs": [
            {
              "indexed": true,
              "internalType": "address",
              "name": "previousOwner",
              "type": "address"
            },
            {
              "indexed": true,
              "internalType": "address",
              "name": "newOwner",
              "type": "address"
            }
          ],
          "name": "OwnershipTransferred",
          "type": "event"
        },
        {
          "anonymous": false,
          "inputs": [
            {
              "indexed": true,
              "internalType": "address",
              "name": "from",
              "type": "address"
            },
            {
              "indexed": true,
              "internalType": "address",
              "name": "to",
              "type": "address"
            },
            {
              "indexed": false,
              "internalType": "uint256",
              "name": "value",
              "type": "uint256"
            }
          ],
          "name": "Transfer",
          "type": "event"
        },
        {
          "anonymous": false,
          "inputs": [
            {
              "indexed": true,
              "internalType": "address",
              "name": "sender",
              "type": "address"
            },
            {
              "indexed": true,
              "internalType": "address",
              "name": "receiver",
              "type": "address"
            },
            {
              "indexed": true,
              "internalType": "address",
              "name": "owner",
              "type": "address"
            },
            {
              "indexed": false,
              "internalType": "uint256",
              "name": "assets",
              "type": "uint256"
            },
            {
              "indexed": false,
              "internalType": "uint256",
              "name": "shares",
              "type": "uint256"
            }
          ],
          "name": "Withdraw",
          "type": "event"
        },
        {
          "inputs": [
            {
              "internalType": "uint256",
              "name": "_assets",
              "type": "uint256"
            }
          ],
          "name": "_deposit",
          "outputs": [],
          "stateMutability": "nonpayable",
          "type": "function"
        },
        {
          "inputs": [
            {
              "internalType": "uint256",
              "name": "_shares",
              "type": "uint256"
            },
            {
              "internalType": "address",
              "name": "_receiver",
              "type": "address"
            }
          ],
          "name": "_withdraw",
          "outputs": [],
          "stateMutability": "nonpayable",
          "type": "function"
        },
        {
          "inputs": [
            {
              "internalType": "address",
              "name": "owner",
              "type": "address"
            },
            {
              "internalType": "address",
              "name": "spender",
              "type": "address"
            }
          ],
          "name": "allowance",
          "outputs": [
            {
              "internalType": "uint256",
              "name": "",
              "type": "uint256"
            }
          ],
          "stateMutability": "view",
          "type": "function"
        },
        {
          "inputs": [
            {
              "internalType": "address",
              "name": "spender",
              "type": "address"
            },
            {
              "internalType": "uint256",
              "name": "amount",
              "type": "uint256"
            }
          ],
          "name": "approve",
          "outputs": [
            {
              "internalType": "bool",
              "name": "",
              "type": "bool"
            }
          ],
          "stateMutability": "nonpayable",
          "type": "function"
        },
        {
          "inputs": [],
          "name": "asset",
          "outputs": [
            {
              "internalType": "address",
              "name": "",
              "type": "address"
            }
          ],
          "stateMutability": "view",
          "type": "function"
        },
        {
          "inputs": [
            {
              "internalType": "address",
              "name": "account",
              "type": "address"
            }
          ],
          "name": "balanceOf",
          "outputs": [
            {
              "internalType": "uint256",
              "name": "",
              "type": "uint256"
            }
          ],
          "stateMutability": "view",
          "type": "function"
        },
        {
          "inputs": [
            {
              "internalType": "uint256",
              "name": "shares",
              "type": "uint256"
            }
          ],
          "name": "convertToAssets",
          "outputs": [
            {
              "internalType": "uint256",
              "name": "assets",
              "type": "uint256"
            }
          ],
          "stateMutability": "view",
          "type": "function"
        },
        {
          "inputs": [
            {
              "internalType": "uint256",
              "name": "assets",
              "type": "uint256"
            }
          ],
          "name": "convertToShares",
          "outputs": [
            {
              "internalType": "uint256",
              "name": "shares",
              "type": "uint256"
            }
          ],
          "stateMutability": "view",
          "type": "function"
        },
        {
          "inputs": [],
          "name": "decimals",
          "outputs": [
            {
              "internalType": "uint8",
              "name": "",
              "type": "uint8"
            }
          ],
          "stateMutability": "view",
          "type": "function"
        },
        {
          "inputs": [
            {
              "internalType": "address",
              "name": "spender",
              "type": "address"
            },
            {
              "internalType": "uint256",
              "name": "subtractedValue",
              "type": "uint256"
            }
          ],
          "name": "decreaseAllowance",
          "outputs": [
            {
              "internalType": "bool",
              "name": "",
              "type": "bool"
            }
          ],
          "stateMutability": "nonpayable",
          "type": "function"
        },
        {
          "inputs": [
            {
              "internalType": "uint256",
              "name": "assets",
              "type": "uint256"
            },
            {
              "internalType": "address",
              "name": "receiver",
              "type": "address"
            }
          ],
          "name": "deposit",
          "outputs": [
            {
              "internalType": "uint256",
              "name": "",
              "type": "uint256"
            }
          ],
          "stateMutability": "nonpayable",
          "type": "function"
        },
        {
          "inputs": [],
          "name": "ghoDebtToken",
          "outputs": [
            {
              "internalType": "contract ICreditDelegationToken",
              "name": "",
              "type": "address"
            }
          ],
          "stateMutability": "view",
          "type": "function"
        },
        {
          "inputs": [
            {
              "internalType": "address",
              "name": "spender",
              "type": "address"
            },
            {
              "internalType": "uint256",
              "name": "addedValue",
              "type": "uint256"
            }
          ],
          "name": "increaseAllowance",
          "outputs": [
            {
              "internalType": "bool",
              "name": "",
              "type": "bool"
            }
          ],
          "stateMutability": "nonpayable",
          "type": "function"
        },
        {
          "inputs": [
            {
              "internalType": "address",
              "name": "_borrower",
              "type": "address"
            },
            {
              "internalType": "uint256",
              "name": "amountInGho",
              "type": "uint256"
            }
          ],
          "name": "lend",
          "outputs": [],
          "stateMutability": "nonpayable",
          "type": "function"
        },
        {
          "inputs": [
            {
              "internalType": "address",
              "name": "",
              "type": "address"
            }
          ],
          "name": "maxDeposit",
          "outputs": [
            {
              "internalType": "uint256",
              "name": "",
              "type": "uint256"
            }
          ],
          "stateMutability": "view",
          "type": "function"
        },
        {
          "inputs": [
            {
              "internalType": "address",
              "name": "",
              "type": "address"
            }
          ],
          "name": "maxMint",
          "outputs": [
            {
              "internalType": "uint256",
              "name": "",
              "type": "uint256"
            }
          ],
          "stateMutability": "view",
          "type": "function"
        },
        {
          "inputs": [
            {
              "internalType": "address",
              "name": "owner",
              "type": "address"
            }
          ],
          "name": "maxRedeem",
          "outputs": [
            {
              "internalType": "uint256",
              "name": "",
              "type": "uint256"
            }
          ],
          "stateMutability": "view",
          "type": "function"
        },
        {
          "inputs": [
            {
              "internalType": "address",
              "name": "owner",
              "type": "address"
            }
          ],
          "name": "maxWithdraw",
          "outputs": [
            {
              "internalType": "uint256",
              "name": "",
              "type": "uint256"
            }
          ],
          "stateMutability": "view",
          "type": "function"
        },
        {
          "inputs": [
            {
              "internalType": "uint256",
              "name": "shares",
              "type": "uint256"
            },
            {
              "internalType": "address",
              "name": "receiver",
              "type": "address"
            }
          ],
          "name": "mint",
          "outputs": [
            {
              "internalType": "uint256",
              "name": "",
              "type": "uint256"
            }
          ],
          "stateMutability": "nonpayable",
          "type": "function"
        },
        {
          "inputs": [],
          "name": "name",
          "outputs": [
            {
              "internalType": "string",
              "name": "",
              "type": "string"
            }
          ],
          "stateMutability": "view",
          "type": "function"
        },
        {
          "inputs": [],
          "name": "owner",
          "outputs": [
            {
              "internalType": "address",
              "name": "",
              "type": "address"
            }
          ],
          "stateMutability": "view",
          "type": "function"
        },
        {
          "inputs": [],
          "name": "pool",
          "outputs": [
            {
              "internalType": "contract IPool",
              "name": "",
              "type": "address"
            }
          ],
          "stateMutability": "view",
          "type": "function"
        },
        {
          "inputs": [
            {
              "internalType": "uint256",
              "name": "assets",
              "type": "uint256"
            }
          ],
          "name": "previewDeposit",
          "outputs": [
            {
              "internalType": "uint256",
              "name": "",
              "type": "uint256"
            }
          ],
          "stateMutability": "view",
          "type": "function"
        },
        {
          "inputs": [
            {
              "internalType": "uint256",
              "name": "shares",
              "type": "uint256"
            }
          ],
          "name": "previewMint",
          "outputs": [
            {
              "internalType": "uint256",
              "name": "",
              "type": "uint256"
            }
          ],
          "stateMutability": "view",
          "type": "function"
        },
        {
          "inputs": [
            {
              "internalType": "uint256",
              "name": "shares",
              "type": "uint256"
            }
          ],
          "name": "previewRedeem",
          "outputs": [
            {
              "internalType": "uint256",
              "name": "",
              "type": "uint256"
            }
          ],
          "stateMutability": "view",
          "type": "function"
        },
        {
          "inputs": [
            {
              "internalType": "uint256",
              "name": "assets",
              "type": "uint256"
            }
          ],
          "name": "previewWithdraw",
          "outputs": [
            {
              "internalType": "uint256",
              "name": "",
              "type": "uint256"
            }
          ],
          "stateMutability": "view",
          "type": "function"
        },
        {
          "inputs": [
            {
              "internalType": "uint256",
              "name": "shares",
              "type": "uint256"
            },
            {
              "internalType": "address",
              "name": "receiver",
              "type": "address"
            },
            {
              "internalType": "address",
              "name": "owner",
              "type": "address"
            }
          ],
          "name": "redeem",
          "outputs": [
            {
              "internalType": "uint256",
              "name": "",
              "type": "uint256"
            }
          ],
          "stateMutability": "nonpayable",
          "type": "function"
        },
        {
          "inputs": [],
          "name": "renounceOwnership",
          "outputs": [],
          "stateMutability": "nonpayable",
          "type": "function"
        },
        {
          "inputs": [
            {
              "internalType": "address",
              "name": "",
              "type": "address"
            }
          ],
          "name": "shareHolders",
          "outputs": [
            {
              "internalType": "uint256",
              "name": "",
              "type": "uint256"
            }
          ],
          "stateMutability": "view",
          "type": "function"
        },
        {
          "inputs": [],
          "name": "symbol",
          "outputs": [
            {
              "internalType": "string",
              "name": "",
              "type": "string"
            }
          ],
          "stateMutability": "view",
          "type": "function"
        },
        {
          "inputs": [],
          "name": "totalAssets",
          "outputs": [
            {
              "internalType": "uint256",
              "name": "",
              "type": "uint256"
            }
          ],
          "stateMutability": "view",
          "type": "function"
        },
        {
          "inputs": [
            {
              "internalType": "address",
              "name": "_user",
              "type": "address"
            }
          ],
          "name": "totalAssetsOfUser",
          "outputs": [
            {
              "internalType": "uint256",
              "name": "",
              "type": "uint256"
            }
          ],
          "stateMutability": "view",
          "type": "function"
        },
        {
          "inputs": [],
          "name": "totalSupply",
          "outputs": [
            {
              "internalType": "uint256",
              "name": "",
              "type": "uint256"
            }
          ],
          "stateMutability": "view",
          "type": "function"
        },
        {
          "inputs": [
            {
              "internalType": "address",
              "name": "to",
              "type": "address"
            },
            {
              "internalType": "uint256",
              "name": "amount",
              "type": "uint256"
            }
          ],
          "name": "transfer",
          "outputs": [
            {
              "internalType": "bool",
              "name": "",
              "type": "bool"
            }
          ],
          "stateMutability": "nonpayable",
          "type": "function"
        },
        {
          "inputs": [
            {
              "internalType": "address",
              "name": "from",
              "type": "address"
            },
            {
              "internalType": "address",
              "name": "to",
              "type": "address"
            },
            {
              "internalType": "uint256",
              "name": "amount",
              "type": "uint256"
            }
          ],
          "name": "transferFrom",
          "outputs": [
            {
              "internalType": "bool",
              "name": "",
              "type": "bool"
            }
          ],
          "stateMutability": "nonpayable",
          "type": "function"
        },
        {
          "inputs": [
            {
              "internalType": "address",
              "name": "newOwner",
              "type": "address"
            }
          ],
          "name": "transferOwnership",
          "outputs": [],
          "stateMutability": "nonpayable",
          "type": "function"
        },
        {
          "inputs": [
            {
              "internalType": "uint256",
              "name": "assets",
              "type": "uint256"
            },
            {
              "internalType": "address",
              "name": "receiver",
              "type": "address"
            },
            {
              "internalType": "address",
              "name": "owner",
              "type": "address"
            }
          ],
          "name": "withdraw",
          "outputs": [
            {
              "internalType": "uint256",
              "name": "",
              "type": "uint256"
            }
          ],
          "stateMutability": "nonpayable",
          "type": "function"
        }
      ],
      "devdoc": {
        "events": {
          "Approval(address,address,uint256)": {
            "details": "Emitted when the allowance of a `spender` for an `owner` is set by a call to {approve}. `value` is the new allowance."
          },
          "Transfer(address,address,uint256)": {
            "details": "Emitted when `value` tokens are moved from one account (`from`) to another (`to`). Note that `value` may be zero."
          }
        },
        "kind": "dev",
        "methods": {
          "_deposit(uint256)": {
            "params": {
              "_assets": "amount of the asset token"
            }
          },
          "_withdraw(uint256,address)": {
            "params": {
              "_receiver": "address of the user who will receive the assets",
              "_shares": "amount of shares the user wants to convert"
            }
          },
          "allowance(address,address)": {
            "details": "See {IERC20-allowance}."
          },
          "approve(address,uint256)": {
            "details": "See {IERC20-approve}. NOTE: If `amount` is the maximum `uint256`, the allowance is not updated on `transferFrom`. This is semantically equivalent to an infinite approval. Requirements: - `spender` cannot be the zero address."
          },
          "asset()": {
            "details": "See {IERC4626-asset}. "
          },
          "balanceOf(address)": {
            "details": "See {IERC20-balanceOf}."
          },
          "convertToAssets(uint256)": {
            "details": "See {IERC4626-convertToAssets}. "
          },
          "convertToShares(uint256)": {
            "details": "See {IERC4626-convertToShares}. "
          },
          "decimals()": {
            "details": "Decimals are read from the underlying asset in the constructor and cached. If this fails (e.g., the asset has not been created yet), the cached value is set to a default obtained by `super.decimals()` (which depends on inheritance but is most likely 18). Override this function in order to set a guaranteed hardcoded value. See {IERC20Metadata-decimals}."
          },
          "decreaseAllowance(address,uint256)": {
            "details": "Atomically decreases the allowance granted to `spender` by the caller. This is an alternative to {approve} that can be used as a mitigation for problems described in {IERC20-approve}. Emits an {Approval} event indicating the updated allowance. Requirements: - `spender` cannot be the zero address. - `spender` must have allowance for the caller of at least `subtractedValue`."
          },
          "deposit(uint256,address)": {
            "details": "See {IERC4626-deposit}. "
          },
          "increaseAllowance(address,uint256)": {
            "details": "Atomically increases the allowance granted to `spender` by the caller. This is an alternative to {approve} that can be used as a mitigation for problems described in {IERC20-approve}. Emits an {Approval} event indicating the updated allowance. Requirements: - `spender` cannot be the zero address."
          },
          "maxDeposit(address)": {
            "details": "See {IERC4626-maxDeposit}. "
          },
          "maxMint(address)": {
            "details": "See {IERC4626-maxMint}. "
          },
          "maxRedeem(address)": {
            "details": "See {IERC4626-maxRedeem}. "
          },
          "maxWithdraw(address)": {
            "details": "See {IERC4626-maxWithdraw}. "
          },
          "mint(uint256,address)": {
            "details": "See {IERC4626-mint}. "
          },
          "name()": {
            "details": "Returns the name of the token."
          },
          "owner()": {
            "details": "Returns the address of the current owner."
          },
          "previewDeposit(uint256)": {
            "details": "See {IERC4626-previewDeposit}. "
          },
          "previewMint(uint256)": {
            "details": "See {IERC4626-previewMint}. "
          },
          "previewRedeem(uint256)": {
            "details": "See {IERC4626-previewRedeem}. "
          },
          "previewWithdraw(uint256)": {
            "details": "See {IERC4626-previewWithdraw}. "
          },
          "redeem(uint256,address,address)": {
            "details": "See {IERC4626-redeem}. "
          },
          "renounceOwnership()": {
            "details": "Leaves the contract without owner. It will not be possible to call `onlyOwner` functions anymore. Can only be called by the current owner. NOTE: Renouncing ownership will leave the contract without an owner, thereby removing any functionality that is only available to the owner."
          },
          "symbol()": {
            "details": "Returns the symbol of the token, usually a shorter version of the name."
          },
          "totalAssets()": {
            "details": "See {IERC4626-totalAssets}. "
          },
          "totalAssetsOfUser(address)": {
            "params": {
              "_user": "Address of the user"
            }
          },
          "totalSupply()": {
            "details": "See {IERC20-totalSupply}."
          },
          "transfer(address,uint256)": {
            "details": "See {IERC20-transfer}. Requirements: - `to` cannot be the zero address. - the caller must have a balance of at least `amount`."
          },
          "transferFrom(address,address,uint256)": {
            "details": "See {IERC20-transferFrom}. Emits an {Approval} event indicating the updated allowance. This is not required by the EIP. See the note at the beginning of {ERC20}. NOTE: Does not update the allowance if the current allowance is the maximum `uint256`. Requirements: - `from` and `to` cannot be the zero address. - `from` must have a balance of at least `amount`. - the caller must have allowance for ``from``'s tokens of at least `amount`."
          },
          "transferOwnership(address)": {
            "details": "Transfers ownership of the contract to a new account (`newOwner`). Can only be called by the current owner."
          },
          "withdraw(uint256,address,address)": {
            "details": "See {IERC4626-withdraw}. "
          }
        },
        "version": 1
      },
      "evm": {
        "bytecode": {
          "linkReferences": {},
          "object": "61010080604052346200042157620022da803803809162000021828562000426565b8339810160a082820312620004215781516001600160a01b0391908281169081900362000421576020848101516001600160401b0393908481116200042157816200006e91880162000466565b9060408701519085821162000421576200008a91880162000466565b93620000a760806200009f60608a01620004d1565b9801620004d1565b94825182811162000321576003918254916001958684811c9416801562000416575b8885101462000400578190601f94858111620003aa575b508890858311600114620003435760009262000337575b505060001982861b1c191690861b1783555b8051938411620003215760049586548681811c9116801562000316575b828210146200030157838111620002b6575b50809285116001146200024857509383949184926000956200023c575b50501b92600019911b1c19161790555b6200017081620004e6565b901562000233575b60a05260805260058054336001600160a01b031982168117909255604051948492909183167f8be0079c531659141344cd1fd0a4f28419497f9722a3daafe3b4186f6b6457e0600080a31660e0521660c052611d2b9081620005af823960805181818161085201528181610b9201528181610c7b015281816111f8015281816117510152611974015260a05181610bdb015260c0518181816106100152610e5b015260e05181818161087601528181610cbd0152610e9f0152f35b50601262000178565b01519350388062000155565b92919084601f1981168860005285600020956000905b898383106200029b575050501062000280575b50505050811b01905562000165565b01519060f884600019921b161c191690553880808062000271565b8587015189559097019694850194889350908101906200025e565b87600052816000208480880160051c820192848910620002f7575b0160051c019087905b828110620002ea57505062000138565b60008155018790620002da565b92508192620002d1565b602288634e487b7160e01b6000525260246000fd5b90607f169062000126565b634e487b7160e01b600052604160045260246000fd5b015190503880620000f7565b90889350601f19831691876000528a6000209260005b8c8282106200039357505084116200037a575b505050811b01835562000109565b015160001983881b60f8161c191690553880806200036c565b8385015186558c9790950194938401930162000359565b90915085600052886000208580850160051c8201928b8610620003f6575b918a91869594930160051c01915b828110620003e6575050620000e0565b600081558594508a9101620003d6565b92508192620003c8565b634e487b7160e01b600052602260045260246000fd5b93607f1693620000c9565b600080fd5b601f909101601f19168101906001600160401b038211908210176200032157604052565b6001600160401b0381116200032157601f01601f191660200190565b9080601f83011215620004215781519062000481826200044a565b9262000491604051948562000426565b82845260209160208483010111620004215760005b838110620004bd5750505060206000918301015290565b8181018301518582018401528201620004a6565b51906001600160a01b03821682036200042157565b6040805163313ce56760e01b60208201908152600482529293929181016001600160401b03811182821017620003215760405251600093849283929183906001600160a01b03165af13d15620005a5573d9062000543826200044a565b9162000553604051938462000426565b82523d84602084013e5b8062000598575b6200056f575b508190565b60208180518101031262000594576020015160ff81116200056a576001925060ff1690565b8280fd5b5060208151101562000564565b6060906200055d56fe6040608081526004908136101561001557600080fd5b600091823560e01c806301e1d1141461103d57806306fdde0314610f4757806307a2d13a14610b01578063095ea7b314610f1d5780630a28a47714610ece57806316f0115b14610e8a578063174ed54214610e4657806318160ddd14610e2757806323b872dd14610dea578063293311ab14610bff578063313ce56714610bc157806338d52e0f14610b7d5780633950935114610b2d578063402d267d14610b0657806345be27b6146105155780634cdad50614610b015780636e553f6514610ad957806370a08231146102e0578063715018a614610a7c5780638da5cb5b14610a535780639213b1241461080057806394bf804d146107af57806395d89b41146106a957838163a2fb342d146105f357508063a457c2d71461054d578063a8cc0aa414610515578063a9059cbb146104e4578063b3d7f6b9146104a9578063b460af94146103bf578063ba087652146103a3578063c63d75b61461037c578063c6e6f59214610289578063ce96cb7714610323578063d905777e146102e0578063dd62ed3e1461028e578063ef8b30f7146102895763f2fde38b146101ba57600080fd5b34610285576020366003190112610285576101d36110e5565b906101dc611840565b6001600160a01b03918216928315610233575050600554826bffffffffffffffffffffffff60a01b821617600555167f8be0079c531659141344cd1fd0a4f28419497f9722a3daafe3b4186f6b6457e0600080a380f35b906020608492519162461bcd60e51b8352820152602660248201527f4f776e61626c653a206e6577206f776e657220697320746865207a65726f206160448201526564647265737360d01b6064820152fd5b8280fd5b611146565b5050346102dc57806003193601126102dc576020916102ab6110e5565b826102b46110fb565b6001600160a01b03928316845260018652922091166000908152908352819020549051908152f35b5080fd5b5050346102dc5760203660031901126102dc5760209061031c6103016110e5565b6001600160a01b031660009081526020819052604090205490565b9051908152f35b5050346102dc5760203660031901126102dc576020916001600160a01b036103496110e5565b16815280835281902054600254806103645750905b51908152f35b610376916103706111dd565b90611bdc565b9061035e565b5050346102dc5760203660031901126102dc5760209061039a6110e5565b50516000198152f35b5050346102dc5760209061031c6103b936611111565b91611356565b5082346104a6576103cf36611111565b9390926103ef8560018060a01b0316600052600060205260406000205490565b600254928315929184841561049557505b85116104525750918391602097959361035e951591821561044a575b50501561042f5750809485925b33611898565b6104429061043b6111dd565b9083611a54565b948592610429565b91508961041c565b606490602089519162461bcd60e51b8352820152601f60248201527f455243343632363a207769746864726177206d6f7265207468616e206d6178006044820152fd5b6104a1916103706111dd565b610400565b80fd5b50346102855760203660031901126102855760025460209350903590806104d257509051908152f35b610376916104de6111dd565b90611a54565b5050346102dc57806003193601126102dc5760209061050e6105046110e5565b6024359033611589565b5160018152f35b5050346102dc5760203660031901126102dc5760209181906001600160a01b0361053d6110e5565b1681526006845220549051908152f35b5082346104a657826003193601126104a6576105676110e5565b91836024359233815260016020522060018060a01b0384166000526020528360002054908282106105a25760208561050e85850387336113ef565b608490602086519162461bcd60e51b8352820152602560248201527f45524332303a2064656372656173656420616c6c6f77616e63652062656c6f77604482015264207a65726f60d81b6064820152fd5b929050346106a557806003193601126106a55761060e6110e5565b7f00000000000000000000000000000000000000000000000000000000000000006001600160a01b031692833b156106a1578251630c04a8a160e41b81526001600160a01b0390921690820190815260243560208201529092849184919082908490829060400103925af190811561069857506106885750f35b61069190611191565b6104a65780f35b513d84823e3d90fd5b8480fd5b5050fd5b509190346102dc57816003193601126102dc5780519180938054916001908360011c92600185169485156107a5575b60209586861081146107925785895290811561076e5750600114610716575b6107128787610708828c03836111bb565b519182918261105a565b0390f35b81529295507f8a35acfbc15ff81a39ae7d344fd709f28e8600b4aa8c65c6b64bfe7fe36bd19b5b82841061075b575050508261071294610708928201019438806106f7565b805486850188015292860192810161073d565b60ff19168887015250505050151560051b83010192506107088261071238806106f7565b634e487b7160e01b845260228352602484fd5b93607f16936106d8565b509190346102dc57806003193601126102dc5761035e602093356107d16110fb565b600254909450806107e757508080945b336116f7565b6107f9906107f36111dd565b83611a54565b80946107e1565b509034610285576020806003193601126109415782359283159081610a17573386526006835261083d8487205461083733886112bd565b9061126f565b33875260068452848720556001600160a01b037f00000000000000000000000000000000000000000000000000000000000000008116937f0000000000000000000000000000000000000000000000000000000000000000909116928790156109a6575b1561094557845163095ea7b360e01b918101919091526001600160a01b03831660248201526044810186905286939291906108f3906108ed81606481015b03601f1981018352826111bb565b84611a94565b813b1561094157836084928651978895869463617ba03760e01b865285015260248401523060448401528160648401525af19081156106985750610935575080f35b61093e90611191565b80f35b8380fd5b845162461bcd60e51b815291820152603660248201527f5361666545524332303a20617070726f76652066726f6d206e6f6e2d7a65726f60448201527520746f206e6f6e2d7a65726f20616c6c6f77616e636560501b606482015260849150fd5b508451636eb1769f60e11b81523083820152602481018490528181604481885afa908115610a0d5788916109dc575b50156108a1565b90508181813d8311610a06575b6109f381836111bb565b81010312610a025751386109d5565b8780fd5b503d6109e9565b86513d8a823e3d90fd5b835162461bcd60e51b815290810183905260166024820152754465706f736974206c657373207468616e205a65726f60501b6044820152606490fd5b5050346102dc57816003193601126102dc5760055490516001600160a01b039091168152602090f35b83346104a657806003193601126104a657610a95611840565b600580546001600160a01b0319811690915581906001600160a01b03167f8be0079c531659141344cd1fd0a4f28419497f9722a3daafe3b4186f6b6457e08280a380f35b5091346104a657816003193601126104a6575061031c602092610afa6110fb565b90356112bd565b6110a3565b5050346102dc5760203660031901126102dc57602090610b246110e5565b5061031c611292565b5050346102dc57806003193601126102dc5761050e602092610b76610b506110e5565b338352600186528483206001600160a01b0382168452865291849020546024359061126f565b90336113ef565b5050346102dc57816003193601126102dc57517f00000000000000000000000000000000000000000000000000000000000000006001600160a01b03168152602090f35b5050346102dc57816003193601126102dc576020905160ff7f0000000000000000000000000000000000000000000000000000000000000000168152f35b509190346102dc57806003193601126102dc57823590610c1d6110fb565b918015610d9c576001600160a01b039083821615610d6a5733855260209360068552818487205410610d3357610c5590339083611356565b50338552600684528285208054918203918211610d2057558151631a4ca37b60e21b81527f00000000000000000000000000000000000000000000000000000000000000008216818701526000196024820152306044820152919083908390606490829088907f0000000000000000000000000000000000000000000000000000000000000000165af1908115610d175750610cef578280f35b813d8311610d10575b610d0281836111bb565b810103126104a65781808280f35b503d610cf8565b513d85823e3d90fd5b634e487b7160e01b865260118752602486fd5b835162461bcd60e51b815280880186905260116024820152704e6f7420656e6f7567682073686172657360781b6044820152606490fd5b825162461bcd60e51b8152602081880152600c60248201526b5a65726f204164647265737360a01b6044820152606490fd5b815162461bcd60e51b8152602081870152602260248201527f7769746864726177206d7573742062652067726561746572207468616e205a65604482015261726f60f01b6064820152608490fd5b5050346102dc5760603660031901126102dc5760209061050e610e0b6110e5565b610e136110fb565b60443591610e228333836114f1565b611589565b5050346102dc57816003193601126102dc576020906002549051908152f35b5050346102dc57816003193601126102dc57517f00000000000000000000000000000000000000000000000000000000000000006001600160a01b03168152602090f35b5050346102dc57816003193601126102dc57517f00000000000000000000000000000000000000000000000000000000000000006001600160a01b03168152602090f35b5034610285576020366003190112610285576002546020939135918215908115610f14575b5015610f0157509051908152f35b9061037691610f0e6111dd565b91611a54565b82159150610ef3565b5050346102dc57806003193601126102dc5760209061050e610f3d6110e5565b60243590336113ef565b50903461028557826003193601126102855780519183600354906001908260011c92600181168015611033575b60209586861082146110205750848852908115610ffe5750600114610fa5575b6107128686610708828b03836111bb565b929550600383527fc2575a0e9e593c00f959f8c92f12db2869c3395a3b0502d05e2516446f71f85b5b828410610feb575050508261071294610708928201019438610f94565b8054868501880152928601928101610fce565b60ff191687860152505050151560051b83010192506107088261071238610f94565b634e487b7160e01b845260229052602483fd5b93607f1693610f74565b5050346102dc57816003193601126102dc5760209061031c6111dd565b6020808252825181830181905290939260005b82811061108f57505060409293506000838284010152601f8019910116010190565b81810186015184820160400152850161106d565b346110e05760203660031901126110e057602060043560025480156000146110cf57505b604051908152f35b6110db916103706111dd565b6110c7565b600080fd5b600435906001600160a01b03821682036110e057565b602435906001600160a01b03821682036110e057565b60609060031901126110e057600435906001600160a01b039060243582811681036110e0579160443590811681036110e05790565b346110e05760203660031901126110e057602060043560025481158015611189575b156111765750604051908152f35b906110db916111836111dd565b91611bdc565b508015611168565b67ffffffffffffffff81116111a557604052565b634e487b7160e01b600052604160045260246000fd5b90601f8019910116810190811067ffffffffffffffff8211176111a557604052565b6040516370a0823160e01b81523060048201526020816024817f00000000000000000000000000000000000000000000000000000000000000006001600160a01b03165afa90811561126357600091611234575090565b90506020813d60201161125b575b8161124f602093836111bb565b810103126110e0575190565b3d9150611242565b6040513d6000823e3d90fd5b9190820180921161127c57565b634e487b7160e01b600052601160045260246000fd5b61129a6111dd565b158015906112b3575b156112ae5760001990565b600090565b50600254156112a3565b906112c6611292565b8211611311576112eb9060025483158015611309575b156112ee5750828391336116f7565b90565b611301906112fa6111dd565b9085611bdc565b9283916107e1565b5080156112dc565b60405162461bcd60e51b815260206004820152601e60248201527f455243343632363a206465706f736974206d6f7265207468616e206d617800006044820152606490fd5b6001600160a01b03831660009081526020819052604090205481116113aa576112eb91600254801560001461139057508193849133611898565b6113a29061139c6111dd565b84611bdc565b938491610429565b60405162461bcd60e51b815260206004820152601d60248201527f455243343632363a2072656465656d206d6f7265207468616e206d61780000006044820152606490fd5b6001600160a01b039081169182156114a057169182156114505760207f8c5be1e5ebec7d5bd14f71427d1e84f3dd0314c0f7b2291e5b200ac8c7c3b925918360005260018252604060002085600052825280604060002055604051908152a3565b60405162461bcd60e51b815260206004820152602260248201527f45524332303a20617070726f766520746f20746865207a65726f206164647265604482015261737360f01b6064820152608490fd5b60405162461bcd60e51b8152602060048201526024808201527f45524332303a20617070726f76652066726f6d20746865207a65726f206164646044820152637265737360e01b6064820152608490fd5b9060018060a01b0380831660005260016020526040600020908216600052602052604060002054926000198403611529575b50505050565b8084106115445761153b9303916113ef565b38808080611523565b60405162461bcd60e51b815260206004820152601d60248201527f45524332303a20696e73756666696369656e7420616c6c6f77616e63650000006044820152606490fd5b6001600160a01b039081169182156116a45716918215611653576000828152806020526040812054918083106115ff57604082827fddf252ad1be2c89b69c2b068fc378daa952ba7f163c4a11628f55a4df523b3ef958760209652828652038282205586815220818154019055604051908152a3565b60405162461bcd60e51b815260206004820152602660248201527f45524332303a207472616e7366657220616d6f756e7420657863656564732062604482015265616c616e636560d01b6064820152608490fd5b60405162461bcd60e51b815260206004820152602360248201527f45524332303a207472616e7366657220746f20746865207a65726f206164647260448201526265737360e81b6064820152608490fd5b60405162461bcd60e51b815260206004820152602560248201527f45524332303a207472616e736665722066726f6d20746865207a65726f206164604482015264647265737360d81b6064820152608490fd5b604080516323b872dd60e01b60208201526001600160a01b0392831660248201819052306044830152606480830187905282529491939192919060a081019067ffffffffffffffff8211818310176111a5576117759186527f0000000000000000000000000000000000000000000000000000000000000000611a94565b169384156117fc5790816117ad7fdcbc1c05240f31ff3ad067ef1ee35ce4997762752e3a095284754544f4c709d7949360025461126f565b600255856000526000602052826000208181540190558560007fddf252ad1be2c89b69c2b068fc378daa952ba7f163c4a11628f55a4df523b3ef60208651858152a382519182526020820152a3565b825162461bcd60e51b815260206004820152601f60248201527f45524332303a206d696e7420746f20746865207a65726f2061646472657373006044820152606490fd5b6005546001600160a01b0316330361185457565b606460405162461bcd60e51b815260206004820152602060248201527f4f776e61626c653a2063616c6c6572206973206e6f7420746865206f776e65726044820152fd5b9094936001600160a01b038084169493818416938390878603611a43575b50505084156119f457600096858852602092888452604093848a205499828b106119a55782899a9b7ffbde797d201c681b91056529119e0b02407c7bb96a4a2c75c01fc9667232c8db98999a835282845203868220558260025403600255897fddf252ad1be2c89b69c2b068fc378daa952ba7f163c4a11628f55a4df523b3ef838851868152a3845163a9059cbb60e01b828201526001600160a01b0384166024820152604481018990526119989061197281606481016108df565b7f0000000000000000000000000000000000000000000000000000000000000000611a94565b84519788528701521693a4565b855162461bcd60e51b815260048101839052602260248201527f45524332303a206275726e20616d6f756e7420657863656564732062616c616e604482015261636560f01b6064820152608490fd5b60405162461bcd60e51b815260206004820152602160248201527f45524332303a206275726e2066726f6d20746865207a65726f206164647265736044820152607360f81b6064820152608490fd5b611a4c926114f1565b3882816118b6565b9190611a61828285611bdc565b928215611a7e5709611a705790565b6001810180911161127c5790565b634e487b7160e01b600052601260045260246000fd5b60018060a01b0316906040516040810167ffffffffffffffff90828110828211176111a5576040526020938483527f5361666545524332303a206c6f772d6c6576656c2063616c6c206661696c6564858401526000808587829751910182855af1903d15611bcd573d928311611bb95790611b2f93929160405192611b2288601f19601f84011601856111bb565b83523d868885013e611c60565b805180611b3c5750505050565b818491810103126102dc57820151908115918215036104a65750611b6257808080611523565b6084906040519062461bcd60e51b82526004820152602a60248201527f5361666545524332303a204552433230206f7065726174696f6e20646964206e6044820152691bdd081cdd58d8d9595960b21b6064820152fd5b634e487b7160e01b85526041600452602485fd5b90611b2f939250606091611c60565b916000198284099282810292838086109503948086039514611c5257848311156110e0578291096001821901821680920460028082600302188083028203028083028203028083028203028083028203028083028203028092029003029360018380600003040190848311900302920304170290565b505080925015611a7e570490565b91929015611cc25750815115611c74575090565b3b15611c7d5790565b60405162461bcd60e51b815260206004820152601d60248201527f416464726573733a2063616c6c20746f206e6f6e2d636f6e74726163740000006044820152606490fd5b825190915015611cd55750805190602001fd5b60405162461bcd60e51b8152908190611cf1906004830161105a565b0390fdfea264697066735822122036fc09129e6eefe14382f2d289d2ab8d8a1904d1f384fc25ad50d380bc2dc44164736f6c63430008170033",
          "opcodes": "PUSH2 0x100 DUP1 PUSH1 0x40 MSTORE CALLVALUE PUSH3 0x421 JUMPI PUSH3 0x22DA DUP1 CODESIZE SUB DUP1 SWAP2 PUSH3 0x21 DUP3 DUP6 PUSH3 0x426 JUMP JUMPDEST DUP4 CODECOPY DUP2 ADD PUSH1 0xA0 DUP3 DUP3 SUB SLT PUSH3 0x421 JUMPI DUP2 MLOAD PUSH1 0x1 PUSH1 0x1 PUSH1 0xA0 SHL SUB SWAP2 SWAP1 DUP3 DUP2 AND SWAP1 DUP2 SWAP1 SUB PUSH3 0x421 JUMPI PUSH1 0x20 DUP5 DUP2 ADD MLOAD PUSH1 0x1 PUSH1 0x1 PUSH1 0x40 SHL SUB SWAP4 SWAP1 DUP5 DUP2 GT PUSH3 0x421 JUMPI DUP2 PUSH3 0x6E SWAP2 DUP9 ADD PUSH3 0x466 JUMP JUMPDEST SWAP1 PUSH1 0x40 DUP8 ADD MLOAD SWAP1 DUP6 DUP3 GT PUSH3 0x421 JUMPI PUSH3 0x8A SWAP2 DUP9 ADD PUSH3 0x466 JUMP JUMPDEST SWAP4 PUSH3 0xA7 PUSH1 0x80 PUSH3 0x9F PUSH1 0x60 DUP11 ADD PUSH3 0x4D1 JUMP JUMPDEST SWAP9 ADD PUSH3 0x4D1 JUMP JUMPDEST SWAP5 DUP3 MLOAD DUP3 DUP2 GT PUSH3 0x321 JUMPI PUSH1 0x3 SWAP2 DUP3 SLOAD SWAP2 PUSH1 0x1 SWAP6 DUP7 DUP5 DUP2 SHR SWAP5 AND DUP1 ISZERO PUSH3 0x416 JUMPI JUMPDEST DUP9 DUP6 LT EQ PUSH3 0x400 JUMPI DUP2 SWAP1 PUSH1 0x1F SWAP5 DUP6 DUP2 GT PUSH3 0x3AA JUMPI JUMPDEST POP DUP9 SWAP1 DUP6 DUP4 GT PUSH1 0x1 EQ PUSH3 0x343 JUMPI PUSH1 0x0 SWAP3 PUSH3 0x337 JUMPI JUMPDEST POP POP PUSH1 0x0 NOT DUP3 DUP7 SHL SHR NOT AND SWAP1 DUP7 SHL OR DUP4 SSTORE JUMPDEST DUP1 MLOAD SWAP4 DUP5 GT PUSH3 0x321 JUMPI PUSH1 0x4 SWAP6 DUP7 SLOAD DUP7 DUP2 DUP2 SHR SWAP2 AND DUP1 ISZERO PUSH3 0x316 JUMPI JUMPDEST DUP3 DUP3 LT EQ PUSH3 0x301 JUMPI DUP4 DUP2 GT PUSH3 0x2B6 JUMPI JUMPDEST POP DUP1 SWAP3 DUP6 GT PUSH1 0x1 EQ PUSH3 0x248 JUMPI POP SWAP4 DUP4 SWAP5 SWAP2 DUP5 SWAP3 PUSH1 0x0 SWAP6 PUSH3 0x23C JUMPI JUMPDEST POP POP SHL SWAP3 PUSH1 0x0 NOT SWAP2 SHL SHR NOT AND OR SWAP1 SSTORE JUMPDEST PUSH3 0x170 DUP2 PUSH3 0x4E6 JUMP JUMPDEST SWAP1 ISZERO PUSH3 0x233 JUMPI JUMPDEST PUSH1 0xA0 MSTORE PUSH1 0x80 MSTORE PUSH1 0x5 DUP1 SLOAD CALLER PUSH1 0x1 PUSH1 0x1 PUSH1 0xA0 SHL SUB NOT DUP3 AND DUP2 OR SWAP1 SWAP3 SSTORE PUSH1 0x40 MLOAD SWAP5 DUP5 SWAP3 SWAP1 SWAP2 DUP4 AND PUSH32 0x8BE0079C531659141344CD1FD0A4F28419497F9722A3DAAFE3B4186F6B6457E0 PUSH1 0x0 DUP1 LOG3 AND PUSH1 0xE0 MSTORE AND PUSH1 0xC0 MSTORE PUSH2 0x1D2B SWAP1 DUP2 PUSH3 0x5AF DUP3 CODECOPY PUSH1 0x80 MLOAD DUP2 DUP2 DUP2 PUSH2 0x852 ADD MSTORE DUP2 DUP2 PUSH2 0xB92 ADD MSTORE DUP2 DUP2 PUSH2 0xC7B ADD MSTORE DUP2 DUP2 PUSH2 0x11F8 ADD MSTORE DUP2 DUP2 PUSH2 0x1751 ADD MSTORE PUSH2 0x1974 ADD MSTORE PUSH1 0xA0 MLOAD DUP2 PUSH2 0xBDB ADD MSTORE PUSH1 0xC0 MLOAD DUP2 DUP2 DUP2 PUSH2 0x610 ADD MSTORE PUSH2 0xE5B ADD MSTORE PUSH1 0xE0 MLOAD DUP2 DUP2 DUP2 PUSH2 0x876 ADD MSTORE DUP2 DUP2 PUSH2 0xCBD ADD MSTORE PUSH2 0xE9F ADD MSTORE RETURN JUMPDEST POP PUSH1 0x12 PUSH3 0x178 JUMP JUMPDEST ADD MLOAD SWAP4 POP CODESIZE DUP1 PUSH3 0x155 JUMP JUMPDEST SWAP3 SWAP2 SWAP1 DUP5 PUSH1 0x1F NOT DUP2 AND DUP9 PUSH1 0x0 MSTORE DUP6 PUSH1 0x0 KECCAK256 SWAP6 PUSH1 0x0 SWAP1 JUMPDEST DUP10 DUP4 DUP4 LT PUSH3 0x29B JUMPI POP POP POP LT PUSH3 0x280 JUMPI JUMPDEST POP POP POP POP DUP2 SHL ADD SWAP1 SSTORE PUSH3 0x165 JUMP JUMPDEST ADD MLOAD SWAP1 PUSH1 0xF8 DUP5 PUSH1 0x0 NOT SWAP3 SHL AND SHR NOT AND SWAP1 SSTORE CODESIZE DUP1 DUP1 DUP1 PUSH3 0x271 JUMP JUMPDEST DUP6 DUP8 ADD MLOAD DUP10 SSTORE SWAP1 SWAP8 ADD SWAP7 SWAP5 DUP6 ADD SWAP5 DUP9 SWAP4 POP SWAP1 DUP2 ADD SWAP1 PUSH3 0x25E JUMP JUMPDEST DUP8 PUSH1 0x0 MSTORE DUP2 PUSH1 0x0 KECCAK256 DUP5 DUP1 DUP9 ADD PUSH1 0x5 SHR DUP3 ADD SWAP3 DUP5 DUP10 LT PUSH3 0x2F7 JUMPI JUMPDEST ADD PUSH1 0x5 SHR ADD SWAP1 DUP8 SWAP1 JUMPDEST DUP3 DUP2 LT PUSH3 0x2EA JUMPI POP POP PUSH3 0x138 JUMP JUMPDEST PUSH1 0x0 DUP2 SSTORE ADD DUP8 SWAP1 PUSH3 0x2DA JUMP JUMPDEST SWAP3 POP DUP2 SWAP3 PUSH3 0x2D1 JUMP JUMPDEST PUSH1 0x22 DUP9 PUSH4 0x4E487B71 PUSH1 0xE0 SHL PUSH1 0x0 MSTORE MSTORE PUSH1 0x24 PUSH1 0x0 REVERT JUMPDEST SWAP1 PUSH1 0x7F AND SWAP1 PUSH3 0x126 JUMP JUMPDEST PUSH4 0x4E487B71 PUSH1 0xE0 SHL PUSH1 0x0 MSTORE PUSH1 0x41 PUSH1 0x4 MSTORE PUSH1 0x24 PUSH1 0x0 REVERT JUMPDEST ADD MLOAD SWAP1 POP CODESIZE DUP1 PUSH3 0xF7 JUMP JUMPDEST SWAP1 DUP9 SWAP4 POP PUSH1 0x1F NOT DUP4 AND SWAP2 DUP8 PUSH1 0x0 MSTORE DUP11 PUSH1 0x0 KECCAK256 SWAP3 PUSH1 0x0 JUMPDEST DUP13 DUP3 DUP3 LT PUSH3 0x393 JUMPI POP POP DUP5 GT PUSH3 0x37A JUMPI JUMPDEST POP POP POP DUP2 SHL ADD DUP4 SSTORE PUSH3 0x109 JUMP JUMPDEST ADD MLOAD PUSH1 0x0 NOT DUP4 DUP9 SHL PUSH1 0xF8 AND SHR NOT AND SWAP1 SSTORE CODESIZE DUP1 DUP1 PUSH3 0x36C JUMP JUMPDEST DUP4 DUP6 ADD MLOAD DUP7 SSTORE DUP13 SWAP8 SWAP1 SWAP6 ADD SWAP5 SWAP4 DUP5 ADD SWAP4 ADD PUSH3 0x359 JUMP JUMPDEST SWAP1 SWAP2 POP DUP6 PUSH1 0x0 MSTORE DUP9 PUSH1 0x0 KECCAK256 DUP6 DUP1 DUP6 ADD PUSH1 0x5 SHR DUP3 ADD SWAP3 DUP12 DUP7 LT PUSH3 0x3F6 JUMPI JUMPDEST SWAP2 DUP11 SWAP2 DUP7 SWAP6 SWAP5 SWAP4 ADD PUSH1 0x5 SHR ADD SWAP2 JUMPDEST DUP3 DUP2 LT PUSH3 0x3E6 JUMPI POP POP PUSH3 0xE0 JUMP JUMPDEST PUSH1 0x0 DUP2 SSTORE DUP6 SWAP5 POP DUP11 SWAP2 ADD PUSH3 0x3D6 JUMP JUMPDEST SWAP3 POP DUP2 SWAP3 PUSH3 0x3C8 JUMP JUMPDEST PUSH4 0x4E487B71 PUSH1 0xE0 SHL PUSH1 0x0 MSTORE PUSH1 0x22 PUSH1 0x4 MSTORE PUSH1 0x24 PUSH1 0x0 REVERT JUMPDEST SWAP4 PUSH1 0x7F AND SWAP4 PUSH3 0xC9 JUMP JUMPDEST PUSH1 0x0 DUP1 REVERT JUMPDEST PUSH1 0x1F SWAP1 SWAP2 ADD PUSH1 0x1F NOT AND DUP2 ADD SWAP1 PUSH1 0x1 PUSH1 0x1 PUSH1 0x40 SHL SUB DUP3 GT SWAP1 DUP3 LT OR PUSH3 0x321 JUMPI PUSH1 0x40 MSTORE JUMP JUMPDEST PUSH1 0x1 PUSH1 0x1 PUSH1 0x40 SHL SUB DUP2 GT PUSH3 0x321 JUMPI PUSH1 0x1F ADD PUSH1 0x1F NOT AND PUSH1 0x20 ADD SWAP1 JUMP JUMPDEST SWAP1 DUP1 PUSH1 0x1F DUP4 ADD SLT ISZERO PUSH3 0x421 JUMPI DUP2 MLOAD SWAP1 PUSH3 0x481 DUP3 PUSH3 0x44A JUMP JUMPDEST SWAP3 PUSH3 0x491 PUSH1 0x40 MLOAD SWAP5 DUP6 PUSH3 0x426 JUMP JUMPDEST DUP3 DUP5 MSTORE PUSH1 0x20 SWAP2 PUSH1 0x20 DUP5 DUP4 ADD ADD GT PUSH3 0x421 JUMPI PUSH1 0x0 JUMPDEST DUP4 DUP2 LT PUSH3 0x4BD JUMPI POP POP POP PUSH1 0x20 PUSH1 0x0 SWAP2 DUP4 ADD ADD MSTORE SWAP1 JUMP JUMPDEST DUP2 DUP2 ADD DUP4 ADD MLOAD DUP6 DUP3 ADD DUP5 ADD MSTORE DUP3 ADD PUSH3 0x4A6 JUMP JUMPDEST MLOAD SWAP1 PUSH1 0x1 PUSH1 0x1 PUSH1 0xA0 SHL SUB DUP3 AND DUP3 SUB PUSH3 0x421 JUMPI JUMP JUMPDEST PUSH1 0x40 DUP1 MLOAD PUSH4 0x313CE567 PUSH1 0xE0 SHL PUSH1 0x20 DUP3 ADD SWAP1 DUP2 MSTORE PUSH1 0x4 DUP3 MSTORE SWAP3 SWAP4 SWAP3 SWAP2 DUP2 ADD PUSH1 0x1 PUSH1 0x1 PUSH1 0x40 SHL SUB DUP2 GT DUP3 DUP3 LT OR PUSH3 0x321 JUMPI PUSH1 0x40 MSTORE MLOAD PUSH1 0x0 SWAP4 DUP5 SWAP3 DUP4 SWAP3 SWAP2 DUP4 SWAP1 PUSH1 0x1 PUSH1 0x1 PUSH1 0xA0 SHL SUB AND GAS CALL RETURNDATASIZE ISZERO PUSH3 0x5A5 JUMPI RETURNDATASIZE SWAP1 PUSH3 0x543 DUP3 PUSH3 0x44A JUMP JUMPDEST SWAP2 PUSH3 0x553 PUSH1 0x40 MLOAD SWAP4 DUP5 PUSH3 0x426 JUMP JUMPDEST DUP3 MSTORE RETURNDATASIZE DUP5 PUSH1 0x20 DUP5 ADD RETURNDATACOPY JUMPDEST DUP1 PUSH3 0x598 JUMPI JUMPDEST PUSH3 0x56F JUMPI JUMPDEST POP DUP2 SWAP1 JUMP JUMPDEST PUSH1 0x20 DUP2 DUP1 MLOAD DUP2 ADD SUB SLT PUSH3 0x594 JUMPI PUSH1 0x20 ADD MLOAD PUSH1 0xFF DUP2 GT PUSH3 0x56A JUMPI PUSH1 0x1 SWAP3 POP PUSH1 0xFF AND SWAP1 JUMP JUMPDEST DUP3 DUP1 REVERT JUMPDEST POP PUSH1 0x20 DUP2 MLOAD LT ISZERO PUSH3 0x564 JUMP JUMPDEST PUSH1 0x60 SWAP1 PUSH3 0x55D JUMP INVALID PUSH1 0x40 PUSH1 0x80 DUP2 MSTORE PUSH1 0x4 SWAP1 DUP2 CALLDATASIZE LT ISZERO PUSH2 0x15 JUMPI PUSH1 0x0 DUP1 REVERT JUMPDEST PUSH1 0x0 SWAP2 DUP3 CALLDATALOAD PUSH1 0xE0 SHR DUP1 PUSH4 0x1E1D114 EQ PUSH2 0x103D JUMPI DUP1 PUSH4 0x6FDDE03 EQ PUSH2 0xF47 JUMPI DUP1 PUSH4 0x7A2D13A EQ PUSH2 0xB01 JUMPI DUP1 PUSH4 0x95EA7B3 EQ PUSH2 0xF1D JUMPI DUP1 PUSH4 0xA28A477 EQ PUSH2 0xECE JUMPI DUP1 PUSH4 0x16F0115B EQ PUSH2 0xE8A JUMPI DUP1 PUSH4 0x174ED542 EQ PUSH2 0xE46 JUMPI DUP1 PUSH4 0x18160DDD EQ PUSH2 0xE27 JUMPI DUP1 PUSH4 0x23B872DD EQ PUSH2 0xDEA JUMPI DUP1 PUSH4 0x293311AB EQ PUSH2 0xBFF JUMPI DUP1 PUSH4 0x313CE567 EQ PUSH2 0xBC1 JUMPI DUP1 PUSH4 0x38D52E0F EQ PUSH2 0xB7D JUMPI DUP1 PUSH4 0x39509351 EQ PUSH2 0xB2D JUMPI DUP1 PUSH4 0x402D267D EQ PUSH2 0xB06 JUMPI DUP1 PUSH4 0x45BE27B6 EQ PUSH2 0x515 JUMPI DUP1 PUSH4 0x4CDAD506 EQ PUSH2 0xB01 JUMPI DUP1 PUSH4 0x6E553F65 EQ PUSH2 0xAD9 JUMPI DUP1 PUSH4 0x70A08231 EQ PUSH2 0x2E0 JUMPI DUP1 PUSH4 0x715018A6 EQ PUSH2 0xA7C JUMPI DUP1 PUSH4 0x8DA5CB5B EQ PUSH2 0xA53 JUMPI DUP1 PUSH4 0x9213B124 EQ PUSH2 0x800 JUMPI DUP1 PUSH4 0x94BF804D EQ PUSH2 0x7AF JUMPI DUP1 PUSH4 0x95D89B41 EQ PUSH2 0x6A9 JUMPI DUP4 DUP2 PUSH4 0xA2FB342D EQ PUSH2 0x5F3 JUMPI POP DUP1 PUSH4 0xA457C2D7 EQ PUSH2 0x54D JUMPI DUP1 PUSH4 0xA8CC0AA4 EQ PUSH2 0x515 JUMPI DUP1 PUSH4 0xA9059CBB EQ PUSH2 0x4E4 JUMPI DUP1 PUSH4 0xB3D7F6B9 EQ PUSH2 0x4A9 JUMPI DUP1 PUSH4 0xB460AF94 EQ PUSH2 0x3BF JUMPI DUP1 PUSH4 0xBA087652 EQ PUSH2 0x3A3 JUMPI DUP1 PUSH4 0xC63D75B6 EQ PUSH2 0x37C JUMPI DUP1 PUSH4 0xC6E6F592 EQ PUSH2 0x289 JUMPI DUP1 PUSH4 0xCE96CB77 EQ PUSH2 0x323 JUMPI DUP1 PUSH4 0xD905777E EQ PUSH2 0x2E0 JUMPI DUP1 PUSH4 0xDD62ED3E EQ PUSH2 0x28E JUMPI DUP1 PUSH4 0xEF8B30F7 EQ PUSH2 0x289 JUMPI PUSH4 0xF2FDE38B EQ PUSH2 0x1BA JUMPI PUSH1 0x0 DUP1 REVERT JUMPDEST CALLVALUE PUSH2 0x285 JUMPI PUSH1 0x20 CALLDATASIZE PUSH1 0x3 NOT ADD SLT PUSH2 0x285 JUMPI PUSH2 0x1D3 PUSH2 0x10E5 JUMP JUMPDEST SWAP1 PUSH2 0x1DC PUSH2 0x1840 JUMP JUMPDEST PUSH1 0x1 PUSH1 0x1 PUSH1 0xA0 SHL SUB SWAP2 DUP3 AND SWAP3 DUP4 ISZERO PUSH2 0x233 JUMPI POP POP PUSH1 0x5 SLOAD DUP3 PUSH12 0xFFFFFFFFFFFFFFFFFFFFFFFF PUSH1 0xA0 SHL DUP3 AND OR PUSH1 0x5 SSTORE AND PUSH32 0x8BE0079C531659141344CD1FD0A4F28419497F9722A3DAAFE3B4186F6B6457E0 PUSH1 0x0 DUP1 LOG3 DUP1 RETURN JUMPDEST SWAP1 PUSH1 0x20 PUSH1 0x84 SWAP3 MLOAD SWAP2 PUSH3 0x461BCD PUSH1 0xE5 SHL DUP4 MSTORE DUP3 ADD MSTORE PUSH1 0x26 PUSH1 0x24 DUP3 ADD MSTORE PUSH32 0x4F776E61626C653A206E6577206F776E657220697320746865207A65726F2061 PUSH1 0x44 DUP3 ADD MSTORE PUSH6 0x646472657373 PUSH1 0xD0 SHL PUSH1 0x64 DUP3 ADD MSTORE REVERT JUMPDEST DUP3 DUP1 REVERT JUMPDEST PUSH2 0x1146 JUMP JUMPDEST POP POP CALLVALUE PUSH2 0x2DC JUMPI DUP1 PUSH1 0x3 NOT CALLDATASIZE ADD SLT PUSH2 0x2DC JUMPI PUSH1 0x20 SWAP2 PUSH2 0x2AB PUSH2 0x10E5 JUMP JUMPDEST DUP3 PUSH2 0x2B4 PUSH2 0x10FB JUMP JUMPDEST PUSH1 0x1 PUSH1 0x1 PUSH1 0xA0 SHL SUB SWAP3 DUP4 AND DUP5 MSTORE PUSH1 0x1 DUP7 MSTORE SWAP3 KECCAK256 SWAP2 AND PUSH1 0x0 SWAP1 DUP2 MSTORE SWAP1 DUP4 MSTORE DUP2 SWAP1 KECCAK256 SLOAD SWAP1 MLOAD SWAP1 DUP2 MSTORE RETURN JUMPDEST POP DUP1 REVERT JUMPDEST POP POP CALLVALUE PUSH2 0x2DC JUMPI PUSH1 0x20 CALLDATASIZE PUSH1 0x3 NOT ADD SLT PUSH2 0x2DC JUMPI PUSH1 0x20 SWAP1 PUSH2 0x31C PUSH2 0x301 PUSH2 0x10E5 JUMP JUMPDEST PUSH1 0x1 PUSH1 0x1 PUSH1 0xA0 SHL SUB AND PUSH1 0x0 SWAP1 DUP2 MSTORE PUSH1 0x20 DUP2 SWAP1 MSTORE PUSH1 0x40 SWAP1 KECCAK256 SLOAD SWAP1 JUMP JUMPDEST SWAP1 MLOAD SWAP1 DUP2 MSTORE RETURN JUMPDEST POP POP CALLVALUE PUSH2 0x2DC JUMPI PUSH1 0x20 CALLDATASIZE PUSH1 0x3 NOT ADD SLT PUSH2 0x2DC JUMPI PUSH1 0x20 SWAP2 PUSH1 0x1 PUSH1 0x1 PUSH1 0xA0 SHL SUB PUSH2 0x349 PUSH2 0x10E5 JUMP JUMPDEST AND DUP2 MSTORE DUP1 DUP4 MSTORE DUP2 SWAP1 KECCAK256 SLOAD PUSH1 0x2 SLOAD DUP1 PUSH2 0x364 JUMPI POP SWAP1 JUMPDEST MLOAD SWAP1 DUP2 MSTORE RETURN JUMPDEST PUSH2 0x376 SWAP2 PUSH2 0x370 PUSH2 0x11DD JUMP JUMPDEST SWAP1 PUSH2 0x1BDC JUMP JUMPDEST SWAP1 PUSH2 0x35E JUMP JUMPDEST POP POP CALLVALUE PUSH2 0x2DC JUMPI PUSH1 0x20 CALLDATASIZE PUSH1 0x3 NOT ADD SLT PUSH2 0x2DC JUMPI PUSH1 0x20 SWAP1 PUSH2 0x39A PUSH2 0x10E5 JUMP JUMPDEST POP MLOAD PUSH1 0x0 NOT DUP2 MSTORE RETURN JUMPDEST POP POP CALLVALUE PUSH2 0x2DC JUMPI PUSH1 0x20 SWAP1 PUSH2 0x31C PUSH2 0x3B9 CALLDATASIZE PUSH2 0x1111 JUMP JUMPDEST SWAP2 PUSH2 0x1356 JUMP JUMPDEST POP DUP3 CALLVALUE PUSH2 0x4A6 JUMPI PUSH2 0x3CF CALLDATASIZE PUSH2 0x1111 JUMP JUMPDEST SWAP4 SWAP1 SWAP3 PUSH2 0x3EF DUP6 PUSH1 0x1 DUP1 PUSH1 0xA0 SHL SUB AND PUSH1 0x0 MSTORE PUSH1 0x0 PUSH1 0x20 MSTORE PUSH1 0x40 PUSH1 0x0 KECCAK256 SLOAD SWAP1 JUMP JUMPDEST PUSH1 0x2 SLOAD SWAP3 DUP4 ISZERO SWAP3 SWAP2 DUP5 DUP5 ISZERO PUSH2 0x495 JUMPI POP JUMPDEST DUP6 GT PUSH2 0x452 JUMPI POP SWAP2 DUP4 SWAP2 PUSH1 0x20 SWAP8 SWAP6 SWAP4 PUSH2 0x35E SWAP6 ISZERO SWAP2 DUP3 ISZERO PUSH2 0x44A JUMPI JUMPDEST POP POP ISZERO PUSH2 0x42F JUMPI POP DUP1 SWAP5 DUP6 SWAP3 JUMPDEST CALLER PUSH2 0x1898 JUMP JUMPDEST PUSH2 0x442 SWAP1 PUSH2 0x43B PUSH2 0x11DD JUMP JUMPDEST SWAP1 DUP4 PUSH2 0x1A54 JUMP JUMPDEST SWAP5 DUP6 SWAP3 PUSH2 0x429 JUMP JUMPDEST SWAP2 POP DUP10 PUSH2 0x41C JUMP JUMPDEST PUSH1 0x64 SWAP1 PUSH1 0x20 DUP10 MLOAD SWAP2 PUSH3 0x461BCD PUSH1 0xE5 SHL DUP4 MSTORE DUP3 ADD MSTORE PUSH1 0x1F PUSH1 0x24 DUP3 ADD MSTORE PUSH32 0x455243343632363A207769746864726177206D6F7265207468616E206D617800 PUSH1 0x44 DUP3 ADD MSTORE REVERT JUMPDEST PUSH2 0x4A1 SWAP2 PUSH2 0x370 PUSH2 0x11DD JUMP JUMPDEST PUSH2 0x400 JUMP JUMPDEST DUP1 REVERT JUMPDEST POP CALLVALUE PUSH2 0x285 JUMPI PUSH1 0x20 CALLDATASIZE PUSH1 0x3 NOT ADD SLT PUSH2 0x285 JUMPI PUSH1 0x2 SLOAD PUSH1 0x20 SWAP4 POP SWAP1 CALLDATALOAD SWAP1 DUP1 PUSH2 0x4D2 JUMPI POP SWAP1 MLOAD SWAP1 DUP2 MSTORE RETURN JUMPDEST PUSH2 0x376 SWAP2 PUSH2 0x4DE PUSH2 0x11DD JUMP JUMPDEST SWAP1 PUSH2 0x1A54 JUMP JUMPDEST POP POP CALLVALUE PUSH2 0x2DC JUMPI DUP1 PUSH1 0x3 NOT CALLDATASIZE ADD SLT PUSH2 0x2DC JUMPI PUSH1 0x20 SWAP1 PUSH2 0x50E PUSH2 0x504 PUSH2 0x10E5 JUMP JUMPDEST PUSH1 0x24 CALLDATALOAD SWAP1 CALLER PUSH2 0x1589 JUMP JUMPDEST MLOAD PUSH1 0x1 DUP2 MSTORE RETURN JUMPDEST POP POP CALLVALUE PUSH2 0x2DC JUMPI PUSH1 0x20 CALLDATASIZE PUSH1 0x3 NOT ADD SLT PUSH2 0x2DC JUMPI PUSH1 0x20 SWAP2 DUP2 SWAP1 PUSH1 0x1 PUSH1 0x1 PUSH1 0xA0 SHL SUB PUSH2 0x53D PUSH2 0x10E5 JUMP JUMPDEST AND DUP2 MSTORE PUSH1 0x6 DUP5 MSTORE KECCAK256 SLOAD SWAP1 MLOAD SWAP1 DUP2 MSTORE RETURN JUMPDEST POP DUP3 CALLVALUE PUSH2 0x4A6 JUMPI DUP3 PUSH1 0x3 NOT CALLDATASIZE ADD SLT PUSH2 0x4A6 JUMPI PUSH2 0x567 PUSH2 0x10E5 JUMP JUMPDEST SWAP2 DUP4 PUSH1 0x24 CALLDATALOAD SWAP3 CALLER DUP2 MSTORE PUSH1 0x1 PUSH1 0x20 MSTORE KECCAK256 PUSH1 0x1 DUP1 PUSH1 0xA0 SHL SUB DUP5 AND PUSH1 0x0 MSTORE PUSH1 0x20 MSTORE DUP4 PUSH1 0x0 KECCAK256 SLOAD SWAP1 DUP3 DUP3 LT PUSH2 0x5A2 JUMPI PUSH1 0x20 DUP6 PUSH2 0x50E DUP6 DUP6 SUB DUP8 CALLER PUSH2 0x13EF JUMP JUMPDEST PUSH1 0x84 SWAP1 PUSH1 0x20 DUP7 MLOAD SWAP2 PUSH3 0x461BCD PUSH1 0xE5 SHL DUP4 MSTORE DUP3 ADD MSTORE PUSH1 0x25 PUSH1 0x24 DUP3 ADD MSTORE PUSH32 0x45524332303A2064656372656173656420616C6C6F77616E63652062656C6F77 PUSH1 0x44 DUP3 ADD MSTORE PUSH5 0x207A65726F PUSH1 0xD8 SHL PUSH1 0x64 DUP3 ADD MSTORE REVERT JUMPDEST SWAP3 SWAP1 POP CALLVALUE PUSH2 0x6A5 JUMPI DUP1 PUSH1 0x3 NOT CALLDATASIZE ADD SLT PUSH2 0x6A5 JUMPI PUSH2 0x60E PUSH2 0x10E5 JUMP JUMPDEST PUSH32 0x0 PUSH1 0x1 PUSH1 0x1 PUSH1 0xA0 SHL SUB AND SWAP3 DUP4 EXTCODESIZE ISZERO PUSH2 0x6A1 JUMPI DUP3 MLOAD PUSH4 0xC04A8A1 PUSH1 0xE4 SHL DUP2 MSTORE PUSH1 0x1 PUSH1 0x1 PUSH1 0xA0 SHL SUB SWAP1 SWAP3 AND SWAP1 DUP3 ADD SWAP1 DUP2 MSTORE PUSH1 0x24 CALLDATALOAD PUSH1 0x20 DUP3 ADD MSTORE SWAP1 SWAP3 DUP5 SWAP2 DUP5 SWAP2 SWAP1 DUP3 SWAP1 DUP5 SWAP1 DUP3 SWAP1 PUSH1 0x40 ADD SUB SWAP3 GAS CALL SWAP1 DUP2 ISZERO PUSH2 0x698 JUMPI POP PUSH2 0x688 JUMPI POP RETURN JUMPDEST PUSH2 0x691 SWAP1 PUSH2 0x1191 JUMP JUMPDEST PUSH2 0x4A6 JUMPI DUP1 RETURN JUMPDEST MLOAD RETURNDATASIZE DUP5 DUP3 RETURNDATACOPY RETURNDATASIZE SWAP1 REVERT JUMPDEST DUP5 DUP1 REVERT JUMPDEST POP POP REVERT JUMPDEST POP SWAP2 SWAP1 CALLVALUE PUSH2 0x2DC JUMPI DUP2 PUSH1 0x3 NOT CALLDATASIZE ADD SLT PUSH2 0x2DC JUMPI DUP1 MLOAD SWAP2 DUP1 SWAP4 DUP1 SLOAD SWAP2 PUSH1 0x1 SWAP1 DUP4 PUSH1 0x1 SHR SWAP3 PUSH1 0x1 DUP6 AND SWAP5 DUP6 ISZERO PUSH2 0x7A5 JUMPI JUMPDEST PUSH1 0x20 SWAP6 DUP7 DUP7 LT DUP2 EQ PUSH2 0x792 JUMPI DUP6 DUP10 MSTORE SWAP1 DUP2 ISZERO PUSH2 0x76E JUMPI POP PUSH1 0x1 EQ PUSH2 0x716 JUMPI JUMPDEST PUSH2 0x712 DUP8 DUP8 PUSH2 0x708 DUP3 DUP13 SUB DUP4 PUSH2 0x11BB JUMP JUMPDEST MLOAD SWAP2 DUP3 SWAP2 DUP3 PUSH2 0x105A JUMP JUMPDEST SUB SWAP1 RETURN JUMPDEST DUP2 MSTORE SWAP3 SWAP6 POP PUSH32 0x8A35ACFBC15FF81A39AE7D344FD709F28E8600B4AA8C65C6B64BFE7FE36BD19B JUMPDEST DUP3 DUP5 LT PUSH2 0x75B JUMPI POP POP POP DUP3 PUSH2 0x712 SWAP5 PUSH2 0x708 SWAP3 DUP3 ADD ADD SWAP5 CODESIZE DUP1 PUSH2 0x6F7 JUMP JUMPDEST DUP1 SLOAD DUP7 DUP6 ADD DUP9 ADD MSTORE SWAP3 DUP7 ADD SWAP3 DUP2 ADD PUSH2 0x73D JUMP JUMPDEST PUSH1 0xFF NOT AND DUP9 DUP8 ADD MSTORE POP POP POP POP ISZERO ISZERO PUSH1 0x5 SHL DUP4 ADD ADD SWAP3 POP PUSH2 0x708 DUP3 PUSH2 0x712 CODESIZE DUP1 PUSH2 0x6F7 JUMP JUMPDEST PUSH4 0x4E487B71 PUSH1 0xE0 SHL DUP5 MSTORE PUSH1 0x22 DUP4 MSTORE PUSH1 0x24 DUP5 REVERT JUMPDEST SWAP4 PUSH1 0x7F AND SWAP4 PUSH2 0x6D8 JUMP JUMPDEST POP SWAP2 SWAP1 CALLVALUE PUSH2 0x2DC JUMPI DUP1 PUSH1 0x3 NOT CALLDATASIZE ADD SLT PUSH2 0x2DC JUMPI PUSH2 0x35E PUSH1 0x20 SWAP4 CALLDATALOAD PUSH2 0x7D1 PUSH2 0x10FB JUMP JUMPDEST PUSH1 0x2 SLOAD SWAP1 SWAP5 POP DUP1 PUSH2 0x7E7 JUMPI POP DUP1 DUP1 SWAP5 JUMPDEST CALLER PUSH2 0x16F7 JUMP JUMPDEST PUSH2 0x7F9 SWAP1 PUSH2 0x7F3 PUSH2 0x11DD JUMP JUMPDEST DUP4 PUSH2 0x1A54 JUMP JUMPDEST DUP1 SWAP5 PUSH2 0x7E1 JUMP JUMPDEST POP SWAP1 CALLVALUE PUSH2 0x285 JUMPI PUSH1 0x20 DUP1 PUSH1 0x3 NOT CALLDATASIZE ADD SLT PUSH2 0x941 JUMPI DUP3 CALLDATALOAD SWAP3 DUP4 ISZERO SWAP1 DUP2 PUSH2 0xA17 JUMPI CALLER DUP7 MSTORE PUSH1 0x6 DUP4 MSTORE PUSH2 0x83D DUP5 DUP8 KECCAK256 SLOAD PUSH2 0x837 CALLER DUP9 PUSH2 0x12BD JUMP JUMPDEST SWAP1 PUSH2 0x126F JUMP JUMPDEST CALLER DUP8 MSTORE PUSH1 0x6 DUP5 MSTORE DUP5 DUP8 KECCAK256 SSTORE PUSH1 0x1 PUSH1 0x1 PUSH1 0xA0 SHL SUB PUSH32 0x0 DUP2 AND SWAP4 PUSH32 0x0 SWAP1 SWAP2 AND SWAP3 DUP8 SWAP1 ISZERO PUSH2 0x9A6 JUMPI JUMPDEST ISZERO PUSH2 0x945 JUMPI DUP5 MLOAD PUSH4 0x95EA7B3 PUSH1 0xE0 SHL SWAP2 DUP2 ADD SWAP2 SWAP1 SWAP2 MSTORE PUSH1 0x1 PUSH1 0x1 PUSH1 0xA0 SHL SUB DUP4 AND PUSH1 0x24 DUP3 ADD MSTORE PUSH1 0x44 DUP2 ADD DUP7 SWAP1 MSTORE DUP7 SWAP4 SWAP3 SWAP2 SWAP1 PUSH2 0x8F3 SWAP1 PUSH2 0x8ED DUP2 PUSH1 0x64 DUP2 ADD JUMPDEST SUB PUSH1 0x1F NOT DUP2 ADD DUP4 MSTORE DUP3 PUSH2 0x11BB JUMP JUMPDEST DUP5 PUSH2 0x1A94 JUMP JUMPDEST DUP2 EXTCODESIZE ISZERO PUSH2 0x941 JUMPI DUP4 PUSH1 0x84 SWAP3 DUP7 MLOAD SWAP8 DUP9 SWAP6 DUP7 SWAP5 PUSH4 0x617BA037 PUSH1 0xE0 SHL DUP7 MSTORE DUP6 ADD MSTORE PUSH1 0x24 DUP5 ADD MSTORE ADDRESS PUSH1 0x44 DUP5 ADD MSTORE DUP2 PUSH1 0x64 DUP5 ADD MSTORE GAS CALL SWAP1 DUP2 ISZERO PUSH2 0x698 JUMPI POP PUSH2 0x935 JUMPI POP DUP1 RETURN JUMPDEST PUSH2 0x93E SWAP1 PUSH2 0x1191 JUMP JUMPDEST DUP1 RETURN JUMPDEST DUP4 DUP1 REVERT JUMPDEST DUP5 MLOAD PUSH3 0x461BCD PUSH1 0xE5 SHL DUP2 MSTORE SWAP2 DUP3 ADD MSTORE PUSH1 0x36 PUSH1 0x24 DUP3 ADD MSTORE PUSH32 0x5361666545524332303A20617070726F76652066726F6D206E6F6E2D7A65726F PUSH1 0x44 DUP3 ADD MSTORE PUSH22 0x20746F206E6F6E2D7A65726F20616C6C6F77616E6365 PUSH1 0x50 SHL PUSH1 0x64 DUP3 ADD MSTORE PUSH1 0x84 SWAP2 POP REVERT JUMPDEST POP DUP5 MLOAD PUSH4 0x6EB1769F PUSH1 0xE1 SHL DUP2 MSTORE ADDRESS DUP4 DUP3 ADD MSTORE PUSH1 0x24 DUP2 ADD DUP5 SWAP1 MSTORE DUP2 DUP2 PUSH1 0x44 DUP2 DUP9 GAS STATICCALL SWAP1 DUP2 ISZERO PUSH2 0xA0D JUMPI DUP9 SWAP2 PUSH2 0x9DC JUMPI JUMPDEST POP ISZERO PUSH2 0x8A1 JUMP JUMPDEST SWAP1 POP DUP2 DUP2 DUP2 RETURNDATASIZE DUP4 GT PUSH2 0xA06 JUMPI JUMPDEST PUSH2 0x9F3 DUP2 DUP4 PUSH2 0x11BB JUMP JUMPDEST DUP2 ADD SUB SLT PUSH2 0xA02 JUMPI MLOAD CODESIZE PUSH2 0x9D5 JUMP JUMPDEST DUP8 DUP1 REVERT JUMPDEST POP RETURNDATASIZE PUSH2 0x9E9 JUMP JUMPDEST DUP7 MLOAD RETURNDATASIZE DUP11 DUP3 RETURNDATACOPY RETURNDATASIZE SWAP1 REVERT JUMPDEST DUP4 MLOAD PUSH3 0x461BCD PUSH1 0xE5 SHL DUP2 MSTORE SWAP1 DUP2 ADD DUP4 SWAP1 MSTORE PUSH1 0x16 PUSH1 0x24 DUP3 ADD MSTORE PUSH22 0x4465706F736974206C657373207468616E205A65726F PUSH1 0x50 SHL PUSH1 0x44 DUP3 ADD MSTORE PUSH1 0x64 SWAP1 REVERT JUMPDEST POP POP CALLVALUE PUSH2 0x2DC JUMPI DUP2 PUSH1 0x3 NOT CALLDATASIZE ADD SLT PUSH2 0x2DC JUMPI PUSH1 0x5 SLOAD SWAP1 MLOAD PUSH1 0x1 PUSH1 0x1 PUSH1 0xA0 SHL SUB SWAP1 SWAP2 AND DUP2 MSTORE PUSH1 0x20 SWAP1 RETURN JUMPDEST DUP4 CALLVALUE PUSH2 0x4A6 JUMPI DUP1 PUSH1 0x3 NOT CALLDATASIZE ADD SLT PUSH2 0x4A6 JUMPI PUSH2 0xA95 PUSH2 0x1840 JUMP JUMPDEST PUSH1 0x5 DUP1 SLOAD PUSH1 0x1 PUSH1 0x1 PUSH1 0xA0 SHL SUB NOT DUP2 AND SWAP1 SWAP2 SSTORE DUP2 SWAP1 PUSH1 0x1 PUSH1 0x1 PUSH1 0xA0 SHL SUB AND PUSH32 0x8BE0079C531659141344CD1FD0A4F28419497F9722A3DAAFE3B4186F6B6457E0 DUP3 DUP1 LOG3 DUP1 RETURN JUMPDEST POP SWAP2 CALLVALUE PUSH2 0x4A6 JUMPI DUP2 PUSH1 0x3 NOT CALLDATASIZE ADD SLT PUSH2 0x4A6 JUMPI POP PUSH2 0x31C PUSH1 0x20 SWAP3 PUSH2 0xAFA PUSH2 0x10FB JUMP JUMPDEST SWAP1 CALLDATALOAD PUSH2 0x12BD JUMP JUMPDEST PUSH2 0x10A3 JUMP JUMPDEST POP POP CALLVALUE PUSH2 0x2DC JUMPI PUSH1 0x20 CALLDATASIZE PUSH1 0x3 NOT ADD SLT PUSH2 0x2DC JUMPI PUSH1 0x20 SWAP1 PUSH2 0xB24 PUSH2 0x10E5 JUMP JUMPDEST POP PUSH2 0x31C PUSH2 0x1292 JUMP JUMPDEST POP POP CALLVALUE PUSH2 0x2DC JUMPI DUP1 PUSH1 0x3 NOT CALLDATASIZE ADD SLT PUSH2 0x2DC JUMPI PUSH2 0x50E PUSH1 0x20 SWAP3 PUSH2 0xB76 PUSH2 0xB50 PUSH2 0x10E5 JUMP JUMPDEST CALLER DUP4 MSTORE PUSH1 0x1 DUP7 MSTORE DUP5 DUP4 KECCAK256 PUSH1 0x1 PUSH1 0x1 PUSH1 0xA0 SHL SUB DUP3 AND DUP5 MSTORE DUP7 MSTORE SWAP2 DUP5 SWAP1 KECCAK256 SLOAD PUSH1 0x24 CALLDATALOAD SWAP1 PUSH2 0x126F JUMP JUMPDEST SWAP1 CALLER PUSH2 0x13EF JUMP JUMPDEST POP POP CALLVALUE PUSH2 0x2DC JUMPI DUP2 PUSH1 0x3 NOT CALLDATASIZE ADD SLT PUSH2 0x2DC JUMPI MLOAD PUSH32 0x0 PUSH1 0x1 PUSH1 0x1 PUSH1 0xA0 SHL SUB AND DUP2 MSTORE PUSH1 0x20 SWAP1 RETURN JUMPDEST POP POP CALLVALUE PUSH2 0x2DC JUMPI DUP2 PUSH1 0x3 NOT CALLDATASIZE ADD SLT PUSH2 0x2DC JUMPI PUSH1 0x20 SWAP1 MLOAD PUSH1 0xFF PUSH32 0x0 AND DUP2 MSTORE RETURN JUMPDEST POP SWAP2 SWAP1 CALLVALUE PUSH2 0x2DC JUMPI DUP1 PUSH1 0x3 NOT CALLDATASIZE ADD SLT PUSH2 0x2DC JUMPI DUP3 CALLDATALOAD SWAP1 PUSH2 0xC1D PUSH2 0x10FB JUMP JUMPDEST SWAP2 DUP1 ISZERO PUSH2 0xD9C JUMPI PUSH1 0x1 PUSH1 0x1 PUSH1 0xA0 SHL SUB SWAP1 DUP4 DUP3 AND ISZERO PUSH2 0xD6A JUMPI CALLER DUP6 MSTORE PUSH1 0x20 SWAP4 PUSH1 0x6 DUP6 MSTORE DUP2 DUP5 DUP8 KECCAK256 SLOAD LT PUSH2 0xD33 JUMPI PUSH2 0xC55 SWAP1 CALLER SWAP1 DUP4 PUSH2 0x1356 JUMP JUMPDEST POP CALLER DUP6 MSTORE PUSH1 0x6 DUP5 MSTORE DUP3 DUP6 KECCAK256 DUP1 SLOAD SWAP2 DUP3 SUB SWAP2 DUP3 GT PUSH2 0xD20 JUMPI SSTORE DUP2 MLOAD PUSH4 0x1A4CA37B PUSH1 0xE2 SHL DUP2 MSTORE PUSH32 0x0 DUP3 AND DUP2 DUP8 ADD MSTORE PUSH1 0x0 NOT PUSH1 0x24 DUP3 ADD MSTORE ADDRESS PUSH1 0x44 DUP3 ADD MSTORE SWAP2 SWAP1 DUP4 SWAP1 DUP4 SWAP1 PUSH1 0x64 SWAP1 DUP3 SWAP1 DUP9 SWAP1 PUSH32 0x0 AND GAS CALL SWAP1 DUP2 ISZERO PUSH2 0xD17 JUMPI POP PUSH2 0xCEF JUMPI DUP3 DUP1 RETURN JUMPDEST DUP2 RETURNDATASIZE DUP4 GT PUSH2 0xD10 JUMPI JUMPDEST PUSH2 0xD02 DUP2 DUP4 PUSH2 0x11BB JUMP JUMPDEST DUP2 ADD SUB SLT PUSH2 0x4A6 JUMPI DUP2 DUP1 DUP3 DUP1 RETURN JUMPDEST POP RETURNDATASIZE PUSH2 0xCF8 JUMP JUMPDEST MLOAD RETURNDATASIZE DUP6 DUP3 RETURNDATACOPY RETURNDATASIZE SWAP1 REVERT JUMPDEST PUSH4 0x4E487B71 PUSH1 0xE0 SHL DUP7 MSTORE PUSH1 0x11 DUP8 MSTORE PUSH1 0x24 DUP7 REVERT JUMPDEST DUP4 MLOAD PUSH3 0x461BCD PUSH1 0xE5 SHL DUP2 MSTORE DUP1 DUP9 ADD DUP7 SWAP1 MSTORE PUSH1 0x11 PUSH1 0x24 DUP3 ADD MSTORE PUSH17 0x4E6F7420656E6F75676820736861726573 PUSH1 0x78 SHL PUSH1 0x44 DUP3 ADD MSTORE PUSH1 0x64 SWAP1 REVERT JUMPDEST DUP3 MLOAD PUSH3 0x461BCD PUSH1 0xE5 SHL DUP2 MSTORE PUSH1 0x20 DUP2 DUP9 ADD MSTORE PUSH1 0xC PUSH1 0x24 DUP3 ADD MSTORE PUSH12 0x5A65726F2041646472657373 PUSH1 0xA0 SHL PUSH1 0x44 DUP3 ADD MSTORE PUSH1 0x64 SWAP1 REVERT JUMPDEST DUP2 MLOAD PUSH3 0x461BCD PUSH1 0xE5 SHL DUP2 MSTORE PUSH1 0x20 DUP2 DUP8 ADD MSTORE PUSH1 0x22 PUSH1 0x24 DUP3 ADD MSTORE PUSH32 0x7769746864726177206D7573742062652067726561746572207468616E205A65 PUSH1 0x44 DUP3 ADD MSTORE PUSH2 0x726F PUSH1 0xF0 SHL PUSH1 0x64 DUP3 ADD MSTORE PUSH1 0x84 SWAP1 REVERT JUMPDEST POP POP CALLVALUE PUSH2 0x2DC JUMPI PUSH1 0x60 CALLDATASIZE PUSH1 0x3 NOT ADD SLT PUSH2 0x2DC JUMPI PUSH1 0x20 SWAP1 PUSH2 0x50E PUSH2 0xE0B PUSH2 0x10E5 JUMP JUMPDEST PUSH2 0xE13 PUSH2 0x10FB JUMP JUMPDEST PUSH1 0x44 CALLDATALOAD SWAP2 PUSH2 0xE22 DUP4 CALLER DUP4 PUSH2 0x14F1 JUMP JUMPDEST PUSH2 0x1589 JUMP JUMPDEST POP POP CALLVALUE PUSH2 0x2DC JUMPI DUP2 PUSH1 0x3 NOT CALLDATASIZE ADD SLT PUSH2 0x2DC JUMPI PUSH1 0x20 SWAP1 PUSH1 0x2 SLOAD SWAP1 MLOAD SWAP1 DUP2 MSTORE RETURN JUMPDEST POP POP CALLVALUE PUSH2 0x2DC JUMPI DUP2 PUSH1 0x3 NOT CALLDATASIZE ADD SLT PUSH2 0x2DC JUMPI MLOAD PUSH32 0x0 PUSH1 0x1 PUSH1 0x1 PUSH1 0xA0 SHL SUB AND DUP2 MSTORE PUSH1 0x20 SWAP1 RETURN JUMPDEST POP POP CALLVALUE PUSH2 0x2DC JUMPI DUP2 PUSH1 0x3 NOT CALLDATASIZE ADD SLT PUSH2 0x2DC JUMPI MLOAD PUSH32 0x0 PUSH1 0x1 PUSH1 0x1 PUSH1 0xA0 SHL SUB AND DUP2 MSTORE PUSH1 0x20 SWAP1 RETURN JUMPDEST POP CALLVALUE PUSH2 0x285 JUMPI PUSH1 0x20 CALLDATASIZE PUSH1 0x3 NOT ADD SLT PUSH2 0x285 JUMPI PUSH1 0x2 SLOAD PUSH1 0x20 SWAP4 SWAP2 CALLDATALOAD SWAP2 DUP3 ISZERO SWAP1 DUP2 ISZERO PUSH2 0xF14 JUMPI JUMPDEST POP ISZERO PUSH2 0xF01 JUMPI POP SWAP1 MLOAD SWAP1 DUP2 MSTORE RETURN JUMPDEST SWAP1 PUSH2 0x376 SWAP2 PUSH2 0xF0E PUSH2 0x11DD JUMP JUMPDEST SWAP2 PUSH2 0x1A54 JUMP JUMPDEST DUP3 ISZERO SWAP2 POP PUSH2 0xEF3 JUMP JUMPDEST POP POP CALLVALUE PUSH2 0x2DC JUMPI DUP1 PUSH1 0x3 NOT CALLDATASIZE ADD SLT PUSH2 0x2DC JUMPI PUSH1 0x20 SWAP1 PUSH2 0x50E PUSH2 0xF3D PUSH2 0x10E5 JUMP JUMPDEST PUSH1 0x24 CALLDATALOAD SWAP1 CALLER PUSH2 0x13EF JUMP JUMPDEST POP SWAP1 CALLVALUE PUSH2 0x285 JUMPI DUP3 PUSH1 0x3 NOT CALLDATASIZE ADD SLT PUSH2 0x285 JUMPI DUP1 MLOAD SWAP2 DUP4 PUSH1 0x3 SLOAD SWAP1 PUSH1 0x1 SWAP1 DUP3 PUSH1 0x1 SHR SWAP3 PUSH1 0x1 DUP2 AND DUP1 ISZERO PUSH2 0x1033 JUMPI JUMPDEST PUSH1 0x20 SWAP6 DUP7 DUP7 LT DUP3 EQ PUSH2 0x1020 JUMPI POP DUP5 DUP9 MSTORE SWAP1 DUP2 ISZERO PUSH2 0xFFE JUMPI POP PUSH1 0x1 EQ PUSH2 0xFA5 JUMPI JUMPDEST PUSH2 0x712 DUP7 DUP7 PUSH2 0x708 DUP3 DUP12 SUB DUP4 PUSH2 0x11BB JUMP JUMPDEST SWAP3 SWAP6 POP PUSH1 0x3 DUP4 MSTORE PUSH32 0xC2575A0E9E593C00F959F8C92F12DB2869C3395A3B0502D05E2516446F71F85B JUMPDEST DUP3 DUP5 LT PUSH2 0xFEB JUMPI POP POP POP DUP3 PUSH2 0x712 SWAP5 PUSH2 0x708 SWAP3 DUP3 ADD ADD SWAP5 CODESIZE PUSH2 0xF94 JUMP JUMPDEST DUP1 SLOAD DUP7 DUP6 ADD DUP9 ADD MSTORE SWAP3 DUP7 ADD SWAP3 DUP2 ADD PUSH2 0xFCE JUMP JUMPDEST PUSH1 0xFF NOT AND DUP8 DUP7 ADD MSTORE POP POP POP ISZERO ISZERO PUSH1 0x5 SHL DUP4 ADD ADD SWAP3 POP PUSH2 0x708 DUP3 PUSH2 0x712 CODESIZE PUSH2 0xF94 JUMP JUMPDEST PUSH4 0x4E487B71 PUSH1 0xE0 SHL DUP5 MSTORE PUSH1 0x22 SWAP1 MSTORE PUSH1 0x24 DUP4 REVERT JUMPDEST SWAP4 PUSH1 0x7F AND SWAP4 PUSH2 0xF74 JUMP JUMPDEST POP POP CALLVALUE PUSH2 0x2DC JUMPI DUP2 PUSH1 0x3 NOT CALLDATASIZE ADD SLT PUSH2 0x2DC JUMPI PUSH1 0x20 SWAP1 PUSH2 0x31C PUSH2 0x11DD JUMP JUMPDEST PUSH1 0x20 DUP1 DUP3 MSTORE DUP3 MLOAD DUP2 DUP4 ADD DUP2 SWAP1 MSTORE SWAP1 SWAP4 SWAP3 PUSH1 0x0 JUMPDEST DUP3 DUP2 LT PUSH2 0x108F JUMPI POP POP PUSH1 0x40 SWAP3 SWAP4 POP PUSH1 0x0 DUP4 DUP3 DUP5 ADD ADD MSTORE PUSH1 0x1F DUP1 NOT SWAP2 ADD AND ADD ADD SWAP1 JUMP JUMPDEST DUP2 DUP2 ADD DUP7 ADD MLOAD DUP5 DUP3 ADD PUSH1 0x40 ADD MSTORE DUP6 ADD PUSH2 0x106D JUMP JUMPDEST CALLVALUE PUSH2 0x10E0 JUMPI PUSH1 0x20 CALLDATASIZE PUSH1 0x3 NOT ADD SLT PUSH2 0x10E0 JUMPI PUSH1 0x20 PUSH1 0x4 CALLDATALOAD PUSH1 0x2 SLOAD DUP1 ISZERO PUSH1 0x0 EQ PUSH2 0x10CF JUMPI POP JUMPDEST PUSH1 0x40 MLOAD SWAP1 DUP2 MSTORE RETURN JUMPDEST PUSH2 0x10DB SWAP2 PUSH2 0x370 PUSH2 0x11DD JUMP JUMPDEST PUSH2 0x10C7 JUMP JUMPDEST PUSH1 0x0 DUP1 REVERT JUMPDEST PUSH1 0x4 CALLDATALOAD SWAP1 PUSH1 0x1 PUSH1 0x1 PUSH1 0xA0 SHL SUB DUP3 AND DUP3 SUB PUSH2 0x10E0 JUMPI JUMP JUMPDEST PUSH1 0x24 CALLDATALOAD SWAP1 PUSH1 0x1 PUSH1 0x1 PUSH1 0xA0 SHL SUB DUP3 AND DUP3 SUB PUSH2 0x10E0 JUMPI JUMP JUMPDEST PUSH1 0x60 SWAP1 PUSH1 0x3 NOT ADD SLT PUSH2 0x10E0 JUMPI PUSH1 0x4 CALLDATALOAD SWAP1 PUSH1 0x1 PUSH1 0x1 PUSH1 0xA0 SHL SUB SWAP1 PUSH1 0x24 CALLDATALOAD DUP3 DUP2 AND DUP2 SUB PUSH2 0x10E0 JUMPI SWAP2 PUSH1 0x44 CALLDATALOAD SWAP1 DUP2 AND DUP2 SUB PUSH2 0x10E0 JUMPI SWAP1 JUMP JUMPDEST CALLVALUE PUSH2 0x10E0 JUMPI PUSH1 0x20 CALLDATASIZE PUSH1 0x3 NOT ADD SLT PUSH2 0x10E0 JUMPI PUSH1 0x20 PUSH1 0x4 CALLDATALOAD PUSH1 0x2 SLOAD DUP2 ISZERO DUP1 ISZERO PUSH2 0x1189 JUMPI JUMPDEST ISZERO PUSH2 0x1176 JUMPI POP PUSH1 0x40 MLOAD SWAP1 DUP2 MSTORE RETURN JUMPDEST SWAP1 PUSH2 0x10DB SWAP2 PUSH2 0x1183 PUSH2 0x11DD JUMP JUMPDEST SWAP2 PUSH2 0x1BDC JUMP JUMPDEST POP DUP1 ISZERO PUSH2 0x1168 JUMP JUMPDEST PUSH8 0xFFFFFFFFFFFFFFFF DUP2 GT PUSH2 0x11A5 JUMPI PUSH1 0x40 MSTORE JUMP JUMPDEST PUSH4 0x4E487B71 PUSH1 0xE0 SHL PUSH1 0x0 MSTORE PUSH1 0x41 PUSH1 0x4 MSTORE PUSH1 0x24 PUSH1 0x0 REVERT JUMPDEST SWAP1 PUSH1 0x1F DUP1 NOT SWAP2 ADD AND DUP2 ADD SWAP1 DUP2 LT PUSH8 0xFFFFFFFFFFFFFFFF DUP3 GT OR PUSH2 0x11A5 JUMPI PUSH1 0x40 MSTORE JUMP JUMPDEST PUSH1 0x40 MLOAD PUSH4 0x70A08231 PUSH1 0xE0 SHL DUP2 MSTORE ADDRESS PUSH1 0x4 DUP3 ADD MSTORE PUSH1 0x20 DUP2 PUSH1 0x24 DUP2 PUSH32 0x0 PUSH1 0x1 PUSH1 0x1 PUSH1 0xA0 SHL SUB AND GAS STATICCALL SWAP1 DUP2 ISZERO PUSH2 0x1263 JUMPI PUSH1 0x0 SWAP2 PUSH2 0x1234 JUMPI POP SWAP1 JUMP JUMPDEST SWAP1 POP PUSH1 0x20 DUP2 RETURNDATASIZE PUSH1 0x20 GT PUSH2 0x125B JUMPI JUMPDEST DUP2 PUSH2 0x124F PUSH1 0x20 SWAP4 DUP4 PUSH2 0x11BB JUMP JUMPDEST DUP2 ADD SUB SLT PUSH2 0x10E0 JUMPI MLOAD SWAP1 JUMP JUMPDEST RETURNDATASIZE SWAP2 POP PUSH2 0x1242 JUMP JUMPDEST PUSH1 0x40 MLOAD RETURNDATASIZE PUSH1 0x0 DUP3 RETURNDATACOPY RETURNDATASIZE SWAP1 REVERT JUMPDEST SWAP2 SWAP1 DUP3 ADD DUP1 SWAP3 GT PUSH2 0x127C JUMPI JUMP JUMPDEST PUSH4 0x4E487B71 PUSH1 0xE0 SHL PUSH1 0x0 MSTORE PUSH1 0x11 PUSH1 0x4 MSTORE PUSH1 0x24 PUSH1 0x0 REVERT JUMPDEST PUSH2 0x129A PUSH2 0x11DD JUMP JUMPDEST ISZERO DUP1 ISZERO SWAP1 PUSH2 0x12B3 JUMPI JUMPDEST ISZERO PUSH2 0x12AE JUMPI PUSH1 0x0 NOT SWAP1 JUMP JUMPDEST PUSH1 0x0 SWAP1 JUMP JUMPDEST POP PUSH1 0x2 SLOAD ISZERO PUSH2 0x12A3 JUMP JUMPDEST SWAP1 PUSH2 0x12C6 PUSH2 0x1292 JUMP JUMPDEST DUP3 GT PUSH2 0x1311 JUMPI PUSH2 0x12EB SWAP1 PUSH1 0x2 SLOAD DUP4 ISZERO DUP1 ISZERO PUSH2 0x1309 JUMPI JUMPDEST ISZERO PUSH2 0x12EE JUMPI POP DUP3 DUP4 SWAP2 CALLER PUSH2 0x16F7 JUMP JUMPDEST SWAP1 JUMP JUMPDEST PUSH2 0x1301 SWAP1 PUSH2 0x12FA PUSH2 0x11DD JUMP JUMPDEST SWAP1 DUP6 PUSH2 0x1BDC JUMP JUMPDEST SWAP3 DUP4 SWAP2 PUSH2 0x7E1 JUMP JUMPDEST POP DUP1 ISZERO PUSH2 0x12DC JUMP JUMPDEST PUSH1 0x40 MLOAD PUSH3 0x461BCD PUSH1 0xE5 SHL DUP2 MSTORE PUSH1 0x20 PUSH1 0x4 DUP3 ADD MSTORE PUSH1 0x1E PUSH1 0x24 DUP3 ADD MSTORE PUSH32 0x455243343632363A206465706F736974206D6F7265207468616E206D61780000 PUSH1 0x44 DUP3 ADD MSTORE PUSH1 0x64 SWAP1 REVERT JUMPDEST PUSH1 0x1 PUSH1 0x1 PUSH1 0xA0 SHL SUB DUP4 AND PUSH1 0x0 SWAP1 DUP2 MSTORE PUSH1 0x20 DUP2 SWAP1 MSTORE PUSH1 0x40 SWAP1 KECCAK256 SLOAD DUP2 GT PUSH2 0x13AA JUMPI PUSH2 0x12EB SWAP2 PUSH1 0x2 SLOAD DUP1 ISZERO PUSH1 0x0 EQ PUSH2 0x1390 JUMPI POP DUP2 SWAP4 DUP5 SWAP2 CALLER PUSH2 0x1898 JUMP JUMPDEST PUSH2 0x13A2 SWAP1 PUSH2 0x139C PUSH2 0x11DD JUMP JUMPDEST DUP5 PUSH2 0x1BDC JUMP JUMPDEST SWAP4 DUP5 SWAP2 PUSH2 0x429 JUMP JUMPDEST PUSH1 0x40 MLOAD PUSH3 0x461BCD PUSH1 0xE5 SHL DUP2 MSTORE PUSH1 0x20 PUSH1 0x4 DUP3 ADD MSTORE PUSH1 0x1D PUSH1 0x24 DUP3 ADD MSTORE PUSH32 0x455243343632363A2072656465656D206D6F7265207468616E206D6178000000 PUSH1 0x44 DUP3 ADD MSTORE PUSH1 0x64 SWAP1 REVERT JUMPDEST PUSH1 0x1 PUSH1 0x1 PUSH1 0xA0 SHL SUB SWAP1 DUP2 AND SWAP2 DUP3 ISZERO PUSH2 0x14A0 JUMPI AND SWAP2 DUP3 ISZERO PUSH2 0x1450 JUMPI PUSH1 0x20 PUSH32 0x8C5BE1E5EBEC7D5BD14F71427D1E84F3DD0314C0F7B2291E5B200AC8C7C3B925 SWAP2 DUP4 PUSH1 0x0 MSTORE PUSH1 0x1 DUP3 MSTORE PUSH1 0x40 PUSH1 0x0 KECCAK256 DUP6 PUSH1 0x0 MSTORE DUP3 MSTORE DUP1 PUSH1 0x40 PUSH1 0x0 KECCAK256 SSTORE PUSH1 0x40 MLOAD SWAP1 DUP2 MSTORE LOG3 JUMP JUMPDEST PUSH1 0x40 MLOAD PUSH3 0x461BCD PUSH1 0xE5 SHL DUP2 MSTORE PUSH1 0x20 PUSH1 0x4 DUP3 ADD MSTORE PUSH1 0x22 PUSH1 0x24 DUP3 ADD MSTORE PUSH32 0x45524332303A20617070726F766520746F20746865207A65726F206164647265 PUSH1 0x44 DUP3 ADD MSTORE PUSH2 0x7373 PUSH1 0xF0 SHL PUSH1 0x64 DUP3 ADD MSTORE PUSH1 0x84 SWAP1 REVERT JUMPDEST PUSH1 0x40 MLOAD PUSH3 0x461BCD PUSH1 0xE5 SHL DUP2 MSTORE PUSH1 0x20 PUSH1 0x4 DUP3 ADD MSTORE PUSH1 0x24 DUP1 DUP3 ADD MSTORE PUSH32 0x45524332303A20617070726F76652066726F6D20746865207A65726F20616464 PUSH1 0x44 DUP3 ADD MSTORE PUSH4 0x72657373 PUSH1 0xE0 SHL PUSH1 0x64 DUP3 ADD MSTORE PUSH1 0x84 SWAP1 REVERT JUMPDEST SWAP1 PUSH1 0x1 DUP1 PUSH1 0xA0 SHL SUB DUP1 DUP4 AND PUSH1 0x0 MSTORE PUSH1 0x1 PUSH1 0x20 MSTORE PUSH1 0x40 PUSH1 0x0 KECCAK256 SWAP1 DUP3 AND PUSH1 0x0 MSTORE PUSH1 0x20 MSTORE PUSH1 0x40 PUSH1 0x0 KECCAK256 SLOAD SWAP3 PUSH1 0x0 NOT DUP5 SUB PUSH2 0x1529 JUMPI JUMPDEST POP POP POP POP JUMP JUMPDEST DUP1 DUP5 LT PUSH2 0x1544 JUMPI PUSH2 0x153B SWAP4 SUB SWAP2 PUSH2 0x13EF JUMP JUMPDEST CODESIZE DUP1 DUP1 DUP1 PUSH2 0x1523 JUMP JUMPDEST PUSH1 0x40 MLOAD PUSH3 0x461BCD PUSH1 0xE5 SHL DUP2 MSTORE PUSH1 0x20 PUSH1 0x4 DUP3 ADD MSTORE PUSH1 0x1D PUSH1 0x24 DUP3 ADD MSTORE PUSH32 0x45524332303A20696E73756666696369656E7420616C6C6F77616E6365000000 PUSH1 0x44 DUP3 ADD MSTORE PUSH1 0x64 SWAP1 REVERT JUMPDEST PUSH1 0x1 PUSH1 0x1 PUSH1 0xA0 SHL SUB SWAP1 DUP2 AND SWAP2 DUP3 ISZERO PUSH2 0x16A4 JUMPI AND SWAP2 DUP3 ISZERO PUSH2 0x1653 JUMPI PUSH1 0x0 DUP3 DUP2 MSTORE DUP1 PUSH1 0x20 MSTORE PUSH1 0x40 DUP2 KECCAK256 SLOAD SWAP2 DUP1 DUP4 LT PUSH2 0x15FF JUMPI PUSH1 0x40 DUP3 DUP3 PUSH32 0xDDF252AD1BE2C89B69C2B068FC378DAA952BA7F163C4A11628F55A4DF523B3EF SWAP6 DUP8 PUSH1 0x20 SWAP7 MSTORE DUP3 DUP7 MSTORE SUB DUP3 DUP3 KECCAK256 SSTORE DUP7 DUP2 MSTORE KECCAK256 DUP2 DUP2 SLOAD ADD SWAP1 SSTORE PUSH1 0x40 MLOAD SWAP1 DUP2 MSTORE LOG3 JUMP JUMPDEST PUSH1 0x40 MLOAD PUSH3 0x461BCD PUSH1 0xE5 SHL DUP2 MSTORE PUSH1 0x20 PUSH1 0x4 DUP3 ADD MSTORE PUSH1 0x26 PUSH1 0x24 DUP3 ADD MSTORE PUSH32 0x45524332303A207472616E7366657220616D6F756E7420657863656564732062 PUSH1 0x44 DUP3 ADD MSTORE PUSH6 0x616C616E6365 PUSH1 0xD0 SHL PUSH1 0x64 DUP3 ADD MSTORE PUSH1 0x84 SWAP1 REVERT JUMPDEST PUSH1 0x40 MLOAD PUSH3 0x461BCD PUSH1 0xE5 SHL DUP2 MSTORE PUSH1 0x20 PUSH1 0x4 DUP3 ADD MSTORE PUSH1 0x23 PUSH1 0x24 DUP3 ADD MSTORE PUSH32 0x45524332303A207472616E7366657220746F20746865207A65726F2061646472 PUSH1 0x44 DUP3 ADD MSTORE PUSH3 0x657373 PUSH1 0xE8 SHL PUSH1 0x64 DUP3 ADD MSTORE PUSH1 0x84 SWAP1 REVERT JUMPDEST PUSH1 0x40 MLOAD PUSH3 0x461BCD PUSH1 0xE5 SHL DUP2 MSTORE PUSH1 0x20 PUSH1 0x4 DUP3 ADD MSTORE PUSH1 0x25 PUSH1 0x24 DUP3 ADD MSTORE PUSH32 0x45524332303A207472616E736665722066726F6D20746865207A65726F206164 PUSH1 0x44 DUP3 ADD MSTORE PUSH5 0x6472657373 PUSH1 0xD8 SHL PUSH1 0x64 DUP3 ADD MSTORE PUSH1 0x84 SWAP1 REVERT JUMPDEST PUSH1 0x40 DUP1 MLOAD PUSH4 0x23B872DD PUSH1 0xE0 SHL PUSH1 0x20 DUP3 ADD MSTORE PUSH1 0x1 PUSH1 0x1 PUSH1 0xA0 SHL SUB SWAP3 DUP4 AND PUSH1 0x24 DUP3 ADD DUP2 SWAP1 MSTORE ADDRESS PUSH1 0x44 DUP4 ADD MSTORE PUSH1 0x64 DUP1 DUP4 ADD DUP8 SWAP1 MSTORE DUP3 MSTORE SWAP5 SWAP2 SWAP4 SWAP2 SWAP3 SWAP2 SWAP1 PUSH1 0xA0 DUP2 ADD SWAP1 PUSH8 0xFFFFFFFFFFFFFFFF DUP3 GT DUP2 DUP4 LT OR PUSH2 0x11A5 JUMPI PUSH2 0x1775 SWAP2 DUP7 MSTORE PUSH32 0x0 PUSH2 0x1A94 JUMP JUMPDEST AND SWAP4 DUP5 ISZERO PUSH2 0x17FC JUMPI SWAP1 DUP2 PUSH2 0x17AD PUSH32 0xDCBC1C05240F31FF3AD067EF1EE35CE4997762752E3A095284754544F4C709D7 SWAP5 SWAP4 PUSH1 0x2 SLOAD PUSH2 0x126F JUMP JUMPDEST PUSH1 0x2 SSTORE DUP6 PUSH1 0x0 MSTORE PUSH1 0x0 PUSH1 0x20 MSTORE DUP3 PUSH1 0x0 KECCAK256 DUP2 DUP2 SLOAD ADD SWAP1 SSTORE DUP6 PUSH1 0x0 PUSH32 0xDDF252AD1BE2C89B69C2B068FC378DAA952BA7F163C4A11628F55A4DF523B3EF PUSH1 0x20 DUP7 MLOAD DUP6 DUP2 MSTORE LOG3 DUP3 MLOAD SWAP2 DUP3 MSTORE PUSH1 0x20 DUP3 ADD MSTORE LOG3 JUMP JUMPDEST DUP3 MLOAD PUSH3 0x461BCD PUSH1 0xE5 SHL DUP2 MSTORE PUSH1 0x20 PUSH1 0x4 DUP3 ADD MSTORE PUSH1 0x1F PUSH1 0x24 DUP3 ADD MSTORE PUSH32 0x45524332303A206D696E7420746F20746865207A65726F206164647265737300 PUSH1 0x44 DUP3 ADD MSTORE PUSH1 0x64 SWAP1 REVERT JUMPDEST PUSH1 0x5 SLOAD PUSH1 0x1 PUSH1 0x1 PUSH1 0xA0 SHL SUB AND CALLER SUB PUSH2 0x1854 JUMPI JUMP JUMPDEST PUSH1 0x64 PUSH1 0x40 MLOAD PUSH3 0x461BCD PUSH1 0xE5 SHL DUP2 MSTORE PUSH1 0x20 PUSH1 0x4 DUP3 ADD MSTORE PUSH1 0x20 PUSH1 0x24 DUP3 ADD MSTORE PUSH32 0x4F776E61626C653A2063616C6C6572206973206E6F7420746865206F776E6572 PUSH1 0x44 DUP3 ADD MSTORE REVERT JUMPDEST SWAP1 SWAP5 SWAP4 PUSH1 0x1 PUSH1 0x1 PUSH1 0xA0 SHL SUB DUP1 DUP5 AND SWAP5 SWAP4 DUP2 DUP5 AND SWAP4 DUP4 SWAP1 DUP8 DUP7 SUB PUSH2 0x1A43 JUMPI JUMPDEST POP POP POP DUP5 ISZERO PUSH2 0x19F4 JUMPI PUSH1 0x0 SWAP7 DUP6 DUP9 MSTORE PUSH1 0x20 SWAP3 DUP9 DUP5 MSTORE PUSH1 0x40 SWAP4 DUP5 DUP11 KECCAK256 SLOAD SWAP10 DUP3 DUP12 LT PUSH2 0x19A5 JUMPI DUP3 DUP10 SWAP11 SWAP12 PUSH32 0xFBDE797D201C681B91056529119E0B02407C7BB96A4A2C75C01FC9667232C8DB SWAP9 SWAP10 SWAP11 DUP4 MSTORE DUP3 DUP5 MSTORE SUB DUP7 DUP3 KECCAK256 SSTORE DUP3 PUSH1 0x2 SLOAD SUB PUSH1 0x2 SSTORE DUP10 PUSH32 0xDDF252AD1BE2C89B69C2B068FC378DAA952BA7F163C4A11628F55A4DF523B3EF DUP4 DUP9 MLOAD DUP7 DUP2 MSTORE LOG3 DUP5 MLOAD PUSH4 0xA9059CBB PUSH1 0xE0 SHL DUP3 DUP3 ADD MSTORE PUSH1 0x1 PUSH1 0x1 PUSH1 0xA0 SHL SUB DUP5 AND PUSH1 0x24 DUP3 ADD MSTORE PUSH1 0x44 DUP2 ADD DUP10 SWAP1 MSTORE PUSH2 0x1998 SWAP1 PUSH2 0x1972 DUP2 PUSH1 0x64 DUP2 ADD PUSH2 0x8DF JUMP JUMPDEST PUSH32 0x0 PUSH2 0x1A94 JUMP JUMPDEST DUP5 MLOAD SWAP8 DUP9 MSTORE DUP8 ADD MSTORE AND SWAP4 LOG4 JUMP JUMPDEST DUP6 MLOAD PUSH3 0x461BCD PUSH1 0xE5 SHL DUP2 MSTORE PUSH1 0x4 DUP2 ADD DUP4 SWAP1 MSTORE PUSH1 0x22 PUSH1 0x24 DUP3 ADD MSTORE PUSH32 0x45524332303A206275726E20616D6F756E7420657863656564732062616C616E PUSH1 0x44 DUP3 ADD MSTORE PUSH2 0x6365 PUSH1 0xF0 SHL PUSH1 0x64 DUP3 ADD MSTORE PUSH1 0x84 SWAP1 REVERT JUMPDEST PUSH1 0x40 MLOAD PUSH3 0x461BCD PUSH1 0xE5 SHL DUP2 MSTORE PUSH1 0x20 PUSH1 0x4 DUP3 ADD MSTORE PUSH1 0x21 PUSH1 0x24 DUP3 ADD MSTORE PUSH32 0x45524332303A206275726E2066726F6D20746865207A65726F20616464726573 PUSH1 0x44 DUP3 ADD MSTORE PUSH1 0x73 PUSH1 0xF8 SHL PUSH1 0x64 DUP3 ADD MSTORE PUSH1 0x84 SWAP1 REVERT JUMPDEST PUSH2 0x1A4C SWAP3 PUSH2 0x14F1 JUMP JUMPDEST CODESIZE DUP3 DUP2 PUSH2 0x18B6 JUMP JUMPDEST SWAP2 SWAP1 PUSH2 0x1A61 DUP3 DUP3 DUP6 PUSH2 0x1BDC JUMP JUMPDEST SWAP3 DUP3 ISZERO PUSH2 0x1A7E JUMPI MULMOD PUSH2 0x1A70 JUMPI SWAP1 JUMP JUMPDEST PUSH1 0x1 DUP2 ADD DUP1 SWAP2 GT PUSH2 0x127C JUMPI SWAP1 JUMP JUMPDEST PUSH4 0x4E487B71 PUSH1 0xE0 SHL PUSH1 0x0 MSTORE PUSH1 0x12 PUSH1 0x4 MSTORE PUSH1 0x24 PUSH1 0x0 REVERT JUMPDEST PUSH1 0x1 DUP1 PUSH1 0xA0 SHL SUB AND SWAP1 PUSH1 0x40 MLOAD PUSH1 0x40 DUP2 ADD PUSH8 0xFFFFFFFFFFFFFFFF SWAP1 DUP3 DUP2 LT DUP3 DUP3 GT OR PUSH2 0x11A5 JUMPI PUSH1 0x40 MSTORE PUSH1 0x20 SWAP4 DUP5 DUP4 MSTORE PUSH32 0x5361666545524332303A206C6F772D6C6576656C2063616C6C206661696C6564 DUP6 DUP5 ADD MSTORE PUSH1 0x0 DUP1 DUP6 DUP8 DUP3 SWAP8 MLOAD SWAP2 ADD DUP3 DUP6 GAS CALL SWAP1 RETURNDATASIZE ISZERO PUSH2 0x1BCD JUMPI RETURNDATASIZE SWAP3 DUP4 GT PUSH2 0x1BB9 JUMPI SWAP1 PUSH2 0x1B2F SWAP4 SWAP3 SWAP2 PUSH1 0x40 MLOAD SWAP3 PUSH2 0x1B22 DUP9 PUSH1 0x1F NOT PUSH1 0x1F DUP5 ADD AND ADD DUP6 PUSH2 0x11BB JUMP JUMPDEST DUP4 MSTORE RETURNDATASIZE DUP7 DUP9 DUP6 ADD RETURNDATACOPY PUSH2 0x1C60 JUMP JUMPDEST DUP1 MLOAD DUP1 PUSH2 0x1B3C JUMPI POP POP POP POP JUMP JUMPDEST DUP2 DUP5 SWAP2 DUP2 ADD SUB SLT PUSH2 0x2DC JUMPI DUP3 ADD MLOAD SWAP1 DUP2 ISZERO SWAP2 DUP3 ISZERO SUB PUSH2 0x4A6 JUMPI POP PUSH2 0x1B62 JUMPI DUP1 DUP1 DUP1 PUSH2 0x1523 JUMP JUMPDEST PUSH1 0x84 SWAP1 PUSH1 0x40 MLOAD SWAP1 PUSH3 0x461BCD PUSH1 0xE5 SHL DUP3 MSTORE PUSH1 0x4 DUP3 ADD MSTORE PUSH1 0x2A PUSH1 0x24 DUP3 ADD MSTORE PUSH32 0x5361666545524332303A204552433230206F7065726174696F6E20646964206E PUSH1 0x44 DUP3 ADD MSTORE PUSH10 0x1BDD081CDD58D8D95959 PUSH1 0xB2 SHL PUSH1 0x64 DUP3 ADD MSTORE REVERT JUMPDEST PUSH4 0x4E487B71 PUSH1 0xE0 SHL DUP6 MSTORE PUSH1 0x41 PUSH1 0x4 MSTORE PUSH1 0x24 DUP6 REVERT JUMPDEST SWAP1 PUSH2 0x1B2F SWAP4 SWAP3 POP PUSH1 0x60 SWAP2 PUSH2 0x1C60 JUMP JUMPDEST SWAP2 PUSH1 0x0 NOT DUP3 DUP5 MULMOD SWAP3 DUP3 DUP2 MUL SWAP3 DUP4 DUP1 DUP7 LT SWAP6 SUB SWAP5 DUP1 DUP7 SUB SWAP6 EQ PUSH2 0x1C52 JUMPI DUP5 DUP4 GT ISZERO PUSH2 0x10E0 JUMPI DUP3 SWAP2 MULMOD PUSH1 0x1 DUP3 NOT ADD DUP3 AND DUP1 SWAP3 DIV PUSH1 0x2 DUP1 DUP3 PUSH1 0x3 MUL XOR DUP1 DUP4 MUL DUP3 SUB MUL DUP1 DUP4 MUL DUP3 SUB MUL DUP1 DUP4 MUL DUP3 SUB MUL DUP1 DUP4 MUL DUP3 SUB MUL DUP1 DUP4 MUL DUP3 SUB MUL DUP1 SWAP3 MUL SWAP1 SUB MUL SWAP4 PUSH1 0x1 DUP4 DUP1 PUSH1 0x0 SUB DIV ADD SWAP1 DUP5 DUP4 GT SWAP1 SUB MUL SWAP3 SUB DIV OR MUL SWAP1 JUMP JUMPDEST POP POP DUP1 SWAP3 POP ISZERO PUSH2 0x1A7E JUMPI DIV SWAP1 JUMP JUMPDEST SWAP2 SWAP3 SWAP1 ISZERO PUSH2 0x1CC2 JUMPI POP DUP2 MLOAD ISZERO PUSH2 0x1C74 JUMPI POP SWAP1 JUMP JUMPDEST EXTCODESIZE ISZERO PUSH2 0x1C7D JUMPI SWAP1 JUMP JUMPDEST PUSH1 0x40 MLOAD PUSH3 0x461BCD PUSH1 0xE5 SHL DUP2 MSTORE PUSH1 0x20 PUSH1 0x4 DUP3 ADD MSTORE PUSH1 0x1D PUSH1 0x24 DUP3 ADD MSTORE PUSH32 0x416464726573733A2063616C6C20746F206E6F6E2D636F6E7472616374000000 PUSH1 0x44 DUP3 ADD MSTORE PUSH1 0x64 SWAP1 REVERT JUMPDEST DUP3 MLOAD SWAP1 SWAP2 POP ISZERO PUSH2 0x1CD5 JUMPI POP DUP1 MLOAD SWAP1 PUSH1 0x20 ADD REVERT JUMPDEST PUSH1 0x40 MLOAD PUSH3 0x461BCD PUSH1 0xE5 SHL DUP2 MSTORE SWAP1 DUP2 SWAP1 PUSH2 0x1CF1 SWAP1 PUSH1 0x4 DUP4 ADD PUSH2 0x105A JUMP JUMPDEST SUB SWAP1 REVERT INVALID LOG2 PUSH5 0x6970667358 0x22 SLT KECCAK256 CALLDATASIZE 0xFC MULMOD SLT SWAP15 PUSH15 0xEFE14382F2D289D2AB8D8A1904D1F3 DUP5 0xFC 0x25 0xAD POP 0xD3 DUP1 0xBC 0x2D 0xC4 COINBASE PUSH5 0x736F6C6343 STOP ADDMOD OR STOP CALLER "
        },
        "gasEstimates": {
          "creation": {
            "codeDepositCost": "1493400",
            "executionCost": "infinite",
            "totalCost": "infinite"
          },
          "external": {
            "_deposit(uint256)": "infinite",
            "_withdraw(uint256,address)": "infinite",
            "allowance(address,address)": "3330",
            "approve(address,uint256)": "24423",
            "asset()": "infinite",
            "balanceOf(address)": "2821",
            "convertToAssets(uint256)": "infinite",
            "convertToShares(uint256)": "infinite",
            "decimals()": "infinite",
            "decreaseAllowance(address,uint256)": "27174",
            "deposit(uint256,address)": "infinite",
            "ghoDebtToken()": "infinite",
            "increaseAllowance(address,uint256)": "26931",
            "lend(address,uint256)": "infinite",
            "maxDeposit(address)": "infinite",
            "maxMint(address)": "909",
            "maxRedeem(address)": "3178",
            "maxWithdraw(address)": "infinite",
            "mint(uint256,address)": "infinite",
            "name()": "infinite",
            "owner()": "2711",
            "pool()": "infinite",
            "previewDeposit(uint256)": "infinite",
            "previewMint(uint256)": "infinite",
            "previewRedeem(uint256)": "infinite",
            "previewWithdraw(uint256)": "infinite",
            "redeem(uint256,address,address)": "infinite",
            "renounceOwnership()": "28472",
            "shareHolders(address)": "2978",
            "symbol()": "infinite",
            "totalAssets()": "infinite",
            "totalAssetsOfUser(address)": "2731",
            "totalSupply()": "2426",
            "transfer(address,uint256)": "51337",
            "transferFrom(address,address,uint256)": "77496",
            "transferOwnership(address)": "28963",
            "withdraw(uint256,address,address)": "infinite"
          },
          "internal": {
            "_decimalsOffset()": "infinite"
          }
        },
        "methodIdentifiers": {
          "_deposit(uint256)": "9213b124",
          "_withdraw(uint256,address)": "293311ab",
          "allowance(address,address)": "dd62ed3e",
          "approve(address,uint256)": "095ea7b3",
          "asset()": "38d52e0f",
          "balanceOf(address)": "70a08231",
          "convertToAssets(uint256)": "07a2d13a",
          "convertToShares(uint256)": "c6e6f592",
          "decimals()": "313ce567",
          "decreaseAllowance(address,uint256)": "a457c2d7",
          "deposit(uint256,address)": "6e553f65",
          "ghoDebtToken()": "174ed542",
          "increaseAllowance(address,uint256)": "39509351",
          "lend(address,uint256)": "a2fb342d",
          "maxDeposit(address)": "402d267d",
          "maxMint(address)": "c63d75b6",
          "maxRedeem(address)": "d905777e",
          "maxWithdraw(address)": "ce96cb77",
          "mint(uint256,address)": "94bf804d",
          "name()": "06fdde03",
          "owner()": "8da5cb5b",
          "pool()": "16f0115b",
          "previewDeposit(uint256)": "ef8b30f7",
          "previewMint(uint256)": "b3d7f6b9",
          "previewRedeem(uint256)": "4cdad506",
          "previewWithdraw(uint256)": "0a28a477",
          "redeem(uint256,address,address)": "ba087652",
          "renounceOwnership()": "715018a6",
          "shareHolders(address)": "a8cc0aa4",
          "symbol()": "95d89b41",
          "totalAssets()": "01e1d114",
          "totalAssetsOfUser(address)": "45be27b6",
          "totalSupply()": "18160ddd",
          "transfer(address,uint256)": "a9059cbb",
          "transferFrom(address,address,uint256)": "23b872dd",
          "transferOwnership(address)": "f2fde38b",
          "withdraw(uint256,address,address)": "b460af94"
        }
      },
      "storageLayout": {
        "storage": [
          {
            "astId": 1547,
            "contract": "contracts/CirqlProtocol.sol:CirqlProtocol",
            "label": "_balances",
            "offset": 0,
            "slot": "0",
            "type": "t_mapping(t_address,t_uint256)"
          },
          {
            "astId": 1553,
            "contract": "contracts/CirqlProtocol.sol:CirqlProtocol",
            "label": "_allowances",
            "offset": 0,
            "slot": "1",
            "type": "t_mapping(t_address,t_mapping(t_address,t_uint256))"
          },
          {
            "astId": 1555,
            "contract": "contracts/CirqlProtocol.sol:CirqlProtocol",
            "label": "_totalSupply",
            "offset": 0,
            "slot": "2",
            "type": "t_uint256"
          },
          {
            "astId": 1557,
            "contract": "contracts/CirqlProtocol.sol:CirqlProtocol",
            "label": "_name",
            "offset": 0,
            "slot": "3",
            "type": "t_string_storage"
          },
          {
            "astId": 1559,
            "contract": "contracts/CirqlProtocol.sol:CirqlProtocol",
            "label": "_symbol",
            "offset": 0,
            "slot": "4",
            "type": "t_string_storage"
          },
          {
            "astId": 1258,
            "contract": "contracts/CirqlProtocol.sol:CirqlProtocol",
            "label": "_owner",
            "offset": 0,
            "slot": "5",
            "type": "t_address"
          },
          {
            "astId": 4454,
            "contract": "contracts/CirqlProtocol.sol:CirqlProtocol",
            "label": "shareHolders",
            "offset": 0,
            "slot": "6",
            "type": "t_mapping(t_address,t_uint256)"
          }
        ],
        "types": {
          "t_address": {
            "encoding": "inplace",
            "label": "address",
            "numberOfBytes": "20"
          },
          "t_mapping(t_address,t_mapping(t_address,t_uint256))": {
            "encoding": "mapping",
            "key": "t_address",
            "label": "mapping(address => mapping(address => uint256))",
            "numberOfBytes": "32",
            "value": "t_mapping(t_address,t_uint256)"
          },
          "t_mapping(t_address,t_uint256)": {
            "encoding": "mapping",
            "key": "t_address",
            "label": "mapping(address => uint256)",
            "numberOfBytes": "32",
            "value": "t_uint256"
          },
          "t_string_storage": {
            "encoding": "bytes",
            "label": "string",
            "numberOfBytes": "32"
          },
          "t_uint256": {
            "encoding": "inplace",
            "label": "uint256",
            "numberOfBytes": "32"
          }
        }
      },
      "userdoc": {
        "kind": "user",
        "methods": {
          "_deposit(uint256)": {
            "notice": "function to deposit assets and receive vault tokens in exchange"
          },
          "_withdraw(uint256,address)": {
            "notice": "Function to allow msg.sender to withdraw their deposit plus accrued interest"
          },
          "totalAssetsOfUser(address)": {
            "notice": "Returns the total balance of a user"
          }
        },
        "version": 1
      }
    }
  }
}