{
	"contracts/CirqlProtocol.sol": {
		"CirqlProtocol": {
			"abi": [
				{
					"inputs": [
						{
							"internalType": "address",
							"name": "_asset",
							"type": "address"
						},
						{
							"internalType": "address",
							"name": "_pool",
							"type": "address"
						},
						{
							"internalType": "address",
							"name": "_ghoToken",
							"type": "address"
						}
					],
					"stateMutability": "nonpayable",
					"type": "constructor"
				},
				{
					"inputs": [],
					"name": "asset",
					"outputs": [
						{
							"internalType": "contract IERC20",
							"name": "",
							"type": "address"
						}
					],
					"stateMutability": "view",
					"type": "function"
				},
				{
					"inputs": [
						{
							"internalType": "address",
							"name": "",
							"type": "address"
						}
					],
					"name": "balanceOf",
					"outputs": [
						{
							"internalType": "uint256",
							"name": "",
							"type": "uint256"
						}
					],
					"stateMutability": "view",
					"type": "function"
				},
				{
					"inputs": [
						{
							"internalType": "uint256",
							"name": "_amount",
							"type": "uint256"
						}
					],
					"name": "deposit",
					"outputs": [],
					"stateMutability": "nonpayable",
					"type": "function"
				},
				{
					"inputs": [],
					"name": "ghoToken",
					"outputs": [
						{
							"internalType": "contract IERC20",
							"name": "",
							"type": "address"
						}
					],
					"stateMutability": "view",
					"type": "function"
				},
				{
					"inputs": [],
					"name": "pool",
					"outputs": [
						{
							"internalType": "contract IPool",
							"name": "",
							"type": "address"
						}
					],
					"stateMutability": "view",
					"type": "function"
				},
				{
					"inputs": [],
					"name": "totalSupply",
					"outputs": [
						{
							"internalType": "uint256",
							"name": "",
							"type": "uint256"
						}
					],
					"stateMutability": "view",
					"type": "function"
				},
				{
					"inputs": [
						{
							"internalType": "uint256",
							"name": "_shares",
							"type": "uint256"
						}
					],
					"name": "withdraw",
					"outputs": [],
					"stateMutability": "nonpayable",
					"type": "function"
				}
			],
			"devdoc": {
				"kind": "dev",
				"methods": {},
				"version": 1
			},
			"evm": {
				"assembly": "    /* \"contracts/CirqlProtocol.sol\":189:1808  contract CirqlProtocol {... */\n  mstore(0x40, 0xe0)\n    /* \"contracts/CirqlProtocol.sol\":480:638  constructor(address _asset, address _pool, address _ghoToken) {... */\n  callvalue\n  dup1\n  iszero\n  tag_1\n  jumpi\n  0x00\n  dup1\n  revert\ntag_1:\n  pop\n  mload(0x40)\n  sub(codesize, bytecodeSize)\n  dup1\n  bytecodeSize\n  dup4\n  codecopy\n  dup2\n  dup2\n  add\n  0x40\n  mstore\n  dup2\n  add\n  swap1\n  tag_2\n  swap2\n  swap1\n  tag_3\n  jump\t// in\ntag_2:\n    /* \"contracts/CirqlProtocol.sol\":564:570  _asset */\n  dup3\n    /* \"contracts/CirqlProtocol.sol\":549:571  asset = IERC20(_asset) */\n  0xffffffffffffffffffffffffffffffffffffffff\n  and\n  0x80\n  dup2\n  0xffffffffffffffffffffffffffffffffffffffff\n  and\n  dup2\n  mstore\n  pop\n  pop\n    /* \"contracts/CirqlProtocol.sol\":591:596  _pool */\n  dup2\n    /* \"contracts/CirqlProtocol.sol\":578:597  pool = IPool(_pool) */\n  0xffffffffffffffffffffffffffffffffffffffff\n  and\n  0xc0\n  dup2\n  0xffffffffffffffffffffffffffffffffffffffff\n  and\n  dup2\n  mstore\n  pop\n  pop\n    /* \"contracts/CirqlProtocol.sol\":622:631  _ghoToken */\n  dup1\n    /* \"contracts/CirqlProtocol.sol\":604:632  ghoToken = IERC20(_ghoToken) */\n  0xffffffffffffffffffffffffffffffffffffffff\n  and\n  0xa0\n  dup2\n  0xffffffffffffffffffffffffffffffffffffffff\n  and\n  dup2\n  mstore\n  pop\n  pop\n    /* \"contracts/CirqlProtocol.sol\":480:638  constructor(address _asset, address _pool, address _ghoToken) {... */\n  pop\n  pop\n  pop\n    /* \"contracts/CirqlProtocol.sol\":189:1808  contract CirqlProtocol {... */\n  jump(tag_6)\n    /* \"#utility.yul\":88:205   */\ntag_8:\n    /* \"#utility.yul\":197:198   */\n  0x00\n    /* \"#utility.yul\":194:195   */\n  dup1\n    /* \"#utility.yul\":187:199   */\n  revert\n    /* \"#utility.yul\":334:460   */\ntag_10:\n    /* \"#utility.yul\":371:378   */\n  0x00\n    /* \"#utility.yul\":411:453   */\n  0xffffffffffffffffffffffffffffffffffffffff\n    /* \"#utility.yul\":404:409   */\n  dup3\n    /* \"#utility.yul\":400:454   */\n  and\n    /* \"#utility.yul\":389:454   */\n  swap1\n  pop\n    /* \"#utility.yul\":334:460   */\n  swap2\n  swap1\n  pop\n  jump\t// out\n    /* \"#utility.yul\":466:562   */\ntag_11:\n    /* \"#utility.yul\":503:510   */\n  0x00\n    /* \"#utility.yul\":532:556   */\n  tag_20\n    /* \"#utility.yul\":550:555   */\n  dup3\n    /* \"#utility.yul\":532:556   */\n  tag_10\n  jump\t// in\ntag_20:\n    /* \"#utility.yul\":521:556   */\n  swap1\n  pop\n    /* \"#utility.yul\":466:562   */\n  swap2\n  swap1\n  pop\n  jump\t// out\n    /* \"#utility.yul\":568:690   */\ntag_12:\n    /* \"#utility.yul\":641:665   */\n  tag_22\n    /* \"#utility.yul\":659:664   */\n  dup2\n    /* \"#utility.yul\":641:665   */\n  tag_11\n  jump\t// in\ntag_22:\n    /* \"#utility.yul\":634:639   */\n  dup2\n    /* \"#utility.yul\":631:666   */\n  eq\n    /* \"#utility.yul\":621:684   */\n  tag_23\n  jumpi\n    /* \"#utility.yul\":680:681   */\n  0x00\n    /* \"#utility.yul\":677:678   */\n  dup1\n    /* \"#utility.yul\":670:682   */\n  revert\n    /* \"#utility.yul\":621:684   */\ntag_23:\n    /* \"#utility.yul\":568:690   */\n  pop\n  jump\t// out\n    /* \"#utility.yul\":696:839   */\ntag_13:\n    /* \"#utility.yul\":753:758   */\n  0x00\n    /* \"#utility.yul\":784:790   */\n  dup2\n    /* \"#utility.yul\":778:791   */\n  mload\n    /* \"#utility.yul\":769:791   */\n  swap1\n  pop\n    /* \"#utility.yul\":800:833   */\n  tag_25\n    /* \"#utility.yul\":827:832   */\n  dup2\n    /* \"#utility.yul\":800:833   */\n  tag_12\n  jump\t// in\ntag_25:\n    /* \"#utility.yul\":696:839   */\n  swap3\n  swap2\n  pop\n  pop\n  jump\t// out\n    /* \"#utility.yul\":845:1508   */\ntag_3:\n    /* \"#utility.yul\":933:939   */\n  0x00\n    /* \"#utility.yul\":941:947   */\n  dup1\n    /* \"#utility.yul\":949:955   */\n  0x00\n    /* \"#utility.yul\":998:1000   */\n  0x60\n    /* \"#utility.yul\":986:995   */\n  dup5\n    /* \"#utility.yul\":977:984   */\n  dup7\n    /* \"#utility.yul\":973:996   */\n  sub\n    /* \"#utility.yul\":969:1001   */\n  slt\n    /* \"#utility.yul\":966:1085   */\n  iszero\n  tag_27\n  jumpi\n    /* \"#utility.yul\":1004:1083   */\n  tag_28\n  tag_8\n  jump\t// in\ntag_28:\n    /* \"#utility.yul\":966:1085   */\ntag_27:\n    /* \"#utility.yul\":1124:1125   */\n  0x00\n    /* \"#utility.yul\":1149:1213   */\n  tag_29\n    /* \"#utility.yul\":1205:1212   */\n  dup7\n    /* \"#utility.yul\":1196:1202   */\n  dup3\n    /* \"#utility.yul\":1185:1194   */\n  dup8\n    /* \"#utility.yul\":1181:1203   */\n  add\n    /* \"#utility.yul\":1149:1213   */\n  tag_13\n  jump\t// in\ntag_29:\n    /* \"#utility.yul\":1139:1213   */\n  swap4\n  pop\n    /* \"#utility.yul\":1095:1223   */\n  pop\n    /* \"#utility.yul\":1262:1264   */\n  0x20\n    /* \"#utility.yul\":1288:1352   */\n  tag_30\n    /* \"#utility.yul\":1344:1351   */\n  dup7\n    /* \"#utility.yul\":1335:1341   */\n  dup3\n    /* \"#utility.yul\":1324:1333   */\n  dup8\n    /* \"#utility.yul\":1320:1342   */\n  add\n    /* \"#utility.yul\":1288:1352   */\n  tag_13\n  jump\t// in\ntag_30:\n    /* \"#utility.yul\":1278:1352   */\n  swap3\n  pop\n    /* \"#utility.yul\":1233:1362   */\n  pop\n    /* \"#utility.yul\":1401:1403   */\n  0x40\n    /* \"#utility.yul\":1427:1491   */\n  tag_31\n    /* \"#utility.yul\":1483:1490   */\n  dup7\n    /* \"#utility.yul\":1474:1480   */\n  dup3\n    /* \"#utility.yul\":1463:1472   */\n  dup8\n    /* \"#utility.yul\":1459:1481   */\n  add\n    /* \"#utility.yul\":1427:1491   */\n  tag_13\n  jump\t// in\ntag_31:\n    /* \"#utility.yul\":1417:1491   */\n  swap2\n  pop\n    /* \"#utility.yul\":1372:1501   */\n  pop\n    /* \"#utility.yul\":845:1508   */\n  swap3\n  pop\n  swap3\n  pop\n  swap3\n  jump\t// out\n    /* \"contracts/CirqlProtocol.sol\":189:1808  contract CirqlProtocol {... */\ntag_6:\n  mload(0x80)\n  mload(0xa0)\n  mload(0xc0)\n  codecopy(0x00, dataOffset(sub_0), dataSize(sub_0))\n  0x00\n  assignImmutable(\"0xfb72c19603b99a84eb94b2a957c683e899e1d0f4b28e255e051e7f1b190ba3b8\")\n  0x00\n  assignImmutable(\"0x059720e82fda8e11338580d5bfef39c116fbdd4bf60743e75b94221573318122\")\n  0x00\n  assignImmutable(\"0x2e415caec8d91e458e1b9987576611b087b1a3cc6a704a90bb9e06da9759f8e6\")\n  return(0x00, dataSize(sub_0))\nstop\n\nsub_0: assembly {\n        /* \"contracts/CirqlProtocol.sol\":189:1808  contract CirqlProtocol {... */\n      mstore(0x40, 0x80)\n      callvalue\n      dup1\n      iszero\n      tag_1\n      jumpi\n      0x00\n      dup1\n      revert\n    tag_1:\n      pop\n      jumpi(tag_2, lt(calldatasize, 0x04))\n      shr(0xe0, calldataload(0x00))\n      dup1\n      0x38d52e0f\n      gt\n      tag_10\n      jumpi\n      dup1\n      0x38d52e0f\n      eq\n      tag_6\n      jumpi\n      dup1\n      0x5996db91\n      eq\n      tag_7\n      jumpi\n      dup1\n      0x70a08231\n      eq\n      tag_8\n      jumpi\n      dup1\n      0xb6b55f25\n      eq\n      tag_9\n      jumpi\n      jump(tag_2)\n    tag_10:\n      dup1\n      0x16f0115b\n      eq\n      tag_3\n      jumpi\n      dup1\n      0x18160ddd\n      eq\n      tag_4\n      jumpi\n      dup1\n      0x2e1a7d4d\n      eq\n      tag_5\n      jumpi\n    tag_2:\n      0x00\n      dup1\n      revert\n        /* \"contracts/CirqlProtocol.sol\":370:397  IPool public immutable pool */\n    tag_3:\n      tag_11\n      tag_12\n      jump\t// in\n    tag_11:\n      mload(0x40)\n      tag_13\n      swap2\n      swap1\n      tag_14\n      jump\t// in\n    tag_13:\n      mload(0x40)\n      dup1\n      swap2\n      sub\n      swap1\n      return\n        /* \"contracts/CirqlProtocol.sol\":404:427  uint public totalSupply */\n    tag_4:\n      tag_15\n      tag_16\n      jump\t// in\n    tag_15:\n      mload(0x40)\n      tag_17\n      swap2\n      swap1\n      tag_18\n      jump\t// in\n    tag_17:\n      mload(0x40)\n      dup1\n      swap2\n      sub\n      swap1\n      return\n        /* \"contracts/CirqlProtocol.sol\":1407:1805  function withdraw(uint _shares) external {... */\n    tag_5:\n      tag_19\n      0x04\n      dup1\n      calldatasize\n      sub\n      dup2\n      add\n      swap1\n      tag_20\n      swap2\n      swap1\n      tag_21\n      jump\t// in\n    tag_20:\n      tag_22\n      jump\t// in\n    tag_19:\n      stop\n        /* \"contracts/CirqlProtocol.sol\":262:291  IERC20 public immutable asset */\n    tag_6:\n      tag_23\n      tag_24\n      jump\t// in\n    tag_23:\n      mload(0x40)\n      tag_25\n      swap2\n      swap1\n      tag_26\n      jump\t// in\n    tag_25:\n      mload(0x40)\n      dup1\n      swap2\n      sub\n      swap1\n      return\n        /* \"contracts/CirqlProtocol.sol\":312:344  IERC20 public immutable ghoToken */\n    tag_7:\n      tag_27\n      tag_28\n      jump\t// in\n    tag_27:\n      mload(0x40)\n      tag_29\n      swap2\n      swap1\n      tag_26\n      jump\t// in\n    tag_29:\n      mload(0x40)\n      dup1\n      swap2\n      sub\n      swap1\n      return\n        /* \"contracts/CirqlProtocol.sol\":432:473  mapping(address => uint) public balanceOf */\n    tag_8:\n      tag_30\n      0x04\n      dup1\n      calldatasize\n      sub\n      dup2\n      add\n      swap1\n      tag_31\n      swap2\n      swap1\n      tag_32\n      jump\t// in\n    tag_31:\n      tag_33\n      jump\t// in\n    tag_30:\n      mload(0x40)\n      tag_34\n      swap2\n      swap1\n      tag_18\n      jump\t// in\n    tag_34:\n      mload(0x40)\n      dup1\n      swap2\n      sub\n      swap1\n      return\n        /* \"contracts/CirqlProtocol.sol\":894:1401  function deposit(uint _amount) external {... */\n    tag_9:\n      tag_35\n      0x04\n      dup1\n      calldatasize\n      sub\n      dup2\n      add\n      swap1\n      tag_36\n      swap2\n      swap1\n      tag_21\n      jump\t// in\n    tag_36:\n      tag_37\n      jump\t// in\n    tag_35:\n      stop\n        /* \"contracts/CirqlProtocol.sol\":370:397  IPool public immutable pool */\n    tag_12:\n      immutable(\"0xfb72c19603b99a84eb94b2a957c683e899e1d0f4b28e255e051e7f1b190ba3b8\")\n      dup2\n      jump\t// out\n        /* \"contracts/CirqlProtocol.sol\":404:427  uint public totalSupply */\n    tag_16:\n      sload(0x00)\n      dup2\n      jump\t// out\n        /* \"contracts/CirqlProtocol.sol\":1407:1805  function withdraw(uint _shares) external {... */\n    tag_22:\n        /* \"contracts/CirqlProtocol.sol\":1655:1666  uint amount */\n      0x00\n        /* \"contracts/CirqlProtocol.sol\":1714:1725  totalSupply */\n      dup1\n      sload\n        /* \"contracts/CirqlProtocol.sol\":1680:1685  asset */\n      immutable(\"0x2e415caec8d91e458e1b9987576611b087b1a3cc6a704a90bb9e06da9759f8e6\")\n        /* \"contracts/CirqlProtocol.sol\":1680:1695  asset.balanceOf */\n      0xffffffffffffffffffffffffffffffffffffffff\n      and\n      0x70a08231\n        /* \"contracts/CirqlProtocol.sol\":1704:1708  this */\n      address\n        /* \"contracts/CirqlProtocol.sol\":1680:1710  asset.balanceOf(address(this)) */\n      mload(0x40)\n      dup3\n      0xffffffff\n      and\n      0xe0\n      shl\n      dup2\n      mstore\n      0x04\n      add\n      tag_39\n      swap2\n      swap1\n      tag_40\n      jump\t// in\n    tag_39:\n      0x20\n      mload(0x40)\n      dup1\n      dup4\n      sub\n      dup2\n      dup7\n      gas\n      staticcall\n      iszero\n      dup1\n      iszero\n      tag_42\n      jumpi\n      returndatasize\n      0x00\n      dup1\n      returndatacopy\n      revert(0x00, returndatasize)\n    tag_42:\n      pop\n      pop\n      pop\n      pop\n      mload(0x40)\n      returndatasize\n      not(0x1f)\n      0x1f\n      dup3\n      add\n      and\n      dup3\n      add\n      dup1\n      0x40\n      mstore\n      pop\n      dup2\n      add\n      swap1\n      tag_43\n      swap2\n      swap1\n      tag_44\n      jump\t// in\n    tag_43:\n        /* \"contracts/CirqlProtocol.sol\":1670:1677  _shares */\n      dup4\n        /* \"contracts/CirqlProtocol.sol\":1670:1710  _shares * asset.balanceOf(address(this)) */\n      tag_45\n      swap2\n      swap1\n      tag_46\n      jump\t// in\n    tag_45:\n        /* \"contracts/CirqlProtocol.sol\":1669:1725  (_shares * asset.balanceOf(address(this))) / totalSupply */\n      tag_47\n      swap2\n      swap1\n      tag_48\n      jump\t// in\n    tag_47:\n        /* \"contracts/CirqlProtocol.sol\":1655:1725  uint amount = (_shares * asset.balanceOf(address(this))) / totalSupply */\n      swap1\n      pop\n        /* \"contracts/CirqlProtocol.sol\":1732:1758  _burn(msg.sender, _shares) */\n      tag_49\n        /* \"contracts/CirqlProtocol.sol\":1738:1748  msg.sender */\n      caller\n        /* \"contracts/CirqlProtocol.sol\":1750:1757  _shares */\n      dup4\n        /* \"contracts/CirqlProtocol.sol\":1732:1737  _burn */\n      tag_50\n        /* \"contracts/CirqlProtocol.sol\":1732:1758  _burn(msg.sender, _shares) */\n      jump\t// in\n    tag_49:\n        /* \"contracts/CirqlProtocol.sol\":1765:1770  asset */\n      immutable(\"0x2e415caec8d91e458e1b9987576611b087b1a3cc6a704a90bb9e06da9759f8e6\")\n        /* \"contracts/CirqlProtocol.sol\":1765:1779  asset.transfer */\n      0xffffffffffffffffffffffffffffffffffffffff\n      and\n      0xa9059cbb\n        /* \"contracts/CirqlProtocol.sol\":1780:1790  msg.sender */\n      caller\n        /* \"contracts/CirqlProtocol.sol\":1792:1798  amount */\n      dup4\n        /* \"contracts/CirqlProtocol.sol\":1765:1799  asset.transfer(msg.sender, amount) */\n      mload(0x40)\n      dup4\n      0xffffffff\n      and\n      0xe0\n      shl\n      dup2\n      mstore\n      0x04\n      add\n      tag_51\n      swap3\n      swap2\n      swap1\n      tag_52\n      jump\t// in\n    tag_51:\n      0x20\n      mload(0x40)\n      dup1\n      dup4\n      sub\n      dup2\n      0x00\n      dup8\n      gas\n      call\n      iszero\n      dup1\n      iszero\n      tag_54\n      jumpi\n      returndatasize\n      0x00\n      dup1\n      returndatacopy\n      revert(0x00, returndatasize)\n    tag_54:\n      pop\n      pop\n      pop\n      pop\n      mload(0x40)\n      returndatasize\n      not(0x1f)\n      0x1f\n      dup3\n      add\n      and\n      dup3\n      add\n      dup1\n      0x40\n      mstore\n      pop\n      dup2\n      add\n      swap1\n      tag_55\n      swap2\n      swap1\n      tag_56\n      jump\t// in\n    tag_55:\n      pop\n        /* \"contracts/CirqlProtocol.sol\":1448:1805  {... */\n      pop\n        /* \"contracts/CirqlProtocol.sol\":1407:1805  function withdraw(uint _shares) external {... */\n      pop\n      jump\t// out\n        /* \"contracts/CirqlProtocol.sol\":262:291  IERC20 public immutable asset */\n    tag_24:\n      immutable(\"0x2e415caec8d91e458e1b9987576611b087b1a3cc6a704a90bb9e06da9759f8e6\")\n      dup2\n      jump\t// out\n        /* \"contracts/CirqlProtocol.sol\":312:344  IERC20 public immutable ghoToken */\n    tag_28:\n      immutable(\"0x059720e82fda8e11338580d5bfef39c116fbdd4bf60743e75b94221573318122\")\n      dup2\n      jump\t// out\n        /* \"contracts/CirqlProtocol.sol\":432:473  mapping(address => uint) public balanceOf */\n    tag_33:\n      mstore(0x20, 0x01)\n      dup1\n      0x00\n      mstore\n      keccak256(0x00, 0x40)\n      0x00\n      swap2\n      pop\n      swap1\n      pop\n      sload\n      dup2\n      jump\t// out\n        /* \"contracts/CirqlProtocol.sol\":894:1401  function deposit(uint _amount) external {... */\n    tag_37:\n        /* \"contracts/CirqlProtocol.sol\":1140:1151  uint shares */\n      0x00\n        /* \"contracts/CirqlProtocol.sol\":1177:1178  0 */\n      dup1\n        /* \"contracts/CirqlProtocol.sol\":1162:1173  totalSupply */\n      sload(0x00)\n        /* \"contracts/CirqlProtocol.sol\":1162:1178  totalSupply == 0 */\n      sub\n        /* \"contracts/CirqlProtocol.sol\":1158:1301  if (totalSupply == 0) {... */\n      tag_58\n      jumpi\n        /* \"contracts/CirqlProtocol.sol\":1198:1205  _amount */\n      dup2\n        /* \"contracts/CirqlProtocol.sol\":1189:1205  shares = _amount */\n      swap1\n      pop\n        /* \"contracts/CirqlProtocol.sol\":1158:1301  if (totalSupply == 0) {... */\n      jump(tag_59)\n    tag_58:\n        /* \"contracts/CirqlProtocol.sol\":1263:1268  asset */\n      immutable(\"0x2e415caec8d91e458e1b9987576611b087b1a3cc6a704a90bb9e06da9759f8e6\")\n        /* \"contracts/CirqlProtocol.sol\":1263:1278  asset.balanceOf */\n      0xffffffffffffffffffffffffffffffffffffffff\n      and\n      0x70a08231\n        /* \"contracts/CirqlProtocol.sol\":1287:1291  this */\n      address\n        /* \"contracts/CirqlProtocol.sol\":1263:1293  asset.balanceOf(address(this)) */\n      mload(0x40)\n      dup3\n      0xffffffff\n      and\n      0xe0\n      shl\n      dup2\n      mstore\n      0x04\n      add\n      tag_60\n      swap2\n      swap1\n      tag_40\n      jump\t// in\n    tag_60:\n      0x20\n      mload(0x40)\n      dup1\n      dup4\n      sub\n      dup2\n      dup7\n      gas\n      staticcall\n      iszero\n      dup1\n      iszero\n      tag_62\n      jumpi\n      returndatasize\n      0x00\n      dup1\n      returndatacopy\n      revert(0x00, returndatasize)\n    tag_62:\n      pop\n      pop\n      pop\n      pop\n      mload(0x40)\n      returndatasize\n      not(0x1f)\n      0x1f\n      dup3\n      add\n      and\n      dup3\n      add\n      dup1\n      0x40\n      mstore\n      pop\n      dup2\n      add\n      swap1\n      tag_63\n      swap2\n      swap1\n      tag_44\n      jump\t// in\n    tag_63:\n        /* \"contracts/CirqlProtocol.sol\":1248:1259  totalSupply */\n      sload(0x00)\n        /* \"contracts/CirqlProtocol.sol\":1238:1245  _amount */\n      dup4\n        /* \"contracts/CirqlProtocol.sol\":1238:1259  _amount * totalSupply */\n      tag_64\n      swap2\n      swap1\n      tag_46\n      jump\t// in\n    tag_64:\n        /* \"contracts/CirqlProtocol.sol\":1237:1293  (_amount * totalSupply) / asset.balanceOf(address(this)) */\n      tag_65\n      swap2\n      swap1\n      tag_48\n      jump\t// in\n    tag_65:\n        /* \"contracts/CirqlProtocol.sol\":1228:1293  shares = (_amount * totalSupply) / asset.balanceOf(address(this)) */\n      swap1\n      pop\n        /* \"contracts/CirqlProtocol.sol\":1158:1301  if (totalSupply == 0) {... */\n    tag_59:\n        /* \"contracts/CirqlProtocol.sol\":1309:1334  _mint(msg.sender, shares) */\n      tag_66\n        /* \"contracts/CirqlProtocol.sol\":1315:1325  msg.sender */\n      caller\n        /* \"contracts/CirqlProtocol.sol\":1327:1333  shares */\n      dup3\n        /* \"contracts/CirqlProtocol.sol\":1309:1314  _mint */\n      tag_67\n        /* \"contracts/CirqlProtocol.sol\":1309:1334  _mint(msg.sender, shares) */\n      jump\t// in\n    tag_66:\n        /* \"contracts/CirqlProtocol.sol\":1341:1346  asset */\n      immutable(\"0x2e415caec8d91e458e1b9987576611b087b1a3cc6a704a90bb9e06da9759f8e6\")\n        /* \"contracts/CirqlProtocol.sol\":1341:1359  asset.transferFrom */\n      0xffffffffffffffffffffffffffffffffffffffff\n      and\n      0x23b872dd\n        /* \"contracts/CirqlProtocol.sol\":1360:1370  msg.sender */\n      caller\n        /* \"contracts/CirqlProtocol.sol\":1380:1384  this */\n      address\n        /* \"contracts/CirqlProtocol.sol\":1387:1394  _amount */\n      dup6\n        /* \"contracts/CirqlProtocol.sol\":1341:1395  asset.transferFrom(msg.sender, address(this), _amount) */\n      mload(0x40)\n      dup5\n      0xffffffff\n      and\n      0xe0\n      shl\n      dup2\n      mstore\n      0x04\n      add\n      tag_68\n      swap4\n      swap3\n      swap2\n      swap1\n      tag_69\n      jump\t// in\n    tag_68:\n      0x20\n      mload(0x40)\n      dup1\n      dup4\n      sub\n      dup2\n      0x00\n      dup8\n      gas\n      call\n      iszero\n      dup1\n      iszero\n      tag_71\n      jumpi\n      returndatasize\n      0x00\n      dup1\n      returndatacopy\n      revert(0x00, returndatasize)\n    tag_71:\n      pop\n      pop\n      pop\n      pop\n      mload(0x40)\n      returndatasize\n      not(0x1f)\n      0x1f\n      dup3\n      add\n      and\n      dup3\n      add\n      dup1\n      0x40\n      mstore\n      pop\n      dup2\n      add\n      swap1\n      tag_72\n      swap2\n      swap1\n      tag_56\n      jump\t// in\n    tag_72:\n      pop\n        /* \"contracts/CirqlProtocol.sol\":934:1401  {... */\n      pop\n        /* \"contracts/CirqlProtocol.sol\":894:1401  function deposit(uint _amount) external {... */\n      pop\n      jump\t// out\n        /* \"contracts/CirqlProtocol.sol\":767:888  function _burn(address _from, uint _shares) private {... */\n    tag_50:\n        /* \"contracts/CirqlProtocol.sol\":841:848  _shares */\n      dup1\n        /* \"contracts/CirqlProtocol.sol\":826:837  totalSupply */\n      0x00\n      dup1\n        /* \"contracts/CirqlProtocol.sol\":826:848  totalSupply -= _shares */\n      dup3\n      dup3\n      sload\n      tag_74\n      swap2\n      swap1\n      tag_75\n      jump\t// in\n    tag_74:\n      swap3\n      pop\n      pop\n      dup2\n      swap1\n      sstore\n      pop\n        /* \"contracts/CirqlProtocol.sol\":875:882  _shares */\n      dup1\n        /* \"contracts/CirqlProtocol.sol\":855:864  balanceOf */\n      0x01\n        /* \"contracts/CirqlProtocol.sol\":855:871  balanceOf[_from] */\n      0x00\n        /* \"contracts/CirqlProtocol.sol\":865:870  _from */\n      dup5\n        /* \"contracts/CirqlProtocol.sol\":855:871  balanceOf[_from] */\n      0xffffffffffffffffffffffffffffffffffffffff\n      and\n      0xffffffffffffffffffffffffffffffffffffffff\n      and\n      dup2\n      mstore\n      0x20\n      add\n      swap1\n      dup2\n      mstore\n      0x20\n      add\n      0x00\n      keccak256\n      0x00\n        /* \"contracts/CirqlProtocol.sol\":855:882  balanceOf[_from] -= _shares */\n      dup3\n      dup3\n      sload\n      tag_76\n      swap2\n      swap1\n      tag_75\n      jump\t// in\n    tag_76:\n      swap3\n      pop\n      pop\n      dup2\n      swap1\n      sstore\n      pop\n        /* \"contracts/CirqlProtocol.sol\":767:888  function _burn(address _from, uint _shares) private {... */\n      pop\n      pop\n      jump\t// out\n        /* \"contracts/CirqlProtocol.sol\":644:761  function _mint(address _to, uint _shares) private {... */\n    tag_67:\n        /* \"contracts/CirqlProtocol.sol\":716:723  _shares */\n      dup1\n        /* \"contracts/CirqlProtocol.sol\":701:712  totalSupply */\n      0x00\n      dup1\n        /* \"contracts/CirqlProtocol.sol\":701:723  totalSupply += _shares */\n      dup3\n      dup3\n      sload\n      tag_78\n      swap2\n      swap1\n      tag_79\n      jump\t// in\n    tag_78:\n      swap3\n      pop\n      pop\n      dup2\n      swap1\n      sstore\n      pop\n        /* \"contracts/CirqlProtocol.sol\":748:755  _shares */\n      dup1\n        /* \"contracts/CirqlProtocol.sol\":730:739  balanceOf */\n      0x01\n        /* \"contracts/CirqlProtocol.sol\":730:744  balanceOf[_to] */\n      0x00\n        /* \"contracts/CirqlProtocol.sol\":740:743  _to */\n      dup5\n        /* \"contracts/CirqlProtocol.sol\":730:744  balanceOf[_to] */\n      0xffffffffffffffffffffffffffffffffffffffff\n      and\n      0xffffffffffffffffffffffffffffffffffffffff\n      and\n      dup2\n      mstore\n      0x20\n      add\n      swap1\n      dup2\n      mstore\n      0x20\n      add\n      0x00\n      keccak256\n      0x00\n        /* \"contracts/CirqlProtocol.sol\":730:755  balanceOf[_to] += _shares */\n      dup3\n      dup3\n      sload\n      tag_80\n      swap2\n      swap1\n      tag_79\n      jump\t// in\n    tag_80:\n      swap3\n      pop\n      pop\n      dup2\n      swap1\n      sstore\n      pop\n        /* \"contracts/CirqlProtocol.sol\":644:761  function _mint(address _to, uint _shares) private {... */\n      pop\n      pop\n      jump\t// out\n        /* \"#utility.yul\":7:133   */\n    tag_81:\n        /* \"#utility.yul\":44:51   */\n      0x00\n        /* \"#utility.yul\":84:126   */\n      0xffffffffffffffffffffffffffffffffffffffff\n        /* \"#utility.yul\":77:82   */\n      dup3\n        /* \"#utility.yul\":73:127   */\n      and\n        /* \"#utility.yul\":62:127   */\n      swap1\n      pop\n        /* \"#utility.yul\":7:133   */\n      swap2\n      swap1\n      pop\n      jump\t// out\n        /* \"#utility.yul\":139:199   */\n    tag_82:\n        /* \"#utility.yul\":167:170   */\n      0x00\n        /* \"#utility.yul\":188:193   */\n      dup2\n        /* \"#utility.yul\":181:193   */\n      swap1\n      pop\n        /* \"#utility.yul\":139:199   */\n      swap2\n      swap1\n      pop\n      jump\t// out\n        /* \"#utility.yul\":205:347   */\n    tag_83:\n        /* \"#utility.yul\":255:264   */\n      0x00\n        /* \"#utility.yul\":288:341   */\n      tag_110\n        /* \"#utility.yul\":306:340   */\n      tag_111\n        /* \"#utility.yul\":315:339   */\n      tag_112\n        /* \"#utility.yul\":333:338   */\n      dup5\n        /* \"#utility.yul\":315:339   */\n      tag_81\n      jump\t// in\n    tag_112:\n        /* \"#utility.yul\":306:340   */\n      tag_82\n      jump\t// in\n    tag_111:\n        /* \"#utility.yul\":288:341   */\n      tag_81\n      jump\t// in\n    tag_110:\n        /* \"#utility.yul\":275:341   */\n      swap1\n      pop\n        /* \"#utility.yul\":205:347   */\n      swap2\n      swap1\n      pop\n      jump\t// out\n        /* \"#utility.yul\":353:479   */\n    tag_84:\n        /* \"#utility.yul\":403:412   */\n      0x00\n        /* \"#utility.yul\":436:473   */\n      tag_114\n        /* \"#utility.yul\":467:472   */\n      dup3\n        /* \"#utility.yul\":436:473   */\n      tag_83\n      jump\t// in\n    tag_114:\n        /* \"#utility.yul\":423:473   */\n      swap1\n      pop\n        /* \"#utility.yul\":353:479   */\n      swap2\n      swap1\n      pop\n      jump\t// out\n        /* \"#utility.yul\":485:624   */\n    tag_85:\n        /* \"#utility.yul\":548:557   */\n      0x00\n        /* \"#utility.yul\":581:618   */\n      tag_116\n        /* \"#utility.yul\":612:617   */\n      dup3\n        /* \"#utility.yul\":581:618   */\n      tag_84\n      jump\t// in\n    tag_116:\n        /* \"#utility.yul\":568:618   */\n      swap1\n      pop\n        /* \"#utility.yul\":485:624   */\n      swap2\n      swap1\n      pop\n      jump\t// out\n        /* \"#utility.yul\":630:787   */\n    tag_86:\n        /* \"#utility.yul\":730:780   */\n      tag_118\n        /* \"#utility.yul\":774:779   */\n      dup2\n        /* \"#utility.yul\":730:780   */\n      tag_85\n      jump\t// in\n    tag_118:\n        /* \"#utility.yul\":725:728   */\n      dup3\n        /* \"#utility.yul\":718:781   */\n      mstore\n        /* \"#utility.yul\":630:787   */\n      pop\n      pop\n      jump\t// out\n        /* \"#utility.yul\":793:1041   */\n    tag_14:\n        /* \"#utility.yul\":899:903   */\n      0x00\n        /* \"#utility.yul\":937:939   */\n      0x20\n        /* \"#utility.yul\":926:935   */\n      dup3\n        /* \"#utility.yul\":922:940   */\n      add\n        /* \"#utility.yul\":914:940   */\n      swap1\n      pop\n        /* \"#utility.yul\":950:1034   */\n      tag_120\n        /* \"#utility.yul\":1031:1032   */\n      0x00\n        /* \"#utility.yul\":1020:1029   */\n      dup4\n        /* \"#utility.yul\":1016:1033   */\n      add\n        /* \"#utility.yul\":1007:1013   */\n      dup5\n        /* \"#utility.yul\":950:1034   */\n      tag_86\n      jump\t// in\n    tag_120:\n        /* \"#utility.yul\":793:1041   */\n      swap3\n      swap2\n      pop\n      pop\n      jump\t// out\n        /* \"#utility.yul\":1047:1124   */\n    tag_87:\n        /* \"#utility.yul\":1084:1091   */\n      0x00\n        /* \"#utility.yul\":1113:1118   */\n      dup2\n        /* \"#utility.yul\":1102:1118   */\n      swap1\n      pop\n        /* \"#utility.yul\":1047:1124   */\n      swap2\n      swap1\n      pop\n      jump\t// out\n        /* \"#utility.yul\":1130:1248   */\n    tag_88:\n        /* \"#utility.yul\":1217:1241   */\n      tag_123\n        /* \"#utility.yul\":1235:1240   */\n      dup2\n        /* \"#utility.yul\":1217:1241   */\n      tag_87\n      jump\t// in\n    tag_123:\n        /* \"#utility.yul\":1212:1215   */\n      dup3\n        /* \"#utility.yul\":1205:1242   */\n      mstore\n        /* \"#utility.yul\":1130:1248   */\n      pop\n      pop\n      jump\t// out\n        /* \"#utility.yul\":1254:1476   */\n    tag_18:\n        /* \"#utility.yul\":1347:1351   */\n      0x00\n        /* \"#utility.yul\":1385:1387   */\n      0x20\n        /* \"#utility.yul\":1374:1383   */\n      dup3\n        /* \"#utility.yul\":1370:1388   */\n      add\n        /* \"#utility.yul\":1362:1388   */\n      swap1\n      pop\n        /* \"#utility.yul\":1398:1469   */\n      tag_125\n        /* \"#utility.yul\":1466:1467   */\n      0x00\n        /* \"#utility.yul\":1455:1464   */\n      dup4\n        /* \"#utility.yul\":1451:1468   */\n      add\n        /* \"#utility.yul\":1442:1448   */\n      dup5\n        /* \"#utility.yul\":1398:1469   */\n      tag_88\n      jump\t// in\n    tag_125:\n        /* \"#utility.yul\":1254:1476   */\n      swap3\n      swap2\n      pop\n      pop\n      jump\t// out\n        /* \"#utility.yul\":1563:1680   */\n    tag_90:\n        /* \"#utility.yul\":1672:1673   */\n      0x00\n        /* \"#utility.yul\":1669:1670   */\n      dup1\n        /* \"#utility.yul\":1662:1674   */\n      revert\n        /* \"#utility.yul\":1809:1931   */\n    tag_92:\n        /* \"#utility.yul\":1882:1906   */\n      tag_130\n        /* \"#utility.yul\":1900:1905   */\n      dup2\n        /* \"#utility.yul\":1882:1906   */\n      tag_87\n      jump\t// in\n    tag_130:\n        /* \"#utility.yul\":1875:1880   */\n      dup2\n        /* \"#utility.yul\":1872:1907   */\n      eq\n        /* \"#utility.yul\":1862:1925   */\n      tag_131\n      jumpi\n        /* \"#utility.yul\":1921:1922   */\n      0x00\n        /* \"#utility.yul\":1918:1919   */\n      dup1\n        /* \"#utility.yul\":1911:1923   */\n      revert\n        /* \"#utility.yul\":1862:1925   */\n    tag_131:\n        /* \"#utility.yul\":1809:1931   */\n      pop\n      jump\t// out\n        /* \"#utility.yul\":1937:2076   */\n    tag_93:\n        /* \"#utility.yul\":1983:1988   */\n      0x00\n        /* \"#utility.yul\":2021:2027   */\n      dup2\n        /* \"#utility.yul\":2008:2028   */\n      calldataload\n        /* \"#utility.yul\":1999:2028   */\n      swap1\n      pop\n        /* \"#utility.yul\":2037:2070   */\n      tag_133\n        /* \"#utility.yul\":2064:2069   */\n      dup2\n        /* \"#utility.yul\":2037:2070   */\n      tag_92\n      jump\t// in\n    tag_133:\n        /* \"#utility.yul\":1937:2076   */\n      swap3\n      swap2\n      pop\n      pop\n      jump\t// out\n        /* \"#utility.yul\":2082:2411   */\n    tag_21:\n        /* \"#utility.yul\":2141:2147   */\n      0x00\n        /* \"#utility.yul\":2190:2192   */\n      0x20\n        /* \"#utility.yul\":2178:2187   */\n      dup3\n        /* \"#utility.yul\":2169:2176   */\n      dup5\n        /* \"#utility.yul\":2165:2188   */\n      sub\n        /* \"#utility.yul\":2161:2193   */\n      slt\n        /* \"#utility.yul\":2158:2277   */\n      iszero\n      tag_135\n      jumpi\n        /* \"#utility.yul\":2196:2275   */\n      tag_136\n      tag_90\n      jump\t// in\n    tag_136:\n        /* \"#utility.yul\":2158:2277   */\n    tag_135:\n        /* \"#utility.yul\":2316:2317   */\n      0x00\n        /* \"#utility.yul\":2341:2394   */\n      tag_137\n        /* \"#utility.yul\":2386:2393   */\n      dup5\n        /* \"#utility.yul\":2377:2383   */\n      dup3\n        /* \"#utility.yul\":2366:2375   */\n      dup6\n        /* \"#utility.yul\":2362:2384   */\n      add\n        /* \"#utility.yul\":2341:2394   */\n      tag_93\n      jump\t// in\n    tag_137:\n        /* \"#utility.yul\":2331:2394   */\n      swap2\n      pop\n        /* \"#utility.yul\":2287:2404   */\n      pop\n        /* \"#utility.yul\":2082:2411   */\n      swap3\n      swap2\n      pop\n      pop\n      jump\t// out\n        /* \"#utility.yul\":2417:2558   */\n    tag_94:\n        /* \"#utility.yul\":2482:2491   */\n      0x00\n        /* \"#utility.yul\":2515:2552   */\n      tag_139\n        /* \"#utility.yul\":2546:2551   */\n      dup3\n        /* \"#utility.yul\":2515:2552   */\n      tag_84\n      jump\t// in\n    tag_139:\n        /* \"#utility.yul\":2502:2552   */\n      swap1\n      pop\n        /* \"#utility.yul\":2417:2558   */\n      swap2\n      swap1\n      pop\n      jump\t// out\n        /* \"#utility.yul\":2564:2725   */\n    tag_95:\n        /* \"#utility.yul\":2666:2718   */\n      tag_141\n        /* \"#utility.yul\":2712:2717   */\n      dup2\n        /* \"#utility.yul\":2666:2718   */\n      tag_94\n      jump\t// in\n    tag_141:\n        /* \"#utility.yul\":2661:2664   */\n      dup3\n        /* \"#utility.yul\":2654:2719   */\n      mstore\n        /* \"#utility.yul\":2564:2725   */\n      pop\n      pop\n      jump\t// out\n        /* \"#utility.yul\":2731:2983   */\n    tag_26:\n        /* \"#utility.yul\":2839:2843   */\n      0x00\n        /* \"#utility.yul\":2877:2879   */\n      0x20\n        /* \"#utility.yul\":2866:2875   */\n      dup3\n        /* \"#utility.yul\":2862:2880   */\n      add\n        /* \"#utility.yul\":2854:2880   */\n      swap1\n      pop\n        /* \"#utility.yul\":2890:2976   */\n      tag_143\n        /* \"#utility.yul\":2973:2974   */\n      0x00\n        /* \"#utility.yul\":2962:2971   */\n      dup4\n        /* \"#utility.yul\":2958:2975   */\n      add\n        /* \"#utility.yul\":2949:2955   */\n      dup5\n        /* \"#utility.yul\":2890:2976   */\n      tag_95\n      jump\t// in\n    tag_143:\n        /* \"#utility.yul\":2731:2983   */\n      swap3\n      swap2\n      pop\n      pop\n      jump\t// out\n        /* \"#utility.yul\":2989:3085   */\n    tag_96:\n        /* \"#utility.yul\":3026:3033   */\n      0x00\n        /* \"#utility.yul\":3055:3079   */\n      tag_145\n        /* \"#utility.yul\":3073:3078   */\n      dup3\n        /* \"#utility.yul\":3055:3079   */\n      tag_81\n      jump\t// in\n    tag_145:\n        /* \"#utility.yul\":3044:3079   */\n      swap1\n      pop\n        /* \"#utility.yul\":2989:3085   */\n      swap2\n      swap1\n      pop\n      jump\t// out\n        /* \"#utility.yul\":3091:3213   */\n    tag_97:\n        /* \"#utility.yul\":3164:3188   */\n      tag_147\n        /* \"#utility.yul\":3182:3187   */\n      dup2\n        /* \"#utility.yul\":3164:3188   */\n      tag_96\n      jump\t// in\n    tag_147:\n        /* \"#utility.yul\":3157:3162   */\n      dup2\n        /* \"#utility.yul\":3154:3189   */\n      eq\n        /* \"#utility.yul\":3144:3207   */\n      tag_148\n      jumpi\n        /* \"#utility.yul\":3203:3204   */\n      0x00\n        /* \"#utility.yul\":3200:3201   */\n      dup1\n        /* \"#utility.yul\":3193:3205   */\n      revert\n        /* \"#utility.yul\":3144:3207   */\n    tag_148:\n        /* \"#utility.yul\":3091:3213   */\n      pop\n      jump\t// out\n        /* \"#utility.yul\":3219:3358   */\n    tag_98:\n        /* \"#utility.yul\":3265:3270   */\n      0x00\n        /* \"#utility.yul\":3303:3309   */\n      dup2\n        /* \"#utility.yul\":3290:3310   */\n      calldataload\n        /* \"#utility.yul\":3281:3310   */\n      swap1\n      pop\n        /* \"#utility.yul\":3319:3352   */\n      tag_150\n        /* \"#utility.yul\":3346:3351   */\n      dup2\n        /* \"#utility.yul\":3319:3352   */\n      tag_97\n      jump\t// in\n    tag_150:\n        /* \"#utility.yul\":3219:3358   */\n      swap3\n      swap2\n      pop\n      pop\n      jump\t// out\n        /* \"#utility.yul\":3364:3693   */\n    tag_32:\n        /* \"#utility.yul\":3423:3429   */\n      0x00\n        /* \"#utility.yul\":3472:3474   */\n      0x20\n        /* \"#utility.yul\":3460:3469   */\n      dup3\n        /* \"#utility.yul\":3451:3458   */\n      dup5\n        /* \"#utility.yul\":3447:3470   */\n      sub\n        /* \"#utility.yul\":3443:3475   */\n      slt\n        /* \"#utility.yul\":3440:3559   */\n      iszero\n      tag_152\n      jumpi\n        /* \"#utility.yul\":3478:3557   */\n      tag_153\n      tag_90\n      jump\t// in\n    tag_153:\n        /* \"#utility.yul\":3440:3559   */\n    tag_152:\n        /* \"#utility.yul\":3598:3599   */\n      0x00\n        /* \"#utility.yul\":3623:3676   */\n      tag_154\n        /* \"#utility.yul\":3668:3675   */\n      dup5\n        /* \"#utility.yul\":3659:3665   */\n      dup3\n        /* \"#utility.yul\":3648:3657   */\n      dup6\n        /* \"#utility.yul\":3644:3666   */\n      add\n        /* \"#utility.yul\":3623:3676   */\n      tag_98\n      jump\t// in\n    tag_154:\n        /* \"#utility.yul\":3613:3676   */\n      swap2\n      pop\n        /* \"#utility.yul\":3569:3686   */\n      pop\n        /* \"#utility.yul\":3364:3693   */\n      swap3\n      swap2\n      pop\n      pop\n      jump\t// out\n        /* \"#utility.yul\":3699:3817   */\n    tag_99:\n        /* \"#utility.yul\":3786:3810   */\n      tag_156\n        /* \"#utility.yul\":3804:3809   */\n      dup2\n        /* \"#utility.yul\":3786:3810   */\n      tag_96\n      jump\t// in\n    tag_156:\n        /* \"#utility.yul\":3781:3784   */\n      dup3\n        /* \"#utility.yul\":3774:3811   */\n      mstore\n        /* \"#utility.yul\":3699:3817   */\n      pop\n      pop\n      jump\t// out\n        /* \"#utility.yul\":3823:4045   */\n    tag_40:\n        /* \"#utility.yul\":3916:3920   */\n      0x00\n        /* \"#utility.yul\":3954:3956   */\n      0x20\n        /* \"#utility.yul\":3943:3952   */\n      dup3\n        /* \"#utility.yul\":3939:3957   */\n      add\n        /* \"#utility.yul\":3931:3957   */\n      swap1\n      pop\n        /* \"#utility.yul\":3967:4038   */\n      tag_158\n        /* \"#utility.yul\":4035:4036   */\n      0x00\n        /* \"#utility.yul\":4024:4033   */\n      dup4\n        /* \"#utility.yul\":4020:4037   */\n      add\n        /* \"#utility.yul\":4011:4017   */\n      dup5\n        /* \"#utility.yul\":3967:4038   */\n      tag_99\n      jump\t// in\n    tag_158:\n        /* \"#utility.yul\":3823:4045   */\n      swap3\n      swap2\n      pop\n      pop\n      jump\t// out\n        /* \"#utility.yul\":4051:4194   */\n    tag_100:\n        /* \"#utility.yul\":4108:4113   */\n      0x00\n        /* \"#utility.yul\":4139:4145   */\n      dup2\n        /* \"#utility.yul\":4133:4146   */\n      mload\n        /* \"#utility.yul\":4124:4146   */\n      swap1\n      pop\n        /* \"#utility.yul\":4155:4188   */\n      tag_160\n        /* \"#utility.yul\":4182:4187   */\n      dup2\n        /* \"#utility.yul\":4155:4188   */\n      tag_92\n      jump\t// in\n    tag_160:\n        /* \"#utility.yul\":4051:4194   */\n      swap3\n      swap2\n      pop\n      pop\n      jump\t// out\n        /* \"#utility.yul\":4200:4551   */\n    tag_44:\n        /* \"#utility.yul\":4270:4276   */\n      0x00\n        /* \"#utility.yul\":4319:4321   */\n      0x20\n        /* \"#utility.yul\":4307:4316   */\n      dup3\n        /* \"#utility.yul\":4298:4305   */\n      dup5\n        /* \"#utility.yul\":4294:4317   */\n      sub\n        /* \"#utility.yul\":4290:4322   */\n      slt\n        /* \"#utility.yul\":4287:4406   */\n      iszero\n      tag_162\n      jumpi\n        /* \"#utility.yul\":4325:4404   */\n      tag_163\n      tag_90\n      jump\t// in\n    tag_163:\n        /* \"#utility.yul\":4287:4406   */\n    tag_162:\n        /* \"#utility.yul\":4445:4446   */\n      0x00\n        /* \"#utility.yul\":4470:4534   */\n      tag_164\n        /* \"#utility.yul\":4526:4533   */\n      dup5\n        /* \"#utility.yul\":4517:4523   */\n      dup3\n        /* \"#utility.yul\":4506:4515   */\n      dup6\n        /* \"#utility.yul\":4502:4524   */\n      add\n        /* \"#utility.yul\":4470:4534   */\n      tag_100\n      jump\t// in\n    tag_164:\n        /* \"#utility.yul\":4460:4534   */\n      swap2\n      pop\n        /* \"#utility.yul\":4416:4544   */\n      pop\n        /* \"#utility.yul\":4200:4551   */\n      swap3\n      swap2\n      pop\n      pop\n      jump\t// out\n        /* \"#utility.yul\":4557:4737   */\n    tag_101:\n        /* \"#utility.yul\":4605:4682   */\n      0x4e487b7100000000000000000000000000000000000000000000000000000000\n        /* \"#utility.yul\":4602:4603   */\n      0x00\n        /* \"#utility.yul\":4595:4683   */\n      mstore\n        /* \"#utility.yul\":4702:4706   */\n      0x11\n        /* \"#utility.yul\":4699:4700   */\n      0x04\n        /* \"#utility.yul\":4692:4707   */\n      mstore\n        /* \"#utility.yul\":4726:4730   */\n      0x24\n        /* \"#utility.yul\":4723:4724   */\n      0x00\n        /* \"#utility.yul\":4716:4731   */\n      revert\n        /* \"#utility.yul\":4743:5153   */\n    tag_46:\n        /* \"#utility.yul\":4783:4790   */\n      0x00\n        /* \"#utility.yul\":4806:4826   */\n      tag_167\n        /* \"#utility.yul\":4824:4825   */\n      dup3\n        /* \"#utility.yul\":4806:4826   */\n      tag_87\n      jump\t// in\n    tag_167:\n        /* \"#utility.yul\":4801:4826   */\n      swap2\n      pop\n        /* \"#utility.yul\":4840:4860   */\n      tag_168\n        /* \"#utility.yul\":4858:4859   */\n      dup4\n        /* \"#utility.yul\":4840:4860   */\n      tag_87\n      jump\t// in\n    tag_168:\n        /* \"#utility.yul\":4835:4860   */\n      swap3\n      pop\n        /* \"#utility.yul\":4895:4896   */\n      dup3\n        /* \"#utility.yul\":4892:4893   */\n      dup3\n        /* \"#utility.yul\":4888:4897   */\n      mul\n        /* \"#utility.yul\":4917:4947   */\n      tag_169\n        /* \"#utility.yul\":4935:4946   */\n      dup2\n        /* \"#utility.yul\":4917:4947   */\n      tag_87\n      jump\t// in\n    tag_169:\n        /* \"#utility.yul\":4906:4947   */\n      swap2\n      pop\n        /* \"#utility.yul\":5096:5097   */\n      dup3\n        /* \"#utility.yul\":5087:5094   */\n      dup3\n        /* \"#utility.yul\":5083:5098   */\n      div\n        /* \"#utility.yul\":5080:5081   */\n      dup5\n        /* \"#utility.yul\":5077:5099   */\n      eq\n        /* \"#utility.yul\":5057:5058   */\n      dup4\n        /* \"#utility.yul\":5050:5059   */\n      iszero\n        /* \"#utility.yul\":5030:5113   */\n      or\n        /* \"#utility.yul\":5007:5146   */\n      tag_170\n      jumpi\n        /* \"#utility.yul\":5126:5144   */\n      tag_171\n      tag_101\n      jump\t// in\n    tag_171:\n        /* \"#utility.yul\":5007:5146   */\n    tag_170:\n        /* \"#utility.yul\":4791:5153   */\n      pop\n        /* \"#utility.yul\":4743:5153   */\n      swap3\n      swap2\n      pop\n      pop\n      jump\t// out\n        /* \"#utility.yul\":5159:5339   */\n    tag_102:\n        /* \"#utility.yul\":5207:5284   */\n      0x4e487b7100000000000000000000000000000000000000000000000000000000\n        /* \"#utility.yul\":5204:5205   */\n      0x00\n        /* \"#utility.yul\":5197:5285   */\n      mstore\n        /* \"#utility.yul\":5304:5308   */\n      0x12\n        /* \"#utility.yul\":5301:5302   */\n      0x04\n        /* \"#utility.yul\":5294:5309   */\n      mstore\n        /* \"#utility.yul\":5328:5332   */\n      0x24\n        /* \"#utility.yul\":5325:5326   */\n      0x00\n        /* \"#utility.yul\":5318:5333   */\n      revert\n        /* \"#utility.yul\":5345:5530   */\n    tag_48:\n        /* \"#utility.yul\":5385:5386   */\n      0x00\n        /* \"#utility.yul\":5402:5422   */\n      tag_174\n        /* \"#utility.yul\":5420:5421   */\n      dup3\n        /* \"#utility.yul\":5402:5422   */\n      tag_87\n      jump\t// in\n    tag_174:\n        /* \"#utility.yul\":5397:5422   */\n      swap2\n      pop\n        /* \"#utility.yul\":5436:5456   */\n      tag_175\n        /* \"#utility.yul\":5454:5455   */\n      dup4\n        /* \"#utility.yul\":5436:5456   */\n      tag_87\n      jump\t// in\n    tag_175:\n        /* \"#utility.yul\":5431:5456   */\n      swap3\n      pop\n        /* \"#utility.yul\":5475:5476   */\n      dup3\n        /* \"#utility.yul\":5465:5500   */\n      tag_176\n      jumpi\n        /* \"#utility.yul\":5480:5498   */\n      tag_177\n      tag_102\n      jump\t// in\n    tag_177:\n        /* \"#utility.yul\":5465:5500   */\n    tag_176:\n        /* \"#utility.yul\":5522:5523   */\n      dup3\n        /* \"#utility.yul\":5519:5520   */\n      dup3\n        /* \"#utility.yul\":5515:5524   */\n      div\n        /* \"#utility.yul\":5510:5524   */\n      swap1\n      pop\n        /* \"#utility.yul\":5345:5530   */\n      swap3\n      swap2\n      pop\n      pop\n      jump\t// out\n        /* \"#utility.yul\":5536:5868   */\n    tag_52:\n        /* \"#utility.yul\":5657:5661   */\n      0x00\n        /* \"#utility.yul\":5695:5697   */\n      0x40\n        /* \"#utility.yul\":5684:5693   */\n      dup3\n        /* \"#utility.yul\":5680:5698   */\n      add\n        /* \"#utility.yul\":5672:5698   */\n      swap1\n      pop\n        /* \"#utility.yul\":5708:5779   */\n      tag_179\n        /* \"#utility.yul\":5776:5777   */\n      0x00\n        /* \"#utility.yul\":5765:5774   */\n      dup4\n        /* \"#utility.yul\":5761:5778   */\n      add\n        /* \"#utility.yul\":5752:5758   */\n      dup6\n        /* \"#utility.yul\":5708:5779   */\n      tag_99\n      jump\t// in\n    tag_179:\n        /* \"#utility.yul\":5789:5861   */\n      tag_180\n        /* \"#utility.yul\":5857:5859   */\n      0x20\n        /* \"#utility.yul\":5846:5855   */\n      dup4\n        /* \"#utility.yul\":5842:5860   */\n      add\n        /* \"#utility.yul\":5833:5839   */\n      dup5\n        /* \"#utility.yul\":5789:5861   */\n      tag_88\n      jump\t// in\n    tag_180:\n        /* \"#utility.yul\":5536:5868   */\n      swap4\n      swap3\n      pop\n      pop\n      pop\n      jump\t// out\n        /* \"#utility.yul\":5874:5964   */\n    tag_103:\n        /* \"#utility.yul\":5908:5915   */\n      0x00\n        /* \"#utility.yul\":5951:5956   */\n      dup2\n        /* \"#utility.yul\":5944:5957   */\n      iszero\n        /* \"#utility.yul\":5937:5958   */\n      iszero\n        /* \"#utility.yul\":5926:5958   */\n      swap1\n      pop\n        /* \"#utility.yul\":5874:5964   */\n      swap2\n      swap1\n      pop\n      jump\t// out\n        /* \"#utility.yul\":5970:6086   */\n    tag_104:\n        /* \"#utility.yul\":6040:6061   */\n      tag_183\n        /* \"#utility.yul\":6055:6060   */\n      dup2\n        /* \"#utility.yul\":6040:6061   */\n      tag_103\n      jump\t// in\n    tag_183:\n        /* \"#utility.yul\":6033:6038   */\n      dup2\n        /* \"#utility.yul\":6030:6062   */\n      eq\n        /* \"#utility.yul\":6020:6080   */\n      tag_184\n      jumpi\n        /* \"#utility.yul\":6076:6077   */\n      0x00\n        /* \"#utility.yul\":6073:6074   */\n      dup1\n        /* \"#utility.yul\":6066:6078   */\n      revert\n        /* \"#utility.yul\":6020:6080   */\n    tag_184:\n        /* \"#utility.yul\":5970:6086   */\n      pop\n      jump\t// out\n        /* \"#utility.yul\":6092:6229   */\n    tag_105:\n        /* \"#utility.yul\":6146:6151   */\n      0x00\n        /* \"#utility.yul\":6177:6183   */\n      dup2\n        /* \"#utility.yul\":6171:6184   */\n      mload\n        /* \"#utility.yul\":6162:6184   */\n      swap1\n      pop\n        /* \"#utility.yul\":6193:6223   */\n      tag_186\n        /* \"#utility.yul\":6217:6222   */\n      dup2\n        /* \"#utility.yul\":6193:6223   */\n      tag_104\n      jump\t// in\n    tag_186:\n        /* \"#utility.yul\":6092:6229   */\n      swap3\n      swap2\n      pop\n      pop\n      jump\t// out\n        /* \"#utility.yul\":6235:6580   */\n    tag_56:\n        /* \"#utility.yul\":6302:6308   */\n      0x00\n        /* \"#utility.yul\":6351:6353   */\n      0x20\n        /* \"#utility.yul\":6339:6348   */\n      dup3\n        /* \"#utility.yul\":6330:6337   */\n      dup5\n        /* \"#utility.yul\":6326:6349   */\n      sub\n        /* \"#utility.yul\":6322:6354   */\n      slt\n        /* \"#utility.yul\":6319:6438   */\n      iszero\n      tag_188\n      jumpi\n        /* \"#utility.yul\":6357:6436   */\n      tag_189\n      tag_90\n      jump\t// in\n    tag_189:\n        /* \"#utility.yul\":6319:6438   */\n    tag_188:\n        /* \"#utility.yul\":6477:6478   */\n      0x00\n        /* \"#utility.yul\":6502:6563   */\n      tag_190\n        /* \"#utility.yul\":6555:6562   */\n      dup5\n        /* \"#utility.yul\":6546:6552   */\n      dup3\n        /* \"#utility.yul\":6535:6544   */\n      dup6\n        /* \"#utility.yul\":6531:6553   */\n      add\n        /* \"#utility.yul\":6502:6563   */\n      tag_105\n      jump\t// in\n    tag_190:\n        /* \"#utility.yul\":6492:6563   */\n      swap2\n      pop\n        /* \"#utility.yul\":6448:6573   */\n      pop\n        /* \"#utility.yul\":6235:6580   */\n      swap3\n      swap2\n      pop\n      pop\n      jump\t// out\n        /* \"#utility.yul\":6586:7028   */\n    tag_69:\n        /* \"#utility.yul\":6735:6739   */\n      0x00\n        /* \"#utility.yul\":6773:6775   */\n      0x60\n        /* \"#utility.yul\":6762:6771   */\n      dup3\n        /* \"#utility.yul\":6758:6776   */\n      add\n        /* \"#utility.yul\":6750:6776   */\n      swap1\n      pop\n        /* \"#utility.yul\":6786:6857   */\n      tag_192\n        /* \"#utility.yul\":6854:6855   */\n      0x00\n        /* \"#utility.yul\":6843:6852   */\n      dup4\n        /* \"#utility.yul\":6839:6856   */\n      add\n        /* \"#utility.yul\":6830:6836   */\n      dup7\n        /* \"#utility.yul\":6786:6857   */\n      tag_99\n      jump\t// in\n    tag_192:\n        /* \"#utility.yul\":6867:6939   */\n      tag_193\n        /* \"#utility.yul\":6935:6937   */\n      0x20\n        /* \"#utility.yul\":6924:6933   */\n      dup4\n        /* \"#utility.yul\":6920:6938   */\n      add\n        /* \"#utility.yul\":6911:6917   */\n      dup6\n        /* \"#utility.yul\":6867:6939   */\n      tag_99\n      jump\t// in\n    tag_193:\n        /* \"#utility.yul\":6949:7021   */\n      tag_194\n        /* \"#utility.yul\":7017:7019   */\n      0x40\n        /* \"#utility.yul\":7006:7015   */\n      dup4\n        /* \"#utility.yul\":7002:7020   */\n      add\n        /* \"#utility.yul\":6993:6999   */\n      dup5\n        /* \"#utility.yul\":6949:7021   */\n      tag_88\n      jump\t// in\n    tag_194:\n        /* \"#utility.yul\":6586:7028   */\n      swap5\n      swap4\n      pop\n      pop\n      pop\n      pop\n      jump\t// out\n        /* \"#utility.yul\":7034:7228   */\n    tag_75:\n        /* \"#utility.yul\":7074:7078   */\n      0x00\n        /* \"#utility.yul\":7094:7114   */\n      tag_196\n        /* \"#utility.yul\":7112:7113   */\n      dup3\n        /* \"#utility.yul\":7094:7114   */\n      tag_87\n      jump\t// in\n    tag_196:\n        /* \"#utility.yul\":7089:7114   */\n      swap2\n      pop\n        /* \"#utility.yul\":7128:7148   */\n      tag_197\n        /* \"#utility.yul\":7146:7147   */\n      dup4\n        /* \"#utility.yul\":7128:7148   */\n      tag_87\n      jump\t// in\n    tag_197:\n        /* \"#utility.yul\":7123:7148   */\n      swap3\n      pop\n        /* \"#utility.yul\":7172:7173   */\n      dup3\n        /* \"#utility.yul\":7169:7170   */\n      dup3\n        /* \"#utility.yul\":7165:7174   */\n      sub\n        /* \"#utility.yul\":7157:7174   */\n      swap1\n      pop\n        /* \"#utility.yul\":7196:7197   */\n      dup2\n        /* \"#utility.yul\":7190:7194   */\n      dup2\n        /* \"#utility.yul\":7187:7198   */\n      gt\n        /* \"#utility.yul\":7184:7221   */\n      iszero\n      tag_198\n      jumpi\n        /* \"#utility.yul\":7201:7219   */\n      tag_199\n      tag_101\n      jump\t// in\n    tag_199:\n        /* \"#utility.yul\":7184:7221   */\n    tag_198:\n        /* \"#utility.yul\":7034:7228   */\n      swap3\n      swap2\n      pop\n      pop\n      jump\t// out\n        /* \"#utility.yul\":7234:7425   */\n    tag_79:\n        /* \"#utility.yul\":7274:7277   */\n      0x00\n        /* \"#utility.yul\":7293:7313   */\n      tag_201\n        /* \"#utility.yul\":7311:7312   */\n      dup3\n        /* \"#utility.yul\":7293:7313   */\n      tag_87\n      jump\t// in\n    tag_201:\n        /* \"#utility.yul\":7288:7313   */\n      swap2\n      pop\n        /* \"#utility.yul\":7327:7347   */\n      tag_202\n        /* \"#utility.yul\":7345:7346   */\n      dup4\n        /* \"#utility.yul\":7327:7347   */\n      tag_87\n      jump\t// in\n    tag_202:\n        /* \"#utility.yul\":7322:7347   */\n      swap3\n      pop\n        /* \"#utility.yul\":7370:7371   */\n      dup3\n        /* \"#utility.yul\":7367:7368   */\n      dup3\n        /* \"#utility.yul\":7363:7372   */\n      add\n        /* \"#utility.yul\":7356:7372   */\n      swap1\n      pop\n        /* \"#utility.yul\":7391:7394   */\n      dup1\n        /* \"#utility.yul\":7388:7389   */\n      dup3\n        /* \"#utility.yul\":7385:7395   */\n      gt\n        /* \"#utility.yul\":7382:7418   */\n      iszero\n      tag_203\n      jumpi\n        /* \"#utility.yul\":7398:7416   */\n      tag_204\n      tag_101\n      jump\t// in\n    tag_204:\n        /* \"#utility.yul\":7382:7418   */\n    tag_203:\n        /* \"#utility.yul\":7234:7425   */\n      swap3\n      swap2\n      pop\n      pop\n      jump\t// out\n\n    auxdata: 0xa26469706673582212207b5bca257c91fbd933f8df5ade45feda4307ba5c27fbcf3b18a2dce885ea5a9564736f6c63430008170033\n}\n",
				"bytecode": {
					"linkReferences": {},
					"object": "60e060405234801561000f575f80fd5b50604051610b9b380380610b9b83398181016040528101906100319190610133565b8273ffffffffffffffffffffffffffffffffffffffff1660808173ffffffffffffffffffffffffffffffffffffffff16815250508173ffffffffffffffffffffffffffffffffffffffff1660c08173ffffffffffffffffffffffffffffffffffffffff16815250508073ffffffffffffffffffffffffffffffffffffffff1660a08173ffffffffffffffffffffffffffffffffffffffff1681525050505050610183565b5f80fd5b5f73ffffffffffffffffffffffffffffffffffffffff82169050919050565b5f610102826100d9565b9050919050565b610112816100f8565b811461011c575f80fd5b50565b5f8151905061012d81610109565b92915050565b5f805f6060848603121561014a576101496100d5565b5b5f6101578682870161011f565b93505060206101688682870161011f565b92505060406101798682870161011f565b9150509250925092565b60805160a05160c0516109d26101c95f395f61016101525f61030a01525f818161018d01528181610246015281816102e601528181610354015261041001526109d25ff3fe608060405234801561000f575f80fd5b506004361061007b575f3560e01c806338d52e0f1161005957806338d52e0f146100d75780635996db91146100f557806370a0823114610113578063b6b55f25146101435761007b565b806316f0115b1461007f57806318160ddd1461009d5780632e1a7d4d146100bb575b5f80fd5b61008761015f565b6040516100949190610606565b60405180910390f35b6100a5610183565b6040516100b29190610637565b60405180910390f35b6100d560048036038101906100d0919061067e565b610188565b005b6100df6102e4565b6040516100ec91906106c9565b60405180910390f35b6100fd610308565b60405161010a91906106c9565b60405180910390f35b61012d6004803603810190610128919061071d565b61032c565b60405161013a9190610637565b60405180910390f35b61015d6004803603810190610158919061067e565b610341565b005b7f000000000000000000000000000000000000000000000000000000000000000081565b5f5481565b5f80547f000000000000000000000000000000000000000000000000000000000000000073ffffffffffffffffffffffffffffffffffffffff166370a08231306040518263ffffffff1660e01b81526004016101e49190610757565b602060405180830381865afa1580156101ff573d5f803e3d5ffd5b505050506040513d601f19601f820116820180604052508101906102239190610784565b8361022e91906107dc565b610238919061084a565b905061024433836104b0565b7f000000000000000000000000000000000000000000000000000000000000000073ffffffffffffffffffffffffffffffffffffffff1663a9059cbb33836040518363ffffffff1660e01b815260040161029f92919061087a565b6020604051808303815f875af11580156102bb573d5f803e3d5ffd5b505050506040513d601f19601f820116820180604052508101906102df91906108d6565b505050565b7f000000000000000000000000000000000000000000000000000000000000000081565b7f000000000000000000000000000000000000000000000000000000000000000081565b6001602052805f5260405f205f915090505481565b5f805f540361035257819050610404565b7f000000000000000000000000000000000000000000000000000000000000000073ffffffffffffffffffffffffffffffffffffffff166370a08231306040518263ffffffff1660e01b81526004016103ab9190610757565b602060405180830381865afa1580156103c6573d5f803e3d5ffd5b505050506040513d601f19601f820116820180604052508101906103ea9190610784565b5f54836103f791906107dc565b610401919061084a565b90505b61040e338261051e565b7f000000000000000000000000000000000000000000000000000000000000000073ffffffffffffffffffffffffffffffffffffffff166323b872dd3330856040518463ffffffff1660e01b815260040161046b93929190610901565b6020604051808303815f875af1158015610487573d5f803e3d5ffd5b505050506040513d601f19601f820116820180604052508101906104ab91906108d6565b505050565b805f808282546104c09190610936565b925050819055508060015f8473ffffffffffffffffffffffffffffffffffffffff1673ffffffffffffffffffffffffffffffffffffffff1681526020019081526020015f205f8282546105139190610936565b925050819055505050565b805f8082825461052e9190610969565b925050819055508060015f8473ffffffffffffffffffffffffffffffffffffffff1673ffffffffffffffffffffffffffffffffffffffff1681526020019081526020015f205f8282546105819190610969565b925050819055505050565b5f73ffffffffffffffffffffffffffffffffffffffff82169050919050565b5f819050919050565b5f6105ce6105c96105c48461058c565b6105ab565b61058c565b9050919050565b5f6105df826105b4565b9050919050565b5f6105f0826105d5565b9050919050565b610600816105e6565b82525050565b5f6020820190506106195f8301846105f7565b92915050565b5f819050919050565b6106318161061f565b82525050565b5f60208201905061064a5f830184610628565b92915050565b5f80fd5b61065d8161061f565b8114610667575f80fd5b50565b5f8135905061067881610654565b92915050565b5f6020828403121561069357610692610650565b5b5f6106a08482850161066a565b91505092915050565b5f6106b3826105d5565b9050919050565b6106c3816106a9565b82525050565b5f6020820190506106dc5f8301846106ba565b92915050565b5f6106ec8261058c565b9050919050565b6106fc816106e2565b8114610706575f80fd5b50565b5f81359050610717816106f3565b92915050565b5f6020828403121561073257610731610650565b5b5f61073f84828501610709565b91505092915050565b610751816106e2565b82525050565b5f60208201905061076a5f830184610748565b92915050565b5f8151905061077e81610654565b92915050565b5f6020828403121561079957610798610650565b5b5f6107a684828501610770565b91505092915050565b7f4e487b71000000000000000000000000000000000000000000000000000000005f52601160045260245ffd5b5f6107e68261061f565b91506107f18361061f565b92508282026107ff8161061f565b91508282048414831517610816576108156107af565b5b5092915050565b7f4e487b71000000000000000000000000000000000000000000000000000000005f52601260045260245ffd5b5f6108548261061f565b915061085f8361061f565b92508261086f5761086e61081d565b5b828204905092915050565b5f60408201905061088d5f830185610748565b61089a6020830184610628565b9392505050565b5f8115159050919050565b6108b5816108a1565b81146108bf575f80fd5b50565b5f815190506108d0816108ac565b92915050565b5f602082840312156108eb576108ea610650565b5b5f6108f8848285016108c2565b91505092915050565b5f6060820190506109145f830186610748565b6109216020830185610748565b61092e6040830184610628565b949350505050565b5f6109408261061f565b915061094b8361061f565b9250828203905081811115610963576109626107af565b5b92915050565b5f6109738261061f565b915061097e8361061f565b9250828201905080821115610996576109956107af565b5b9291505056fea26469706673582212207b5bca257c91fbd933f8df5ade45feda4307ba5c27fbcf3b18a2dce885ea5a9564736f6c63430008170033",
					"opcodes": "PUSH1 0xE0 PUSH1 0x40 MSTORE CALLVALUE DUP1 ISZERO PUSH2 0xF JUMPI PUSH0 DUP1 REVERT JUMPDEST POP PUSH1 0x40 MLOAD PUSH2 0xB9B CODESIZE SUB DUP1 PUSH2 0xB9B DUP4 CODECOPY DUP2 DUP2 ADD PUSH1 0x40 MSTORE DUP2 ADD SWAP1 PUSH2 0x31 SWAP2 SWAP1 PUSH2 0x133 JUMP JUMPDEST DUP3 PUSH20 0xFFFFFFFFFFFFFFFFFFFFFFFFFFFFFFFFFFFFFFFF AND PUSH1 0x80 DUP2 PUSH20 0xFFFFFFFFFFFFFFFFFFFFFFFFFFFFFFFFFFFFFFFF AND DUP2 MSTORE POP POP DUP2 PUSH20 0xFFFFFFFFFFFFFFFFFFFFFFFFFFFFFFFFFFFFFFFF AND PUSH1 0xC0 DUP2 PUSH20 0xFFFFFFFFFFFFFFFFFFFFFFFFFFFFFFFFFFFFFFFF AND DUP2 MSTORE POP POP DUP1 PUSH20 0xFFFFFFFFFFFFFFFFFFFFFFFFFFFFFFFFFFFFFFFF AND PUSH1 0xA0 DUP2 PUSH20 0xFFFFFFFFFFFFFFFFFFFFFFFFFFFFFFFFFFFFFFFF AND DUP2 MSTORE POP POP POP POP POP PUSH2 0x183 JUMP JUMPDEST PUSH0 DUP1 REVERT JUMPDEST PUSH0 PUSH20 0xFFFFFFFFFFFFFFFFFFFFFFFFFFFFFFFFFFFFFFFF DUP3 AND SWAP1 POP SWAP2 SWAP1 POP JUMP JUMPDEST PUSH0 PUSH2 0x102 DUP3 PUSH2 0xD9 JUMP JUMPDEST SWAP1 POP SWAP2 SWAP1 POP JUMP JUMPDEST PUSH2 0x112 DUP2 PUSH2 0xF8 JUMP JUMPDEST DUP2 EQ PUSH2 0x11C JUMPI PUSH0 DUP1 REVERT JUMPDEST POP JUMP JUMPDEST PUSH0 DUP2 MLOAD SWAP1 POP PUSH2 0x12D DUP2 PUSH2 0x109 JUMP JUMPDEST SWAP3 SWAP2 POP POP JUMP JUMPDEST PUSH0 DUP1 PUSH0 PUSH1 0x60 DUP5 DUP7 SUB SLT ISZERO PUSH2 0x14A JUMPI PUSH2 0x149 PUSH2 0xD5 JUMP JUMPDEST JUMPDEST PUSH0 PUSH2 0x157 DUP7 DUP3 DUP8 ADD PUSH2 0x11F JUMP JUMPDEST SWAP4 POP POP PUSH1 0x20 PUSH2 0x168 DUP7 DUP3 DUP8 ADD PUSH2 0x11F JUMP JUMPDEST SWAP3 POP POP PUSH1 0x40 PUSH2 0x179 DUP7 DUP3 DUP8 ADD PUSH2 0x11F JUMP JUMPDEST SWAP2 POP POP SWAP3 POP SWAP3 POP SWAP3 JUMP JUMPDEST PUSH1 0x80 MLOAD PUSH1 0xA0 MLOAD PUSH1 0xC0 MLOAD PUSH2 0x9D2 PUSH2 0x1C9 PUSH0 CODECOPY PUSH0 PUSH2 0x161 ADD MSTORE PUSH0 PUSH2 0x30A ADD MSTORE PUSH0 DUP2 DUP2 PUSH2 0x18D ADD MSTORE DUP2 DUP2 PUSH2 0x246 ADD MSTORE DUP2 DUP2 PUSH2 0x2E6 ADD MSTORE DUP2 DUP2 PUSH2 0x354 ADD MSTORE PUSH2 0x410 ADD MSTORE PUSH2 0x9D2 PUSH0 RETURN INVALID PUSH1 0x80 PUSH1 0x40 MSTORE CALLVALUE DUP1 ISZERO PUSH2 0xF JUMPI PUSH0 DUP1 REVERT JUMPDEST POP PUSH1 0x4 CALLDATASIZE LT PUSH2 0x7B JUMPI PUSH0 CALLDATALOAD PUSH1 0xE0 SHR DUP1 PUSH4 0x38D52E0F GT PUSH2 0x59 JUMPI DUP1 PUSH4 0x38D52E0F EQ PUSH2 0xD7 JUMPI DUP1 PUSH4 0x5996DB91 EQ PUSH2 0xF5 JUMPI DUP1 PUSH4 0x70A08231 EQ PUSH2 0x113 JUMPI DUP1 PUSH4 0xB6B55F25 EQ PUSH2 0x143 JUMPI PUSH2 0x7B JUMP JUMPDEST DUP1 PUSH4 0x16F0115B EQ PUSH2 0x7F JUMPI DUP1 PUSH4 0x18160DDD EQ PUSH2 0x9D JUMPI DUP1 PUSH4 0x2E1A7D4D EQ PUSH2 0xBB JUMPI JUMPDEST PUSH0 DUP1 REVERT JUMPDEST PUSH2 0x87 PUSH2 0x15F JUMP JUMPDEST PUSH1 0x40 MLOAD PUSH2 0x94 SWAP2 SWAP1 PUSH2 0x606 JUMP JUMPDEST PUSH1 0x40 MLOAD DUP1 SWAP2 SUB SWAP1 RETURN JUMPDEST PUSH2 0xA5 PUSH2 0x183 JUMP JUMPDEST PUSH1 0x40 MLOAD PUSH2 0xB2 SWAP2 SWAP1 PUSH2 0x637 JUMP JUMPDEST PUSH1 0x40 MLOAD DUP1 SWAP2 SUB SWAP1 RETURN JUMPDEST PUSH2 0xD5 PUSH1 0x4 DUP1 CALLDATASIZE SUB DUP2 ADD SWAP1 PUSH2 0xD0 SWAP2 SWAP1 PUSH2 0x67E JUMP JUMPDEST PUSH2 0x188 JUMP JUMPDEST STOP JUMPDEST PUSH2 0xDF PUSH2 0x2E4 JUMP JUMPDEST PUSH1 0x40 MLOAD PUSH2 0xEC SWAP2 SWAP1 PUSH2 0x6C9 JUMP JUMPDEST PUSH1 0x40 MLOAD DUP1 SWAP2 SUB SWAP1 RETURN JUMPDEST PUSH2 0xFD PUSH2 0x308 JUMP JUMPDEST PUSH1 0x40 MLOAD PUSH2 0x10A SWAP2 SWAP1 PUSH2 0x6C9 JUMP JUMPDEST PUSH1 0x40 MLOAD DUP1 SWAP2 SUB SWAP1 RETURN JUMPDEST PUSH2 0x12D PUSH1 0x4 DUP1 CALLDATASIZE SUB DUP2 ADD SWAP1 PUSH2 0x128 SWAP2 SWAP1 PUSH2 0x71D JUMP JUMPDEST PUSH2 0x32C JUMP JUMPDEST PUSH1 0x40 MLOAD PUSH2 0x13A SWAP2 SWAP1 PUSH2 0x637 JUMP JUMPDEST PUSH1 0x40 MLOAD DUP1 SWAP2 SUB SWAP1 RETURN JUMPDEST PUSH2 0x15D PUSH1 0x4 DUP1 CALLDATASIZE SUB DUP2 ADD SWAP1 PUSH2 0x158 SWAP2 SWAP1 PUSH2 0x67E JUMP JUMPDEST PUSH2 0x341 JUMP JUMPDEST STOP JUMPDEST PUSH32 0x0 DUP2 JUMP JUMPDEST PUSH0 SLOAD DUP2 JUMP JUMPDEST PUSH0 DUP1 SLOAD PUSH32 0x0 PUSH20 0xFFFFFFFFFFFFFFFFFFFFFFFFFFFFFFFFFFFFFFFF AND PUSH4 0x70A08231 ADDRESS PUSH1 0x40 MLOAD DUP3 PUSH4 0xFFFFFFFF AND PUSH1 0xE0 SHL DUP2 MSTORE PUSH1 0x4 ADD PUSH2 0x1E4 SWAP2 SWAP1 PUSH2 0x757 JUMP JUMPDEST PUSH1 0x20 PUSH1 0x40 MLOAD DUP1 DUP4 SUB DUP2 DUP7 GAS STATICCALL ISZERO DUP1 ISZERO PUSH2 0x1FF JUMPI RETURNDATASIZE PUSH0 DUP1 RETURNDATACOPY RETURNDATASIZE PUSH0 REVERT JUMPDEST POP POP POP POP PUSH1 0x40 MLOAD RETURNDATASIZE PUSH1 0x1F NOT PUSH1 0x1F DUP3 ADD AND DUP3 ADD DUP1 PUSH1 0x40 MSTORE POP DUP2 ADD SWAP1 PUSH2 0x223 SWAP2 SWAP1 PUSH2 0x784 JUMP JUMPDEST DUP4 PUSH2 0x22E SWAP2 SWAP1 PUSH2 0x7DC JUMP JUMPDEST PUSH2 0x238 SWAP2 SWAP1 PUSH2 0x84A JUMP JUMPDEST SWAP1 POP PUSH2 0x244 CALLER DUP4 PUSH2 0x4B0 JUMP JUMPDEST PUSH32 0x0 PUSH20 0xFFFFFFFFFFFFFFFFFFFFFFFFFFFFFFFFFFFFFFFF AND PUSH4 0xA9059CBB CALLER DUP4 PUSH1 0x40 MLOAD DUP4 PUSH4 0xFFFFFFFF AND PUSH1 0xE0 SHL DUP2 MSTORE PUSH1 0x4 ADD PUSH2 0x29F SWAP3 SWAP2 SWAP1 PUSH2 0x87A JUMP JUMPDEST PUSH1 0x20 PUSH1 0x40 MLOAD DUP1 DUP4 SUB DUP2 PUSH0 DUP8 GAS CALL ISZERO DUP1 ISZERO PUSH2 0x2BB JUMPI RETURNDATASIZE PUSH0 DUP1 RETURNDATACOPY RETURNDATASIZE PUSH0 REVERT JUMPDEST POP POP POP POP PUSH1 0x40 MLOAD RETURNDATASIZE PUSH1 0x1F NOT PUSH1 0x1F DUP3 ADD AND DUP3 ADD DUP1 PUSH1 0x40 MSTORE POP DUP2 ADD SWAP1 PUSH2 0x2DF SWAP2 SWAP1 PUSH2 0x8D6 JUMP JUMPDEST POP POP POP JUMP JUMPDEST PUSH32 0x0 DUP2 JUMP JUMPDEST PUSH32 0x0 DUP2 JUMP JUMPDEST PUSH1 0x1 PUSH1 0x20 MSTORE DUP1 PUSH0 MSTORE PUSH1 0x40 PUSH0 KECCAK256 PUSH0 SWAP2 POP SWAP1 POP SLOAD DUP2 JUMP JUMPDEST PUSH0 DUP1 PUSH0 SLOAD SUB PUSH2 0x352 JUMPI DUP2 SWAP1 POP PUSH2 0x404 JUMP JUMPDEST PUSH32 0x0 PUSH20 0xFFFFFFFFFFFFFFFFFFFFFFFFFFFFFFFFFFFFFFFF AND PUSH4 0x70A08231 ADDRESS PUSH1 0x40 MLOAD DUP3 PUSH4 0xFFFFFFFF AND PUSH1 0xE0 SHL DUP2 MSTORE PUSH1 0x4 ADD PUSH2 0x3AB SWAP2 SWAP1 PUSH2 0x757 JUMP JUMPDEST PUSH1 0x20 PUSH1 0x40 MLOAD DUP1 DUP4 SUB DUP2 DUP7 GAS STATICCALL ISZERO DUP1 ISZERO PUSH2 0x3C6 JUMPI RETURNDATASIZE PUSH0 DUP1 RETURNDATACOPY RETURNDATASIZE PUSH0 REVERT JUMPDEST POP POP POP POP PUSH1 0x40 MLOAD RETURNDATASIZE PUSH1 0x1F NOT PUSH1 0x1F DUP3 ADD AND DUP3 ADD DUP1 PUSH1 0x40 MSTORE POP DUP2 ADD SWAP1 PUSH2 0x3EA SWAP2 SWAP1 PUSH2 0x784 JUMP JUMPDEST PUSH0 SLOAD DUP4 PUSH2 0x3F7 SWAP2 SWAP1 PUSH2 0x7DC JUMP JUMPDEST PUSH2 0x401 SWAP2 SWAP1 PUSH2 0x84A JUMP JUMPDEST SWAP1 POP JUMPDEST PUSH2 0x40E CALLER DUP3 PUSH2 0x51E JUMP JUMPDEST PUSH32 0x0 PUSH20 0xFFFFFFFFFFFFFFFFFFFFFFFFFFFFFFFFFFFFFFFF AND PUSH4 0x23B872DD CALLER ADDRESS DUP6 PUSH1 0x40 MLOAD DUP5 PUSH4 0xFFFFFFFF AND PUSH1 0xE0 SHL DUP2 MSTORE PUSH1 0x4 ADD PUSH2 0x46B SWAP4 SWAP3 SWAP2 SWAP1 PUSH2 0x901 JUMP JUMPDEST PUSH1 0x20 PUSH1 0x40 MLOAD DUP1 DUP4 SUB DUP2 PUSH0 DUP8 GAS CALL ISZERO DUP1 ISZERO PUSH2 0x487 JUMPI RETURNDATASIZE PUSH0 DUP1 RETURNDATACOPY RETURNDATASIZE PUSH0 REVERT JUMPDEST POP POP POP POP PUSH1 0x40 MLOAD RETURNDATASIZE PUSH1 0x1F NOT PUSH1 0x1F DUP3 ADD AND DUP3 ADD DUP1 PUSH1 0x40 MSTORE POP DUP2 ADD SWAP1 PUSH2 0x4AB SWAP2 SWAP1 PUSH2 0x8D6 JUMP JUMPDEST POP POP POP JUMP JUMPDEST DUP1 PUSH0 DUP1 DUP3 DUP3 SLOAD PUSH2 0x4C0 SWAP2 SWAP1 PUSH2 0x936 JUMP JUMPDEST SWAP3 POP POP DUP2 SWAP1 SSTORE POP DUP1 PUSH1 0x1 PUSH0 DUP5 PUSH20 0xFFFFFFFFFFFFFFFFFFFFFFFFFFFFFFFFFFFFFFFF AND PUSH20 0xFFFFFFFFFFFFFFFFFFFFFFFFFFFFFFFFFFFFFFFF AND DUP2 MSTORE PUSH1 0x20 ADD SWAP1 DUP2 MSTORE PUSH1 0x20 ADD PUSH0 KECCAK256 PUSH0 DUP3 DUP3 SLOAD PUSH2 0x513 SWAP2 SWAP1 PUSH2 0x936 JUMP JUMPDEST SWAP3 POP POP DUP2 SWAP1 SSTORE POP POP POP JUMP JUMPDEST DUP1 PUSH0 DUP1 DUP3 DUP3 SLOAD PUSH2 0x52E SWAP2 SWAP1 PUSH2 0x969 JUMP JUMPDEST SWAP3 POP POP DUP2 SWAP1 SSTORE POP DUP1 PUSH1 0x1 PUSH0 DUP5 PUSH20 0xFFFFFFFFFFFFFFFFFFFFFFFFFFFFFFFFFFFFFFFF AND PUSH20 0xFFFFFFFFFFFFFFFFFFFFFFFFFFFFFFFFFFFFFFFF AND DUP2 MSTORE PUSH1 0x20 ADD SWAP1 DUP2 MSTORE PUSH1 0x20 ADD PUSH0 KECCAK256 PUSH0 DUP3 DUP3 SLOAD PUSH2 0x581 SWAP2 SWAP1 PUSH2 0x969 JUMP JUMPDEST SWAP3 POP POP DUP2 SWAP1 SSTORE POP POP POP JUMP JUMPDEST PUSH0 PUSH20 0xFFFFFFFFFFFFFFFFFFFFFFFFFFFFFFFFFFFFFFFF DUP3 AND SWAP1 POP SWAP2 SWAP1 POP JUMP JUMPDEST PUSH0 DUP2 SWAP1 POP SWAP2 SWAP1 POP JUMP JUMPDEST PUSH0 PUSH2 0x5CE PUSH2 0x5C9 PUSH2 0x5C4 DUP5 PUSH2 0x58C JUMP JUMPDEST PUSH2 0x5AB JUMP JUMPDEST PUSH2 0x58C JUMP JUMPDEST SWAP1 POP SWAP2 SWAP1 POP JUMP JUMPDEST PUSH0 PUSH2 0x5DF DUP3 PUSH2 0x5B4 JUMP JUMPDEST SWAP1 POP SWAP2 SWAP1 POP JUMP JUMPDEST PUSH0 PUSH2 0x5F0 DUP3 PUSH2 0x5D5 JUMP JUMPDEST SWAP1 POP SWAP2 SWAP1 POP JUMP JUMPDEST PUSH2 0x600 DUP2 PUSH2 0x5E6 JUMP JUMPDEST DUP3 MSTORE POP POP JUMP JUMPDEST PUSH0 PUSH1 0x20 DUP3 ADD SWAP1 POP PUSH2 0x619 PUSH0 DUP4 ADD DUP5 PUSH2 0x5F7 JUMP JUMPDEST SWAP3 SWAP2 POP POP JUMP JUMPDEST PUSH0 DUP2 SWAP1 POP SWAP2 SWAP1 POP JUMP JUMPDEST PUSH2 0x631 DUP2 PUSH2 0x61F JUMP JUMPDEST DUP3 MSTORE POP POP JUMP JUMPDEST PUSH0 PUSH1 0x20 DUP3 ADD SWAP1 POP PUSH2 0x64A PUSH0 DUP4 ADD DUP5 PUSH2 0x628 JUMP JUMPDEST SWAP3 SWAP2 POP POP JUMP JUMPDEST PUSH0 DUP1 REVERT JUMPDEST PUSH2 0x65D DUP2 PUSH2 0x61F JUMP JUMPDEST DUP2 EQ PUSH2 0x667 JUMPI PUSH0 DUP1 REVERT JUMPDEST POP JUMP JUMPDEST PUSH0 DUP2 CALLDATALOAD SWAP1 POP PUSH2 0x678 DUP2 PUSH2 0x654 JUMP JUMPDEST SWAP3 SWAP2 POP POP JUMP JUMPDEST PUSH0 PUSH1 0x20 DUP3 DUP5 SUB SLT ISZERO PUSH2 0x693 JUMPI PUSH2 0x692 PUSH2 0x650 JUMP JUMPDEST JUMPDEST PUSH0 PUSH2 0x6A0 DUP5 DUP3 DUP6 ADD PUSH2 0x66A JUMP JUMPDEST SWAP2 POP POP SWAP3 SWAP2 POP POP JUMP JUMPDEST PUSH0 PUSH2 0x6B3 DUP3 PUSH2 0x5D5 JUMP JUMPDEST SWAP1 POP SWAP2 SWAP1 POP JUMP JUMPDEST PUSH2 0x6C3 DUP2 PUSH2 0x6A9 JUMP JUMPDEST DUP3 MSTORE POP POP JUMP JUMPDEST PUSH0 PUSH1 0x20 DUP3 ADD SWAP1 POP PUSH2 0x6DC PUSH0 DUP4 ADD DUP5 PUSH2 0x6BA JUMP JUMPDEST SWAP3 SWAP2 POP POP JUMP JUMPDEST PUSH0 PUSH2 0x6EC DUP3 PUSH2 0x58C JUMP JUMPDEST SWAP1 POP SWAP2 SWAP1 POP JUMP JUMPDEST PUSH2 0x6FC DUP2 PUSH2 0x6E2 JUMP JUMPDEST DUP2 EQ PUSH2 0x706 JUMPI PUSH0 DUP1 REVERT JUMPDEST POP JUMP JUMPDEST PUSH0 DUP2 CALLDATALOAD SWAP1 POP PUSH2 0x717 DUP2 PUSH2 0x6F3 JUMP JUMPDEST SWAP3 SWAP2 POP POP JUMP JUMPDEST PUSH0 PUSH1 0x20 DUP3 DUP5 SUB SLT ISZERO PUSH2 0x732 JUMPI PUSH2 0x731 PUSH2 0x650 JUMP JUMPDEST JUMPDEST PUSH0 PUSH2 0x73F DUP5 DUP3 DUP6 ADD PUSH2 0x709 JUMP JUMPDEST SWAP2 POP POP SWAP3 SWAP2 POP POP JUMP JUMPDEST PUSH2 0x751 DUP2 PUSH2 0x6E2 JUMP JUMPDEST DUP3 MSTORE POP POP JUMP JUMPDEST PUSH0 PUSH1 0x20 DUP3 ADD SWAP1 POP PUSH2 0x76A PUSH0 DUP4 ADD DUP5 PUSH2 0x748 JUMP JUMPDEST SWAP3 SWAP2 POP POP JUMP JUMPDEST PUSH0 DUP2 MLOAD SWAP1 POP PUSH2 0x77E DUP2 PUSH2 0x654 JUMP JUMPDEST SWAP3 SWAP2 POP POP JUMP JUMPDEST PUSH0 PUSH1 0x20 DUP3 DUP5 SUB SLT ISZERO PUSH2 0x799 JUMPI PUSH2 0x798 PUSH2 0x650 JUMP JUMPDEST JUMPDEST PUSH0 PUSH2 0x7A6 DUP5 DUP3 DUP6 ADD PUSH2 0x770 JUMP JUMPDEST SWAP2 POP POP SWAP3 SWAP2 POP POP JUMP JUMPDEST PUSH32 0x4E487B7100000000000000000000000000000000000000000000000000000000 PUSH0 MSTORE PUSH1 0x11 PUSH1 0x4 MSTORE PUSH1 0x24 PUSH0 REVERT JUMPDEST PUSH0 PUSH2 0x7E6 DUP3 PUSH2 0x61F JUMP JUMPDEST SWAP2 POP PUSH2 0x7F1 DUP4 PUSH2 0x61F JUMP JUMPDEST SWAP3 POP DUP3 DUP3 MUL PUSH2 0x7FF DUP2 PUSH2 0x61F JUMP JUMPDEST SWAP2 POP DUP3 DUP3 DIV DUP5 EQ DUP4 ISZERO OR PUSH2 0x816 JUMPI PUSH2 0x815 PUSH2 0x7AF JUMP JUMPDEST JUMPDEST POP SWAP3 SWAP2 POP POP JUMP JUMPDEST PUSH32 0x4E487B7100000000000000000000000000000000000000000000000000000000 PUSH0 MSTORE PUSH1 0x12 PUSH1 0x4 MSTORE PUSH1 0x24 PUSH0 REVERT JUMPDEST PUSH0 PUSH2 0x854 DUP3 PUSH2 0x61F JUMP JUMPDEST SWAP2 POP PUSH2 0x85F DUP4 PUSH2 0x61F JUMP JUMPDEST SWAP3 POP DUP3 PUSH2 0x86F JUMPI PUSH2 0x86E PUSH2 0x81D JUMP JUMPDEST JUMPDEST DUP3 DUP3 DIV SWAP1 POP SWAP3 SWAP2 POP POP JUMP JUMPDEST PUSH0 PUSH1 0x40 DUP3 ADD SWAP1 POP PUSH2 0x88D PUSH0 DUP4 ADD DUP6 PUSH2 0x748 JUMP JUMPDEST PUSH2 0x89A PUSH1 0x20 DUP4 ADD DUP5 PUSH2 0x628 JUMP JUMPDEST SWAP4 SWAP3 POP POP POP JUMP JUMPDEST PUSH0 DUP2 ISZERO ISZERO SWAP1 POP SWAP2 SWAP1 POP JUMP JUMPDEST PUSH2 0x8B5 DUP2 PUSH2 0x8A1 JUMP JUMPDEST DUP2 EQ PUSH2 0x8BF JUMPI PUSH0 DUP1 REVERT JUMPDEST POP JUMP JUMPDEST PUSH0 DUP2 MLOAD SWAP1 POP PUSH2 0x8D0 DUP2 PUSH2 0x8AC JUMP JUMPDEST SWAP3 SWAP2 POP POP JUMP JUMPDEST PUSH0 PUSH1 0x20 DUP3 DUP5 SUB SLT ISZERO PUSH2 0x8EB JUMPI PUSH2 0x8EA PUSH2 0x650 JUMP JUMPDEST JUMPDEST PUSH0 PUSH2 0x8F8 DUP5 DUP3 DUP6 ADD PUSH2 0x8C2 JUMP JUMPDEST SWAP2 POP POP SWAP3 SWAP2 POP POP JUMP JUMPDEST PUSH0 PUSH1 0x60 DUP3 ADD SWAP1 POP PUSH2 0x914 PUSH0 DUP4 ADD DUP7 PUSH2 0x748 JUMP JUMPDEST PUSH2 0x921 PUSH1 0x20 DUP4 ADD DUP6 PUSH2 0x748 JUMP JUMPDEST PUSH2 0x92E PUSH1 0x40 DUP4 ADD DUP5 PUSH2 0x628 JUMP JUMPDEST SWAP5 SWAP4 POP POP POP POP JUMP JUMPDEST PUSH0 PUSH2 0x940 DUP3 PUSH2 0x61F JUMP JUMPDEST SWAP2 POP PUSH2 0x94B DUP4 PUSH2 0x61F JUMP JUMPDEST SWAP3 POP DUP3 DUP3 SUB SWAP1 POP DUP2 DUP2 GT ISZERO PUSH2 0x963 JUMPI PUSH2 0x962 PUSH2 0x7AF JUMP JUMPDEST JUMPDEST SWAP3 SWAP2 POP POP JUMP JUMPDEST PUSH0 PUSH2 0x973 DUP3 PUSH2 0x61F JUMP JUMPDEST SWAP2 POP PUSH2 0x97E DUP4 PUSH2 0x61F JUMP JUMPDEST SWAP3 POP DUP3 DUP3 ADD SWAP1 POP DUP1 DUP3 GT ISZERO PUSH2 0x996 JUMPI PUSH2 0x995 PUSH2 0x7AF JUMP JUMPDEST JUMPDEST SWAP3 SWAP2 POP POP JUMP INVALID LOG2 PUSH5 0x6970667358 0x22 SLT KECCAK256 PUSH28 0x5BCA257C91FBD933F8DF5ADE45FEDA4307BA5C27FBCF3B18A2DCE885 0xEA GAS SWAP6 PUSH5 0x736F6C6343 STOP ADDMOD OR STOP CALLER "
				},
				"gasEstimates": {
					"creation": {
						"codeDepositCost": "502800",
						"executionCost": "infinite",
						"totalCost": "infinite"
					},
					"external": {
						"asset()": "infinite",
						"balanceOf(address)": "2846",
						"deposit(uint256)": "infinite",
						"ghoToken()": "infinite",
						"pool()": "infinite",
						"totalSupply()": "2447",
						"withdraw(uint256)": "infinite"
					},
					"internal": {
						"_burn(address,uint256)": "infinite",
						"_mint(address,uint256)": "infinite"
					}
				},
				"methodIdentifiers": {
					"asset()": "38d52e0f",
					"balanceOf(address)": "70a08231",
					"deposit(uint256)": "b6b55f25",
					"ghoToken()": "5996db91",
					"pool()": "16f0115b",
					"totalSupply()": "18160ddd",
					"withdraw(uint256)": "2e1a7d4d"
				}
			},
			"storageLayout": {
				"storage": [
					{
						"astId": 1293,
						"contract": "contracts/CirqlProtocol.sol:CirqlProtocol",
						"label": "totalSupply",
						"offset": 0,
						"slot": "0",
						"type": "t_uint256"
					},
					{
						"astId": 1297,
						"contract": "contracts/CirqlProtocol.sol:CirqlProtocol",
						"label": "balanceOf",
						"offset": 0,
						"slot": "1",
						"type": "t_mapping(t_address,t_uint256)"
					}
				],
				"types": {
					"t_address": {
						"encoding": "inplace",
						"label": "address",
						"numberOfBytes": "20"
					},
					"t_mapping(t_address,t_uint256)": {
						"encoding": "mapping",
						"key": "t_address",
						"label": "mapping(address => uint256)",
						"numberOfBytes": "32",
						"value": "t_uint256"
					},
					"t_uint256": {
						"encoding": "inplace",
						"label": "uint256",
						"numberOfBytes": "32"
					}
				}
			},
			"userdoc": {
				"kind": "user",
				"methods": {},
				"version": 1
			}
		}
	}
}